:020000040800F2
:10100000200E0020D5110008DD110008551600083B
:1010100081160008751500089519000800000000E9
:10102000000000000000000000000000851700081C
:10103000291600080000000085160008891700081E
:10104000EF110008EF110008EF110008EF11000880
:10105000EF110008EF110008EF1100082D1600082D
:101060000000000079150008EF110008A515000820
:10107000CD130008EF110008EF1100080000000078
:101080006D190008EF110008000000003119000878
:10109000451900085D190008EF110008EF1100085C
:1010A000EF110008EF110008EF1100089119000876
:1010B000EF11000800000000000000000000000028
:1010C000EF11000800000000EF11000800F002F826
:1010D00000F070F814A696E8000CB244B344DA4568
:1010E00001D100F067F8BAE80F000FA696E83000CB
:1010F000A5EB040504EB0607AAEB0704A7F101071B
:101100004FEA15154FEA3414A4F10104AC4201D39F
:1011100000F050F813F0010F18BFFB1A43F0010361
:1011200000F001F8DBE71847F85A0000185B0000F0
:101130000A444FF0000C10F8013B13F0070408BFFD
:1011400010F8014B1D1108BF10F8015B641E05D09B
:1011500010F8016B641E01F8016BF9D113F0080F50
:101160001EBF10F8014BAD1C0C1B09D16D1E58BFE2
:1011700001F801CBFAD505E014F8016B01F8016B19
:101180006D1EF9D59142D6D370470000704700001C
:101190000023002400250026103A28BF78C1FBD880
:1011A000520728BF30C148BF0B6070471FB51FBD35
:1011B00010B510BD00F0CFF81146FFF7F7FF02F0B1
:1011C000DBFE00F0EDF803B4FFF7F2FF03BC00F024
:1011D000F5F800000948804709480047FEE7FEE7A8
:1011E000FEE7FEE7FEE7FEE7FEE7FEE7FEE7FEE7D7
:1011F00004480549054A064B704700008D17000852
:10120000CD10000820080020200E0020200A002019
:10121000200A0020032A40F2308010F0030C00F076
:10122000158011F8013BBCF1020F624498BF11F820
:1012300001CB00F8013B38BF11F8013BA2F10402D9
:1012400098BF00F801CB38BF00F8013B11F0030351
:1012500000F04F80083AC0F0088051F8043B083A8B
:1012600051F804CBA0E80810F5E7121D5CBF51F857
:10127000043B40F8043BAFF30080D20724BF11F8D1
:10128000013B11F801CB48BF11F8012B24BF00F836
:10129000013B00F801CB48BF00F8012B70474FF02D
:1012A000000200B5134694469646203922BFA0E8B6
:1012B0000C50A0E80C50B1F12001BFF4F7AF0907C2
:1012C00028BFA0E80C5048BF0CC05DF804EB8900B3
:1012D00028BF40F8042B08BF704748BF20F8022BF6
:1012E00011F0804F18BF00F8012B7047704770470E
:1012F000704710B5203AC0F00B80B1E81850A0E854
:101300001850B1E81850A0E81850203ABFF4F5AFD3
:101310005FEA027C24BFB1E81850A0E8185044BF2F
:1013200018C918C0BDE810405FEA827C24BF51F89C
:10133000043B40F8043B08BF7047D20728BF31F890
:10134000023B48BF11F8012B28BF20F8023B48BFE1
:1013500000F8012B7047754600F02CF8AE460500EA
:101360006946534620F00700854618B020B5FFF7C0
:101370003FFFBDE820404FF000064FF000074FF060
:1013800000084FF0000BAC46ACE8C009ACE8C0095F
:10139000ACE8C009ACE8C00921F007018D467047F0
:1013A00010B50446AFF300802046BDE81040FFF7BB
:1013B0000ABF000000487047B00300200149182010
:1013C000ABBEFEE7260002007047000041F2240099
:1013D00040F20051C4F20000C2F200010068096846
:1013E000B0EB510F08D940F21440C4F201004FF4A1
:1013F0000011016002F00CBC80B502F005FA40F269
:101400000D01C2F200010978884218BF80BD40F288
:101410001440C4F201004FF40011016080BD0000CF
:1014200040F28450C2F20000C18840F2E842C2F2A9
:1014300000021180018840F2EC42C2F200021180E9
:10144000408840F2D441C2F2000108807047000099
:10145000F0B587B042F200444FF0904003210022E3
:101460004023C4F20104002702F0DCFA4FF0904060
:1014700003210022082302F0D5FA4FF4A010012125
:1014800001F0D4FB0825C4F20205284601F00AFF4A
:1014900002AE304601F0B8FE0420C0F20010CDF8D4
:1014A000120040F28450C2F20000039004F14C009C
:1014B000029040F20110C0F20120CDF8160028463B
:1014C0003146ADF8107001F0AFFE2846012101F061
:1014D00095FE0920C0F21800012101F0A7FB0720AA
:1014E00001F084FA01AD284600F08EFA40F20110B6
:1014F000C0F2004001902046294600F063FA2046E1
:1015000003210122032300F0A7FA2046062102222C
:10151000032300F0A1FA204611210322032300F047
:101520009BFA204610210422072300F095FA01209F
:1015300000F0E0FB20460721012200F0BBFB204623
:10154000012100F079FA2046012100F07FFA2046BF
:1015500000F05EFA204600F061FA0028FAD1204639
:1015600000F060FA204600F063FA0028FAD107B0D4
:10157000F0BD0000FEE70000B0B5022001F04CFE17
:10158000012818BFB0BD0424C4F20204012525605F
:10159000FFF746FF082001F03FFE012808BF256045
:1015A000B0BD000010B540F2A540C2F200000078C6
:1015B000A0B15820C4F202004FF4803140F8541C0E
:1015C000016821F00101016005F044F940F210408A
:1015D000C4F201004FF40041016010BD58244FF4E3
:1015E0000030C4F2020401F017FE012810D14FF4BC
:1015F000803044F8540C206820F00100206005F091
:1016000029F940F21040C4F201004FF4004101609A
:101610004FF4002001F000FE012804BF4FF4803099
:1016200044F8540C10BD00007047000040F2847173
:10163000C2F200010A6840F214400132C4F2010013
:101640000A600168090458BF70474FF40041016007
:1016500003F098BEFEE7000043F20000C4F2000071
:1016600045F2555101604CF6CC41016003214160C7
:101670004FF47A6181604AF6AA2101607047000048
:10168000FEE7000070470000F0B581B044F20C4066
:10169000C4F20100016840F2000521F0010101607F
:1016A000C2F20005A97BA87C40F28C440129C2F259
:1016B00000040BD10130C1B20729A87422BF012058
:1016C000A874207300F001000BE000BF0138010690
:1016D000A87403D106200121A8742173012121EAF5
:1016E00000006873EFF3108072B6E07B10B9A87C3D
:1016F00000F0E6FB62B600F0AFFB606F40F6C4118D
:10170000884203D90120A872002003E0A87AB0FA29
:1017100080F040090021AA7C40F20857A177E176C9
:10172000296DC2F20007B4F84A30B4F84C6007EBF8
:1017300042025181F21840F2C463C2F2000301EB8D
:10174000520193F82F304A0804F11F062A65002B36
:1017500008BF04F11C06337889085A439309A1EBAA
:10176000921100286387A4F8441018BF01F0BAFD55
:10177000386842F20F7188429CBF0130386001B076
:10178000F0BD0000704700007047000041F200000B
:10179000C4F20200016841F001010160016889079B
:1017A00009D4016889075CBF01685FEA817102D4CE
:1017B00001688907F2D5416821F00301416000BF4B
:1017C000416811F00C0F0BD0416811F00C0F07D0DD
:1017D000416811F00C0F03D0416811F00C0FEFD1EC
:1017E00001684FF6FF72CFF6F262114001600021EE
:1017F000416041F61071C1624FF4801101634FF4F2
:101800001F0181604EF6085041F20001CEF2000047
:10181000C0F600010160704710B50B20C0F218003F
:10182000012101F003FA42F60044C4F2010441F23E
:101830008730E0620020A06246F66800A061682060
:10184000E06120460021012204F06CFF20460221C5
:10185000012204F067FF20460421012204F062FF08
:101860002046012104F08EFF606C322161F30700F5
:1018700060641124C0F214042046012101F0D6F95D
:10188000601C012101F0D2F940F20044C4F60004CA
:10189000204602210022022302F0C4F82046022141
:1018A0000022012302F0BEF84FF0904002210022F6
:1018B000802302F0B7F820460121022202F0D2F87C
:1018C00020460021022202F0CDF84FF0904007217F
:1018D000022202F0C7F84FF09040022100224FF49C
:1018E000806302F09FF84FF09040022100224FF4F5
:1018F000007302F097F84FF09040022100224FF45D
:10190000807302F08FF84FF090400A21022202F01B
:10191000A9F84FF090400921022202F0A3F84FF0FD
:10192000904008210222BDE8104002F09BB8000060
:1019300042F21000C4F200004FF6FE71016004F0A4
:1019400079BC000044F21000C4F201004FF6FE71B1
:1019500001604FF6FD7101607047000044F21040D5
:10196000C4F2010000210160FFF78EBE40F210407A
:10197000C4F200000168890744BF4FF6FD710160A1
:101980000168C9071CBF4FF6FE7101607047000077
:1019900070470000FEE700004EF60C50BFF34F8F7B
:1019A000CEF200000168042201F4E061C0F2FA52B4
:1019B00011430160BFF34F8F00BF00BF00BF00BFE6
:1019C000FAE700000A78436802F0010223F480730A
:1019D00043EA022242604A78836862F341038360EB
:1019E0008A78836802F0010223F4006343EAC2228A
:1019F0008260C978C26A013901F00F0122F47002D5
:101A000042EA0151C16270474FF080710160704736
:101A1000816841F008018160704700008068C0F370
:101A2000C0007047816841F0040181607047000088
:101A30008068C0F380007047826801F0010122F4E1
:101A4000807242EA0121816070470000826861F380
:101A5000000282607047000080B5112900F2BB804F
:101A6000DFE801F00A121C26303A444E58626C74CA
:101A70007E88929CA6B000BFD0F810C063F3020C21
:101A8000C0F810C0A7E000BFD0F810C003F0070EE8
:101A90002CF0380343EACE0303619CE0D0F810C079
:101AA00003F0070E2CF4E07343EA8E13036192E017
:101AB000D0F810C003F0070E2CF4606343EA4E2305
:101AC000036188E0D0F810C003F0070E2CF4E04367
:101AD00043EA0E3303617EE0D0F810C003F0070E36
:101AE0002CF4603343EACE33036174E0D0F810C0C5
:101AF00003F0070E2CF4E01343EA8E4303616AE01F
:101B0000D0F810C003F0070E2CF4600343EA4E53E4
:101B1000036160E0D0F810C003F0070E2CF0E06322
:101B200043EA0E63036156E0D0F810C003F0070EDD
:101B30002CF0605343EACE6303614CE0D0F80CC054
:101B400063F3020CC0F80CC045E000BFD0F80CC035
:101B500003F0070E2CF0380343EACE033AE000BF4F
:101B6000D0F80CC003F0070E2CF4E07343EA8E1398
:101B700030E000BFD0F80CC003F0070E2CF4606317
:101B800043EA4E2326E000BFD0F80CC003F0070E56
:101B90002CF4E04343EA0E331CE000BFD0F80CC045
:101BA00003F0070E2CF4603343EACE3312E000BF9B
:101BB000D0F80CC003F0070E2CF4E01343EA8E4378
:101BC00008E000BFD0F80CC003F0070E2CF460034F
:101BD00043EA4E53C360013A0F2A88BF80BDDFE855
:101BE00002F0090F151B21272D33393F454B515763
:101BF0005D6300BF426B61F30402426380BD00BFBE
:101C0000426B61F34912426380BD00BF426B61F3D6
:101C10008E22426380BD00BF426B61F3D3324263C8
:101C200080BD00BF426B61F31852426380BD00BFAC
:101C3000426B61F35D62426380BD00BF026B61F382
:101C40000402026380BD00BF026B61F349120263AC
:101C500080BD00BF026B61F38E22026380BD00BFB6
:101C6000026B61F3D332026380BD00BF026B61F38C
:101C70001852026380BD00BF026B61F35D620263B4
:101C800080BD00BFC26A61F30402C26280BD00BFB2
:101C9000C26A61F34912C26280BD00BFC26A61F3C9
:101CA0008E22C26280BD00BFC26A61F3D332C262BB
:101CB00080BD00008368072923F0007388BF03F10B
:101CC00000738360836802F0010261F35343836011
:101CD000816821F4801141EA02518160704700005F
:101CE000826801F0010122F4800242EA81518160A0
:101CF0007047000042F20841C4F201010A6800F096
:101D0000010022F4000242EAC0500860704700005F
:101D1000F0B581B02825C4F6000505F57674204697
:101D20000121002202230126022701F07BFE4FF051
:101D30009040012100224FF48063C5F800744FF4F5
:101D4000806701F06FFE20460121002201232F60F1
:101D500001F068FE4FF09040012100224FF4007323
:101D6000C5F800644FF4007401F05CFE4FF0904041
:101D70000121002280232C60802401F053FE4FF0CB
:101D80009040012100224FF480732C604FF4807446
:101D900001F048FE2C6001B0F0BD000070B540F2CB
:101DA000C465C2F20005287D40F20044C4F6000478
:101DB0000028204606D002210022022301F032FE34
:101DC00007E000BF012100220223022601F02AFEC3
:101DD000A6624FF09040022100224FF4806301F090
:101DE00021FE287D30B1204602210022012301F08E
:101DF00019FE07E02046012100220123012601F0FF
:101E000011FEA6624FF09040022100224FF40073B1
:101E100001F008FE287D38B14FF0904002210022E9
:101E2000802301F0FFFD0CE04FF0904001210022E3
:101E30008023802501F0F6FD4FF62840CFF6FF7095
:101E400025504FF09040022100224FF48073BDE8EE
:101E5000704001F0E7BD000040F20051C2F2000105
:101E60000A681009182840F21C00C4F2010004D8C6
:101E7000026822F0040202600A68B2F5167F03D9F4
:101E8000016841F00401016040F20D01C2F200015D
:101E90000A78B2FA82F252095205C0F8EC230978A6
:101EA0004905C0F8F0137047002818BF70471C2080
:101EB000C4F20100026861F3000202607047000092
:101EC0000138052888BF70472DE9F041DFE810F0A0
:101ED000060046008800CA000C014E012826C525D0
:101EE0004FF09040012100228023C4F60006C4F286
:101EF00000050127802401F095FD4FF0904001215D
:101F000000224FF4807334604FF4807401F08AFD36
:101F1000346006F57674204601210022012301F089
:101F200081FD4FF09040012100224FF40073C6F86C
:101F3000F0734FF4007701F075FD40F2C460376034
:101F4000C2F20000007D002800F0508120460221EE
:101F50000022022301F066FD10358EE12826C4F62A
:101F6000000606F5767440F2C508204601210022DD
:101F70000223C4F200080127022501F053FD4FF0AF
:101F80009040012100224FF48063C6F800544FF4C2
:101F9000806501F047FD20460121002201233560C4
:101FA00001F040FD4FF09040012100224FF40073FA
:101FB000C6F8F0734FF4007401F034FD40F2C460D1
:101FC0003460C2F20000007D002800F01B814FF059
:101FD000904002210022802301F024FD1BE100BF7C
:101FE0002826C4F6000606F57674C525204601218C
:101FF00000220123C4F20005012701F013FD4FF078
:102000009040012100224FF40073C6F800744FF491
:10201000007701F007FD20460121002202233760EE
:10202000022401F0FFFC4FF09040012100224FF408
:102030008063C6F8F0434FF4806401F0F3FC40F293
:10204000C4603460C2F20000007D002800F0E88027
:102050004FF0904002210022802301F0E3FC4FF476
:1020600080730CE12826C5254FF090400121002205
:102070008023C4F60006C4F200054FF00108802456
:1020800001F0D0FC4FF09040012100224FF480730A
:1020900034604FF4807401F0C5FC346006F576744A
:1020A0002046012100220223022701F0BBFC4FF051
:1020B0009040012100224FF48063C6F8F0734FF482
:1020C000806701F0AFFC40F2C4603760C2F20000EC
:1020D000007D002800F0B08020460221002201236C
:1020E00001F0A0FCB0E000BF2826C4F6000606F50B
:1020F0007674C5252046012100220223C4F2000582
:102100004FF00108022701F08DFC4FF090400121B3
:1021100000224FF48063C6F800744FF4806701F02A
:1021200081FC4FF0904001210022802337608027FE
:1021300001F078FC4FF09040012100224FF48073B1
:1021400046F8107C4FF4807701F06CFC40F2C460DC
:102150003760C2F20000007D002879D020460221BD
:102160000022012301F05EFC7AE000BF2826C4F6BD
:10217000000606F57674C5252046012100220123BC
:10218000C4F20005012701F04DFC4FF09040012101
:1021900000224FF40073C6F800744FF4007701F08A
:1021A00041FC4FF0904001210022802337608027BE
:1021B00001F038FC4FF09040012100224FF4807371
:1021C00046F8107C4FF4807701F02CFC40F2C4609C
:1021D0003760C2F20000007D002845D02046022171
:1021E0000022022301F01EFC47E000BF204601212F
:1021F00000220223022401F015FCC6F80044103529
:102200003BE000BF4FF0904001210022802380245A
:1022100001F008FC346008F120054FF480732EE0D3
:102220004FF09040012100228023802401F0FAFB2E
:1022300034604FF4807322E0204601210022012304
:1022400001F0F0FBC6F8008410354FF4007316E07F
:10225000204601210022012301F0E4FBC6F800849E
:1022600020354FF400730AE02046012100220223AA
:10227000022401F0D7FBC6F800444FF480634FF00E
:1022800090400221002201F0CDFB1C20C4F201008D
:102290000560BDE8F04170472DE9F04F89B040F28C
:1022A000C052C2F200021168D06F40F21048401ACA
:1022B000C2F20008A8F80C0083B240F27C40C2F2DF
:1022C000000007885809BB42A8F80A0040F2638161
:1022D00040F28007C2F200073F88BB4280F05B817A
:1022E000D2E90137D2E90365591A89B281424FF028
:1022F000000188BF01210891F11B89B28142516917
:102300004FF00003A1EB050188BF012389B20793B9
:102310008142D2E906314FF00007A1EB030189B2F7
:1023200088BF01278142D2E908310597A1EB03015B
:102330004FF0000789B288BF01278142D2E90A31F4
:102340000697A1EB03014FF0000789B288BF012770
:1023500081424FF00001049788BF012102F130054E
:1023600003913ACD0027591A89B281424FF00001FA
:1023700088BF01210291291B89B28142D2E9104113
:102380004FF00003A1EB040189B288BF0123814211
:10239000D2E912414FF00005A1EB040189B201938B
:1023A00088BF01258142D2E9144188BF0127091B5A
:1023B00089B28142D2E916414FF0000EA1EB04012F
:1023C00088BF4FF0010E1FFA81F9D2E918414FF092
:1023D000000C8145A1EB040488BF4FF0010CD2E949
:1023E0001A9AA4B28442AAEB0909D2E91C4AD2E99A
:1023F0001E2BAAEB040AABEB02024FF000041FFAFB
:1024000089FB88BF012483454FF000091FFA8AF138
:1024100088BF4FF0010981424FF0000A92B240F2AA
:10242000D24388BF4FF0010A8242C2F200034FF04C
:1024300000021A8088BF012283454FEAC40B88BF7F
:102440000BF1040B814240F2A34040F29C46C2F2E1
:102450000000C2F200060078317888BF0BF1020B51
:10246000084308980499C8F820000798C8F8301065
:10247000C8F824000598029BC8F8280008F150000D
:1024800080E81006D8F82000039C80EA0100D8F804
:10249000241080EA050081EA040181EA07014FEA7D
:1024A000810141EAC000D8F82810C8F8344081EA18
:1024B000030181EA0E0140EA410406980199C8F837
:1024C00044704746F86280EA0100C8F84050C8F8F6
:1024D0003830C8F848E0B04680EA0C050BEB02063D
:1024E000F963C7F84CC0FA650BD101F0A9F940B106
:1024F00038790130C1B26529387124BF012088F8CC
:10250000000098F80000002804F0FE00284418BFDE
:1025100086F00F06864239D107F1200C9CE80F1097
:10252000490241EA802040EA0220D7E90D6540EAED
:10253000C31040EA8C10FC6B40EA461007F14006DD
:1025400040EA05104ECE40EAC40040EA810040EA6D
:10255000420040EA0301FA8940F2D2430020C2F26D
:1025600000031880501C012EF88105D140F29A40DA
:10257000C2F2000001220270B87978B1022821D09D
:10258000012823D13982022004E000BF788A01307B
:1025900078820020B87109B0BDE8F08F302921DBC6
:1025A0007878F8B140F2CC40C2F20000018040F2ED
:1025B000C060C2F2000000210170B97009B0BDE82E
:1025C000F08F00BFF9710320E4E700BF032808BFC4
:1025D0002529E0D1F879398A40F2C462C2F20002BA
:1025E0005054D6E7481E2E280CD840F2CC40C2F2F8
:1025F00000000022028040F2C062C2F20002C8B2B3
:10260000117018E031B140F2C060C2F200000078F1
:1026100011E000BF387840F2CC41012804BF00200F
:102620007870C2F200010020088040F2C061C2F25E
:1026300000010870B8700028ADD040F29F41C2F28E
:10264000000109780029A6D140F2A341C2F200019D
:10265000097800299FD0F97888421EBFF8700021C0
:10266000B970052806D3B9780131CAB2062AB97003
:10267000FFF491AF411E00252329BD7000F2B58003
:10268000DFE801F0121A222A323A42505E66B36E37
:10269000828EB3B3B3B3B396A4B3B3B3B3B3B3B38C
:1026A000B3B3B3B3B3B3B3B040F29741C2F20001D6
:1026B0000120087099E000BF40F29741C2F200018A
:1026C0000220087091E000BF40F29741C2F2000181
:1026D0000320087089E000BF40F29741C2F2000178
:1026E0000420087081E000BF40F29741C2F200016F
:1026F0000520087079E000BF40F2AD40C2F2000052
:1027000001210170062070E040F2C460C2F20000B6
:102710000021417440F20E00C2F20000012101705C
:10272000072062E040F2C460C2F20000012141745F
:1027300040F20E00C2F2000000210170082054E0B7
:1027400040F2C460C2F200000021817409204CE014
:1027500040F2C460C2F20000012181740A2044E00A
:1027600002F0E2FE40F2C460C2F20000407C40F29F
:102770009742411C40F2C060C2F20000C2F2000267
:102780000078117031E000BF397801204FF46062A9
:10279000787101293A8108BF78700D2025E000BFCB
:1027A0000020787140F6FF6038810E201DE000BFE8
:1027B00040F2C460C2F20000407C40F20E01C0F161
:1027C0000100C2F20001087014200EE040F2C46063
:1027D000C2F20000407C40F20E01C2F2000108701B
:1027E000152002E00120B871242040F61C01C2F23D
:1027F0000001087040F2C060C2F20000057009B02C
:10280000BDE8F08F70B582B040F2C055C2F200054D
:10281000D5E9000140F27652081AA0F2213140F2C7
:1028200070449142C2F200043CD8627840F2D24136
:10283000C2F2000100230B80D2B3E178002951D00D
:10284000217940F2E14290420BD840F21A02C2F2E2
:10285000000213880131C3EBC3031844C00821717F
:102860001080C8B24C2870D340F21A00C2F20000A7
:1028700001880025193101804FF61250CFF6FF7004
:1028800010FA81F000EBD07040F2C4614008C2F24F
:10289000000181F82000657002F046FE257102F00B
:1028A00045FC52E040F2C840C2F2000051E000BFD7
:1028B00040F2C461C2F20001897C39B340F21E01CA
:1028C000C2F200010A88904234D940F21C01C2F2DF
:1028D00000010B88511C4FF4FA661A4640F2E933A6
:1028E0002FE000BFA17840F21C0600290CBF208118
:1028F00020890131C2F20006A170318880B200F057
:102900007FFF332842D30020607060E040F21A015C
:1029100040F21C02C2F20001C2F2000209881288D1
:1029200040F2FF762F23009602F0B0FA3128B8BFAC
:10293000002009E040F21A01C2F2000109884FF4B8
:102940007A76009602F0A2FA206140F2D240C2F2FA
:10295000000040F2CC41C2F2000140F2D8062269E8
:102960000B88C2F200063668D51AB5424FF0000552
:10297000058003DD9A190A8002B070BD981AB04232
:10298000C8BF9A1B0A8002B070BD00BF3088D5E96D
:102990000012C0EBC000511A0844A178C0083329C6
:1029A000308014D34FF62A111938CFF6FF713080DA
:1029B00011FA80F000EBD07040F2C4614008C2F21E
:1029C000000181F821000120E07002F0E3FBE078D3
:1029D000318800282181B8D0D5E90001081A217971
:1029E00040F2E14290427FF630AF3AE741F2040113
:1029F000C4F202010A6860F38F320A600A68800834
:102A000060F31C720A60704741F20401C4F20201D3
:102A10000A6800F00F0022F0F00242EA001008609D
:102A20007047000041F20401C4F202010A6800F09C
:102A3000070022F4E06242EA0020086070470000CC
:102A400041F20401C4F202010A6800F0070022F416
:102A5000605242EAC02008607047000041F2540111
:102A6000C4F202010A68012822F0300208BF3032A5
:102A70000A607047042888BF7047DFE800F0030D44
:102A80001B29330041F20000C4F20200026861F326
:102A900000020260704700BF41F20000C4F2020071
:102AA000026801F0010122F4803242EA0141016032
:102AB000704700BF41F20000C4F20200026801F05A
:102AC000010122F0807242EA01610160704700BF9B
:102AD00041F20000C4F20200026A61F300020262E5
:102AE000704700BF41F20000C4F20200426A61F385
:102AF0000002426270470000F0B541F20401C4F2E6
:102B000002010A68C2F3810341F20022022BC0F2E3
:102B10007A020DD0002B48D10B6D9B0545D5CB6AB1
:102B20009B0144BF46F60042C0F2DC223DE000BFFC
:102B30000B688C6A1F0C002C1ED40C680B68C4F345
:102B40008344C3F341731D016E1C0F2C354618BF1F
:102B50000225002B18BF3546FB0705EB040305D003
:102B60000F68BF0302D45A431FE000BF40F60012B3
:102B7000C0F23D025A4318E08B6A8C6AC3F3031E0D
:102B80008B6A40F6001CC0F23D0CC4F30824FD071C
:102B900003F0070303D00D68AD0358BF94460CFB48
:102BA00004F20EFA03F3B2FBF3F202600B6812A711
:102BB000C3F30313FB5C46F60847DA4042600B6838
:102BC000C0F60007C3F30223FB5C22FA03F3C360E1
:102BD0000B68C3F3C223FB5C0427DA4082600B68F6
:102BE000096807EA9363C1F38131194406A3595C6C
:102BF000B2FBF1F10161F0BD000000000000000037
:102C0000010203040607080902040608020C081062
:102C100041F20002010CC4F20202895800F01F00C8
:102C200021FA00F000F001007047000041F20002BC
:102C300000F01F034FF0010CC4F2020201290CFA4C
:102C400003F14FEA1040835814BF23EA01011943EE
:102C50008150704741F2000200F01F034FF0010C59
:102C6000C4F2020201290CFA03F14FEA1040835822
:102C700014BF23EA010119438150704741F2040255
:102C8000C4F20202136868B143F48033136013681E
:102C9000012807BF23F400334FF0007043F40033E2
:102CA000002002E023F4803300201360136861F3F6
:102CB000954313601368090961F35E731360916AA9
:102CC00021F0E061084390627047000041F200008B
:102CD000C4F20200016841F0010101600168890746
:102CE00009D4016889075CBF01685FEA817102D479
:102CF00001688907F2D5416821F00301416000BFF6
:102D0000416811F00C0F0BD0416811F00C0F07D087
:102D1000416811F00C0F03D0416811F00C0FEFD196
:102D200001684FF6FF72CFF6F26211400160002198
:102D3000416041F61071C1624FF4801101634FF49C
:102D40001F0181607047000041F20401C4F20201DA
:102D50000A6860F301020A607047000041F2040053
:102D6000C4F202000068C0F38100704744F62401F9
:102D7000C4F201010A6880B20BE000BF0B689B1A25
:102D80009BB2984298BF70470B689B1A9BB29842BF
:102D900009D90B689B1A9BB2984204D90B689B1AFD
:102DA0009BB29842EAD87047002808BF704780B5A8
:102DB00044F62401C4F2010110F0030C864647D00A
:102DC0000A684FF6F87E00BF0B689B1A9BB2DB08BF
:102DD0007C2B12D80B689B1A9BB2DB087C2B0CD87F
:102DE0000B689B1A9BB2DB087C2B06D80B689B1ADE
:102DF00003EA0E03B3F57A7FE6D3BCF1010F05D1E8
:102E0000A0F1010E042825D349E000BF0A684FF65F
:102E1000F87E00BF0B689B1A9BB2DB087C2B12D894
:102E20000B689B1A9BB2DB087C2B0CD80B689B1A97
:102E30009BB2DB087C2B06D80B689B1A03EA0E03B7
:102E4000B3F57A7FE6D3BCF1020F07D1A0F1020EF1
:102E5000042824D2BDE88040704700BF0A684FF6BE
:102E6000F87C00BF0B689B1A9BB2DB087C2B12D846
:102E70000B689B1A9BB2DB087C2B0CD80B689B1A47
:102E80009BB2DB087C2B06D80B689B1A03EA0C0369
:102E9000B3F57A7FE6D3A0F1030E0428DAD34FF618
:102EA000F87002E0BEF1040ED4D00B680A68D21AA2
:102EB00092B2D2087C2A11D80A68D21A92B2D208E9
:102EC0007C2A0BD80A68D21A92B2D2087C2A05D87A
:102ED0000A68D21A0240B2F57A7FE7D30B6800BFC6
:102EE0000A68D21A92B2D2087C2A11D80A68D21A79
:102EF00092B2D2087C2A0BD80A68D21A92B2D208AF
:102F00007C2A05D80A68D21A0240B2F57A7FE7D344
:102F10000B6800BF0A68D21A92B2D2087C2A11D874
:102F20000A68D21A92B2D2087C2A0BD80A68D21A3E
:102F300092B2D2087C2A05D80A68D21A0240B2F5A9
:102F40007A7FE7D30B6800BF0A68D21A92B2D20820
:102F50007C2AA7D80A68D21A92B2D2087C2AA1D8B1
:102F60000A68D21A92B2D2087C2A9BD80A68D21A6E
:102F70000240B2F57A7FE7D394E700002DE9F043F1
:102F800040F2C05CC2F2000C40F27C0EDCF8004063
:102F9000C2F2000E44F6206200230021AEF80220A7
:102FA00003E000BF2833782B7AD00CEB0300456890
:102FB0002C1B1BD18468651B21D1C5682C1B27D114
:102FC0000469651B2DD145692C1B33D18469651BB0
:102FD00039D1C5692C1B3FD1046A651B45D1456AAF
:102FE0002C1B4BD1846A601BDCD051E021449442FD
:102FF0003CBFA2B2AEF802408468651BDDD0294414
:1030000095423CBFAAB2AEF80250C5682C1BD7D07F
:10301000214494423CBFA2B2AEF802400469651B51
:10302000D1D0294495423CBFAAB2AEF802504569BE
:103030002C1BCBD0214494423CBFA2B2AEF802403C
:103040008469651BC5D0294495423CBFAAB2AEF83D
:103050000250C5692C1BBFD0214494423CBFA2B290
:10306000AEF80240046A651BB9D0294495423CBFC2
:10307000AAB2AEF80250456A2C1BB3D02144944248
:103080003CBFA2B2AEF80240846A601B3FF48AAF34
:10309000014490423CBF82B2AEF8020082E700BF1A
:1030A00040F2A548C2F2000898F8000040F2704CC7
:1030B0004C09C2F2000C0128CCF8184032D1541E41
:1030C000022C0FD8CC090E2C0CD840F2D504C2F239
:1030D00000040025257001248CF8064088F8004083
:1030E0000E2411E0141F042C1CD8CC09182C19D85C
:1030F00040F2D5050124C2F2000588F800402C708A
:1031000003248CF80640072440F2D405C2F20005DF
:103110002C7020248EF8004040F2A444C2F2000437
:103120000125257040F2A649C2F2000999F8006015
:10313000A2F1C905012E14D144F65657BD4210D84C
:1031400040F2D503C2F2000377241C7002238EF8EC
:10315000003040F2A4430127C2F2000389F8007056
:103160001F70304302D0BDE8F08300BF501E02281C
:103170004FEAD11098BF0E2816D9111F042998BF05
:1031800018281FD944F65650854288BFBDE8F08301
:10319000012089F8000040F2D500C2F2000077213A
:1031A0000170022020E000BF40F2D500C2F2000012
:1031B0000021017001208CF8060088F800000E2024
:1031C0000CE000BF40F2D5010120C2F2000188F8F6
:1031D0000000087003208CF80600072040F2D4019C
:1031E000C2F20001087020208EF8000040F2A440D6
:1031F000C2F2000001210170BDE8F083026861F3B2
:10320000000202607047000000210182C0E9001145
:10321000C0E90211704700000021C4F202010968F0
:10322000084018BF0120704702684BF6EF731A4040
:1032300002600A8903681A4302604A7C036802F04C
:10324000030223F4405343EA02320260CA7B03685C
:1032500002F0030223F4406343EA822202608A7B85
:10326000036802F0030223F4407343EA022202607F
:103270004A7B036802F0010223F0800343EAC21292
:1032800002600A7B036862F3861303600A7C0368AA
:1032900062F3451303604A8942600A6882604968A4
:1032A000C1607047016800F0FC024CF6CD43083A5B
:1032B000CCF6CC43A2FB032321F0010101600021E5
:1032C0000422016041608160C1606FF00300C4F2BC
:1032D000020200EA93000F21136801FA00F018437C
:1032E0001060704740F20040C4F20100016841F4F0
:1032F000001101607047000010B542F60044C4F2AE
:10330000010420460021012203F0C0F920460221D9
:10331000012203F0BBF920460421012203F0B6F993
:1033200020460121012203F0B1F9204603210122A8
:1033300003F0ACF920460521012203F0A7F920682B
:1033400040F001002060606C40F4004060646069FF
:1033500040F00100606144F20004C4F20104D4F8BA
:10336000000440F00100C4F8000444F20C40C4F230
:103370000100816841F001018160016821F00101D3
:103380000160D0F8F41341F00101C0F8F41341F2E8
:103390000000C4F20000016841F0010101604169D0
:1033A00041F00101416142F20000C4F200000168F5
:1033B00041F001010160416941F001014161C168D1
:1033C00041F00101C160FEF743F8204600210122CF
:1033D00003F05CF92068202140F0010020604EF2EB
:1033E0000740CEF2000001704EF20010CEF2000055
:1033F0008021016040F20040C4F20100016841F404
:103400000041016010BD000042F20C01C4F2020153
:103410000860704742F21000C4F20200016841F0F7
:10342000800101607047000042F20C01C4F2020109
:103430004A6842F002024A608860486840F04000F2
:1034400048600868C0070DD10868400746D408687E
:10345000C0064FF0020058BF03204A6822F0020263
:103460004A6070474FF080420868C00700F08B80C8
:103470000868C00738D00868C0073BD00868C00794
:103480003ED00868C00741D00868C00744D008682B
:10349000C00747D00868C0074AD00868C0074DD0A9
:1034A0000868C00750D00868C00753D00868C00734
:1034B00056D00868C00759D00868C0075CD00868B3
:1034C000C0075FD00868C00768D0103ACCD104208C
:1034D0004A6822F002024A60704700BF01204A6831
:1034E00022F002024A607047013A086840074DD551
:1034F00058E000BF023A0868400747D552E000BFD5
:10350000033A0868400741D54CE000BF043A086818
:1035100040073BD546E000BF053A0868400735D56F
:1035200040E000BF063A086840072FD53AE000BFE8
:10353000073A0868400729D534E000BF083A086810
:10354000400723D52EE000BF093A086840071DD583
:1035500028E000BF0A3A0868400717D522E000BFFC
:103560000B3A0868400711D51CE000BF0C3A086808
:1035700040070BD516E000BF0D3A0868400705D597
:1035800010E000BF0E3A086840070BD40868C00678
:103590004FF0020058BF032005E000BF0F3A086853
:1035A0004007F3D50120012A08BF04204A6822F011
:1035B00002024A607047000042F2040040F2231108
:1035C000C4F20200C4F26751016048F6AB11CCF6B8
:1035D000EF5101607047000042F20C02C4F2020297
:1035E000536843F00103536001601068C0070DD1B8
:1035F0001068400746D41068C0064FF0020058BF5C
:103600000320516821F00101516070474FF480118F
:103610001068C00700F08B801068C00738D01068B1
:10362000C0073BD01068C0073ED01068C00741D02B
:103630001068C00744D01068C00747D01068C007A2
:103640004AD01068C0074DD01068C00750D010682D
:10365000C00753D01068C00756D01068C00759D0B3
:103660001068C0075CD01068C0075FD01068C00742
:1036700068D01039CCD10420516821F0010151608B
:10368000704700BF0120516821F00101516070476F
:103690000139106840074DD558E000BF0239106865
:1036A000400747D552E000BF03391068400741D5B5
:1036B0004CE000BF0439106840073BD546E000BF2E
:1036C00005391068400735D540E000BF063910685D
:1036D00040072FD53AE000BF07391068400729D5C9
:1036E00034E000BF08391068400723D52EE000BF42
:1036F0000939106840071DD528E000BF0A39106855
:10370000400717D522E000BF0B391068400711D5DC
:103710001CE000BF0C39106840070BD516E000BF55
:103720000D391068400705D510E000BF0E3910684C
:1037300040070BD41068C0064FF0020058BF0320AA
:1037400005E000BF0F3910684007F3D501200129BB
:1037500008BF0420516821F001015160704700004A
:10376000F0B581B02825C4F6000505F5767420462D
:103770000121002202230126022700F053F94FF015
:103780009040012100224FF48063C5F8F0734FF49C
:10379000806700F047F920460121002201232F60B5
:1037A00000F040F94FF09040012100224FF40073E7
:1037B000C5F8F0634FF4007400F034F94FF0904016
:1037C0000121002280232C60802400F02BF94FF08F
:1037D0009040012100224FF4807345F8104C4FF4C3
:1037E000807400F01FF92C6001B0F0BD42F6144067
:1037F000C4F20100016841F001010160704700005E
:10380000401A48BF404270471C20C4F201000068C3
:10381000C0F380707047000048F2E80148434FF45D
:103820004851A1EB10304FF2CF31CCF63C7150FB38
:1038300001F0C10801EBD070193000B270470000F0
:103840001020C4F60000006800F00400704700007B
:1038500031B1012908D100230022C90774D1A0E0A9
:103860000022D0B2704700BF70B501F0FE02C2F175
:10387000000C00226FF0010E072300BF00EB0E04C6
:10388000A578E4786A4055B2D2B25600002D48BF00
:1038900083EA420683EA4602350658BF720083EA8D
:1038A0004205160658BF550083EA45022E0658BF4A
:1038B0006A0083EA4205160658BF550083EA4502AE
:1038C0002E0658BF6A0083EA4205160658BF550007
:1038D00083EA45022E0658BF6A00624054B2D2B253
:1038E0005500002C48BF83EA420583EA45022C06B6
:1038F00058BF6A0083EA4204150658BF540083EAA1
:103900004402250658BF620083EA4204150658BFE8
:10391000540083EA4402250658BF620083EA420449
:10392000150658BF540083EA44020EF1020E250624
:1039300058BF62000CEB0E0402349FD10EF102035B
:10394000BDE87040C9072CD0C05C0723504041B28D
:10395000C0B24200002948BF83EA400283EA420025
:10396000110658BF500083EA4001020658BF4100CB
:1039700083EA41000A0658BF480083EA4001020674
:1039800058BF410083EA41000A0658BF480083EA55
:103990004001020658BF410083EA4102080658BFB1
:1039A0004A00D0B2704700000A88002A08BF70475A
:1039B000F0B500234FF0030C4FF0010E002405E09A
:1039C000520804F1010403F1020327D0D507F7D010
:1039D00005680CFA03F6B54305608D7907689D40CC
:1039E0003D43056045680EFA04F7BD4345600D7917
:1039F0004768A5403D4345608568B5438560CD79FE
:103A000087689D403D438560C568B543C5604D7975
:103A1000C6689D403543C560D2E700BFBDE8F040B1
:103A200070470000D0F800C05B4303EB43022CEA70
:103A300002025943114301607047000080B5D0F87D
:103A400000C05B4303EB430E2CEA0E0C594341EAE2
:103A50000C010160C1685A4321EA0E011143C160A3
:103A600080BD000010B51C2303EA810E24234FF013
:103A70000F0C082938BF2023C4580CFA0EF124EA91
:103A80000101C150C15802FA0EF21143C15010BDDC
:103A900062B670472DE9F04F81B002F0AFFA4FF4F3
:103AA000A0100121FFF7C2F84EF20B47CEF200073B
:103AB00010204EF200163870CEF200064FF400606F
:103AC0003060FDF7A9FE0424C0F21C042046012149
:103AD000FFF7ACF841F22800C4F200004FF6FF7186
:103AE0004FF03B0B4160C0F800B0201D0121FFF7F3
:103AF0009DF842F22800C4F2000032214FF077090D
:103B00004160C0F80090302038724FF4002040F23D
:103B1000110A3060C0F2140A50460121FFF786F8FE
:103B20004FF4C0100121FFF781F84FF090400321BE
:103B3000002202234FF00008FFF774FF4FF090407F
:103B4000032100222023FFF76DFF87F801804FF447
:103B50008050306000200121FEF7A6F91025C0F248
:103B60001805A81C0121FFF761F844F60004C4F20F
:103B700001044FF6FF70E062C4F82890206801212C
:103B800040F080002060681CFFF750F84FF62C4092
:103B9000CFF6FF704FF4FA71215044F20004C4F2E2
:103BA0000104C4F828B487F80A804FF4001030608C
:103BB00050460121FFF73AF828460121FFF736F871
:103BC0004FF09040022100220423FFF72BFF4FF417
:103BD000A0100121FFF72AF85820C4F2020040F695
:103BE0008A110160102038704FF4006131604FF687
:103BF000FF71E162A062206840F0800020602068D0
:103C000040F00100206001B0BDE8F04F02F0A4BA1E
:103C1000B0B540F20004C2F20004207B50B1002590
:103C2000FFF7F2FD617B884208BFB0BD207B013504
:103C30008542F5D3EFF3108072B601F04FF940F2F0
:103C40008C40C2F20000B0F84C10A0F84A1041F2CB
:103C50002401C4F200010A68A0F84C2000220A6086
:103C600044F20C41C4F201018A61B0F84400013011
:103C700008624A60086840F00100086062B6B0BDA2
:103C80002DE9F04381B040F20005C2F2000540F298
:103C9000C464E96CC2F200042046C02201F0CAFBF1
:103CA000607802280CD840F2A010C0F60020C4F8BA
:103CB00005006420A4F80900E0720020E060207490
:103CC000E07D40F28C482A28C2F2000812D8011F79
:103CD000C9B205290ED9032811D8C00088F81C00E4
:103CE000207EA0F10801882914D941F28730288666
:103CF0001DE000BF102188F81C100328EDD90A38F8
:103D0000C1B2202998BF88F81C00207EA0F10801CC
:103D10008829EAD84AF6CC21C0F21001484348F27B
:103D2000F021000CC0F21E01B1FBF0F0688642F6F3
:103D30004449C4F2010949F8180CA079617E431E78
:103D400000EB8000322B4FF00003A27E38BF43000F
:103D5000A1F132000026AB85652828BF31465818EE
:103D6000288503F5C870688502EB8200142101EBF9
:103D7000C000A882022002F037F9607800283FD006
:103D8000A07F0B2888BF052002F02EF994F82000B0
:103D900040F2EE2794F8211007EB400094F822201F
:103DA000688340F2D66000EB4100A88302F25E50C7
:103DB000E88394F8250094F8281094F82330FA301A
:103DC0002884A1F11A006B7110F1160F84F8276096
:103DD0009CBF052084F8280094F829000B3810F1C6
:103DE0000B0F9CBF0A2084F8290094F82A00A0F148
:103DF0000A01C9B2F62905D80A2084F82A001EE073
:103E0000A88A96E000EB80006FF03701A1EB40003C
:103E1000298DAA8D51FA80F1298552FA80F16A8F95
:103E2000A98552FA80F16A8D698752FA80F128716A
:103E30006985D9F80010C0B20843C9F8000094F8A9
:103E40002B0040F284077330C0B2B8289CBFFF201B
:103E500084F82B0094F82C00C2F200070138622885
:103E60009CBF012088F80600607AA17AE27A94F873
:103E70002D3040005200C7E90101A3F10B0010F101
:103E80000B0FFA609CBF052084F82D0094F82E10CB
:103E9000092909D8042910D808F11A00DFE801F02F
:103EA00004580B0D5C0000BF0020A8F8190040F278
:103EB0001140C2F20000012101706079092807D881
:103EC0000A2188F81D1028706870A87015E000BFDE
:103ED00049F69A11C1F69911A0FB0110012188F849
:103EE0001D102978884238BF28706978884238BF09
:103EF0006870A978884238BFA870A88A20238108F2
:103F00004A299CBF0021A97145F62941C0F28F21A1
:103F1000A0FB0112E17EB3FBF1F145F25653C1F271
:103F20005553A0FB0337B2FBF1F2B7FBF1F1EA8680
:103F300029874FF4FA774FF4967140F6B8324FF470
:103F40007A73009700F0A2FFA88401B0BDE8F08367
:103F5000012088F81900AAE740F21040C2F20000E0
:103F60000121017040F21140C2F2000000210170F5
:103F700008F119009FE7000082B0FFF789FD4FF4B8
:103F80007E6000684EF2DA31C5F6251140F2000677
:103F90008842C2F200061CD140F6E470006846F286
:103FA000D931C4F6B861884213D140F6EC7001787B
:103FB00047F600401F29C0F6000009D02B2905D084
:103FC000352906D100F5F84002E000BF00F5BE300B
:103FD000F064FFF75FFDFFF78FF9FFF751FE40F246
:103FE000C460C2F20000C07802280DD140F2C46063
:103FF000C2F200000079132806D140F2C460C2F278
:104000000000407802280DD840F2C46041F202312D
:10401000C2F20000A0F803100321F26C4170C0212D
:1040200001F08EFA40F2C461C2F20001487C097DC1
:10403000013818BF0120B073708E308629B940F264
:10404000C4610020C2F20001C87440F2C460C2F230
:10405000000090F82600C0B14FF47A7040F2C462BC
:1040600070870120C2F20002B18DC2F81200B07157
:104070000020907501F13200F18DB08501F1320020
:10408000318DF08501F13200308543F2000BC4F22E
:10409000000B01F02FF940F28C4AC2F2000A4FF0F7
:1040A0000009AAF83C90FDF7D7FA4AF6AA20CBF807
:1040B000000001F0F1F99AF8000000281CBF01206F
:1040C0008AF8050001F076FF40F20855C2F20005BB
:1040D00032E000BF0220FDF7F3FE40F2C467C2F2F7
:1040E0000007387B318E41F26F244843C0F28304CD
:1040F000A0FB0402900800EB80004FF0320C42F667
:1041000034430CEB4000C4F201031860387B484391
:10411000A0FB0402900800EB80000CEB400058600C
:10412000387B4843A0FB0401880800EB80000CEBBF
:1041300040009860AAF85A90A889E9892A8A6B8A6F
:104140000844AC8A1044EF8A1844204438440430B0
:104150004008296868600320052938BF06203074AC
:1041600070744AF6AA20CBF8000040F2C460C2F294
:104170000000417D01290DD1778E306D7B086021D3
:10418000C822009700F082FE40F2C461C2F2000132
:10419000497D3086022916D1DAF87400A0F1650154
:1041A000942903D80D2148430CE000BF411E632928
:1041B00002D240F2145005E0FA3810F1FA0F02D89A
:1041C00040F6B2403086BAF8460042F21171884299
:1041D00009D39AF81710002940F01E8549F641418D
:1041E000884280F01985BAF82E0044F62161884291
:1041F00047D3BAF8300046F2B7020104CBF20B62A3
:1042000051FB02F101EB00410A1202EBD17240F2C4
:104210001541C2F20001DAF86C3009781A4403291A
:10422000CAF86C200AD0022918D0012927D19AF89F
:104230002000022100F5007017E000BFBAF82C0042
:1042400044F2AF714143A0EB1140400800EB114034
:104250000009042161F31F20012106E0C0B22921D9
:104260004843C00A00F5C060032140F21842C2F280
:104270000002108040F21540C2F200000170AAF85E
:104280002E90BAF836102868C8294FF0000238BFBF
:10429000012264284FF0000388BF0123B0F57A7F24
:1042A00006D829B11A4018BF8AF8129002E000BF60
:1042B0008AF8129040F2C462C2F20002D27C1AB1B3
:1042C0009F2998BF8AF812909AF8082032B10909FC
:1042D000182998BF8AF8129005E000BF95298CBF75
:1042E0000A216421F171696845F25652C5F25552AE
:1042F00051FB02F101EBD1710B28CAF8741038D3CD
:104300009AF80C00A8B3A868FFF77AFADAF87410E4
:104310000A097C2A2AD84A08904227D940F2C46068
:10432000C2F20000807CBAF83E20B0FA80F040096A
:104330002F2A4FF0000288BF012210429AF807008E
:10434000C5F8009000F101008AF8070006D1306D31
:10435000B0F57A7F88BF8AF8139001E08AF813904D
:10436000308D01224008B272AAF832008AF80C900F
:10437000A9609AF81000316D002818BF0120322979
:104380004FF0000188BF01214EF20B4208404FF070
:104390001001CEF200021CBF00211020117090729B
:1043A00050709AF80E0088B19AF82000BAF82C10D4
:1043B000BAF83020BAF86E30BAF85A70009700F0A8
:1043C00059FC0AF10E080A2008E000BF9AF8210003
:1043D00080B100F03BFC0AF12108312001F080F9A6
:1043E00040F2085540F20006C2F20005C2F2000693
:1043F00088F800909AF80D00012840F0C980FDF778
:104400000FF80BF574400121D946FDF769FCBAF8A5
:104410005C00FFF701FABAF8601040F6E44B112295
:104420009AF811E001FB0BF1C1F20102A1FB0212AB
:1044300005EB4E07F18CDAF878303C8B120ABAF8AB
:104440004850514348F21F521B1BC5F2EB122B443C
:10445000A1FB021CA3FB0246C6F30F1448F20B118A
:1044600004FB0BF2C1F2A601A2FB0121BAF82C2039
:10447000AAF85E008AF82000C2EBC2000EF1010229
:1044800000EB5C10CAF87830D3B2312B4FEAD0037E
:104490003D83AAF82C3088BF00228AF81120320907
:1044A00040F2C465AAF838204A09C2F20005120495
:1044B00095F824204FF00007CAF8704058BF4F0904
:1044C000022AAAF8307017D040F2085540F20006D0
:1044D000012ACB464FF00009C2F20005C2F20006E5
:1044E00037D19AF80900318C9AB2484390421BD9CF
:1044F000BAF82A0001302AE040F2C461C2F2000199
:10450000097AC0F3CF00884212D2BAF82A0040F2EA
:10451000085540F200060130CB464FF00009C2F2C8
:104520000005C2F2000612E09AF8030088B90DE017
:104530009AF8030040F2085540F20006CB464FF0CF
:104540000009C2F20005C2F2000610B90020AAF864
:104550002A009AF814004DF65413BAF82A1042F2C1
:104560001072CFF6FF7310FB032088420EDA012091
:104570008AF80300AAF83E90FDF7CAFB00F0AEFCF3
:104580008AF81390AAF83C908AF817908AF80D9050
:104590009AF814008AF81590002841D0BAF83E0025
:1045A00031285DD39AF81710002959D0882800F2D5
:1045B00085809AF80200A8B144F20C41C4F20101CE
:1045C000086820F00100086000F088FC42F63440E2
:1045D000C4F20100C0E90099C0F80890FDF7DEFBC5
:1045E0008AF80290B37BBAF84E00BAF85010BAF8C5
:1045F0005220002B00F08681013803B20139002BD4
:104600000BB2A2F1010248BF40F26710002B13B2B7
:1046100048BF40F26711002B48BF40F2671284E1A7
:10462000686842F2C072C0F209029AF8131092FB55
:10463000F0F04843AAF85A0080B24CF6CD41484306
:10464000B179C00C0029AAF8620059D0F18E328FDE
:10465000738FB78F009700F019FC014652E000BF3E
:1046600040F2C460C2F20000007F012102288AF8F3
:1046700002103FF42FAD012840F0DC8040F2C4600E
:10468000C2F2000090F82900318EC822504344F64F
:10469000D35300FB01F2C1F26203A2FB0323AAF889
:1046A0002200A1EBD31081B26329AAF8580000F2CE
:1046B0007382FFF755F8AAF85A903DE5B37BBAF834
:1046C0004E00BAF85010BAF85220002B4FF00103F8
:1046D0008AF8023000F0AA81013803B20139002BB8
:1046E0000BB2A2F1010248BF40F26710002B13B2D7
:1046F00048BF40F26711002B48BF40F26712A8E1A3
:104700004FF4FA6140F2C462C2F200029AF820004B
:1047100092F82B20B186904209D9B38FA2F10A01F9
:104720000A325B080127009700F0B0FBB0862868CA
:10473000632805D8316DB1F5FA7F01D90C200AE064
:10474000DAF8740064214FF4FA7203230C270097FF
:1047500000F09CFB316D322940F2C461C2F20001CD
:1047600038BF022091F82F1041F22402C4F2000257
:10477000307379B1BAF8420064214FF4FA620D2324
:104780001727009700F082FB41F22402C4F20002D6
:104790008AF81F0010684AF6C9718842FFF4CCAC51
:1047A0009AF8130001287FF4C7AC9AF81200013080
:1047B0008AF8120000F092FBBAF83E0041F224039E
:1047C0002F284FF00100B0729EBF8AF8139041F27B
:1047D00088303065C5F80090C4F200031868AAF864
:1047E0004C00C3F80090316D9AF81C2001EB410198
:1047F00011FA80F08108316551438A09AAF83A20FC
:104800002A68C008A0EB9110052AAAF844001FD21C
:104810001868B17BB07C01292AD10130C1B20729C7
:10482000B07422BF0120B0748AF80C0000F00100BF
:104830002AE000BF42F63440C4F20100C0E900990A
:10484000C0F80890FDF764FAAAF85A9074E400BF23
:1048500080B200BF19688142DBD219688142D8D288
:1048600019688142D5D219688142F3D3D1E700BFDC
:1048700001380106B07404D106200121B0748AF811
:104880000C10012121EA00007073EFF3108072B662
:104890009AF80F0010B9B07CFDF712FB62B6FDF775
:1048A000DBFADAF8740040F6C511884224BF012013
:1048B000B072B17C306D40F2C46305EB4101C2F2CD
:1048C0000003488129685A7F93F8263001311A4342
:1048D0008AF81B908AF81E908AF81690296007D0F3
:1048E0001429FFF429ACB0F5FA6F05D9FFF724BC01
:1048F00000097C283FF620AC86F80A90FEF7F2FC0F
:10490000FFF71ABC013003B20131B3F5B47F0BB22B
:1049100002F10102A8BF0020B3F5B47F13B2A8BF13
:104920000021B3F5B47FA8BF002240F2DC07AAF84B
:104930004E0000B2C2F20007AAF8501037F910007A
:10494000B6F84010AAF85220728E084444F6D358A4
:104950005043C1F2620840F2C46450FB08F0C2F256
:104960000004C11194F82D2001EBD07046F2676B62
:104970005043C6F2666B50FB0BF0810801EBD07020
:1049800080B201F01FFBBAF95000B6F8401037F9B9
:104990001000728E0844504350FB08F0C11194F887
:1049A0002D2001EBD070504350FB0BF0810801EB40
:1049B000D07080B201F00CFBBAF95200B6F840108A
:1049C00037F91000728E0844504350FB08F0C111B3
:1049D00094F82D2001EBD070504350FB0BF0810870
:1049E00001EBD07080B201F0F9FAE17E41F6583265
:1049F000B2FBF1F340F22A32BAF83E00B2FBF1F713
:104A000030217822009700F041FAF08780B2FEF75B
:104A1000ADF9F08F4FF41671B1FBF0F043F2000BDB
:104A2000AAF85A00C4F2000BFFF786BB013003B2AC
:104A30000131B3F5B47F0BB202F10102A8BF00202F
:104A4000B3F5B47F13B2A8BF0021B3F5B47FA8BFFC
:104A5000002240F2DC07AAF84E0000B2C2F20007C2
:104A6000AAF8501037F91000B6F84010AAF85220F2
:104A7000728E084444F6D3585043C1F2620840F2A3
:104A8000C46450FB08F0C2F20004C11194F82D2058
:104A900001EBD07046F2676B5043C6F2666B50FB79
:104AA0000BF0810801EBD07080B201F08BFABAF9FB
:104AB0005000B6F8401037F91000728E0844504389
:104AC00050FB08F0C11194F82D2001EBD070504339
:104AD00050FB0BF0810801EBD07080B201F078FA46
:104AE000BAF95200B6F8401037F91000728E084437
:104AF000504350FB08F0C11194F82D2001EBD07009
:104B0000504350FB0BF0810801EBD07080B201F0F4
:104B100065FABAF83E00C82804D95020AAF84E9089
:104B2000F08700E0F08F43F2000BC4F2000BFEF7B9
:104B30001DF9BAF84E0000287FF4FEAA0120AAF859
:104B40001300B07241F2240042F22831C4F2000096
:104B50003165CAF87410A960016040F2C460C2F205
:104B60000000407F142129608AF80F9000281CBFA4
:104B7000F08DAAF83200B17BF07A01291ED1013004
:104B8000C1B20729B07422BF0120B0748AF80C00AA
:104B900000F001001EE000BF00F010FCBAF8580061
:104BA00042F63441C4F20101C1E9000088600120ED
:104BB0008AF80F00AAF85A90FFF7BEBA013801062A
:104BC000B07404D106200121B0748AF80C100121C0
:104BD00021EA00007073EFF3108072B69AF80F00AC
:104BE00010B9B07CFDF76CF962B6FDF735F9DAF86B
:104BF000740040F6C511884224BF0120B072B07C19
:104C0000316D05EB40008AF81E908AF81B904181B7
:104C1000FEF7ECFDFFF790BAFDF77AF842F6344163
:104C20000020C4F20101AAF81700CAF83C0008608D
:104C30004860886000F070FC40F2C050C2F2000092
:104C40004FF48071FCF72BFBFCF7A6FE10B540F289
:104C50008C54C2F2000440F2C461C2F2000120464A
:104C60003022FCF7D7FA20463021FEF7F1FD84F818
:104C7000300010BD10B540F28C54C2F20004207018
:104C8000080ADDF808C06070100AE070180A607148
:104C90004FEA1C20A170E071204609212271A37106
:104CA00084F808C0FEF7D4FD607210BD40F2104CCD
:104CB000C2F2000CBCF8081021B10020ACF80800CA
:104CC0001CE000BF40F29F41C2F2000109780029B8
:104CD0004FF0000108BF4FF6FF70B1EBD03F07D196
:104CE00000F44041B1F5804F40F0A880062100E07B
:104CF0000721C840CCF8141040EA41212DE9F04FBB
:104D0000080A80EA11134B400F2424EA030343EA04
:104D10000114CCF8184046F61044C0F60004C1F364
:104D20000312A55C265CAA0242EAC63740F2D4020E
:104D300001F00F00C2F2000214F8008092F800E0C7
:104D400040F28870C2F2000000EB8E02802014F85E
:104D500003B020EAC60A06F008068AEA061600EA48
:104D600097214BEA4819714000EA572349EA0704A2
:104D70004B4000EA1727CCF81C405F4005F0100CB0
:104D800087EACC0C05F008058CEA0515C2E9036139
:104D900002F1140181E8881000EA541125F07F0324
:104DA00083EA010C00EA1413C2E9010A83EA0C0346
:104DB00000EAD400584008F0100780EAC70708F05E
:104DC0000806156287EA061609F08005754009F0A5
:104DD000400425F07F0181EA440109F0200481EAC2
:104DE0008404C2E90B070BF01000C2E90F1484EA37
:104DF000C0000BF00801C2E909C380EA01110BF001
:104E0000040381EA43130BF00207C2E90D6583EA4C
:104E100087174FEACB1602F1440CF6B227F07F0554
:104E20008CE88B0040F288716E400020C2F20001D5
:104E3000566541F82E00BDE8F08F00BF00F46041D8
:104E4000B1F5005F02D1052153E700BF00F47041C6
:104E5000B1F5805F02D104214BE700BF00F4784137
:104E6000B1F5006F02D1032143E700BF00F47C419C
:104E7000B1F5806F02D102213BE700BF00F47E4113
:104E8000A1F50071B1FA81F1490932E710B5844604
:104E900002988C4518DD1446864600BF644570466E
:104EA000D8BF10BD834215D022460C44641000EBDD
:104EB000030EA1424FEA6E0E0ED06445EEDA611C7D
:104EC00061457346E7DB00E09E466245C8BF704619
:104ED00010BD00BF184610BD704610BD40F2004026
:104EE000C4F20100016821F4001101604FF40011C7
:104EF00041617047B0B54EF60C5ECEF2000EDEF8A2
:104F000000304FF0FF35C3F3022383F00704042C75
:104F100028BF0424033B05FA04F438BF0023A1434F
:104F20004EF2001C994005FA03F3CEF2000C9A43AE
:104F3000114300F00F0200EB0C030901043A03F5E2
:104F400040730028724448BF02F10C03197048BF37
:104F5000B0BD00F01F01012202FA01F1C0F34210BE
:104F60004CF82010B0BD00002DE9F04381B042F6AE
:104F70002848C4F2010841F28730C8F80400EFF372
:104F8000108072B640F2BD50C2F20000007843F2C9
:104F900000094CF6CD447925C4F200094AF6AA2747
:104FA000CCF6CC440A26C8E90300C8F8140000BFB8
:104FB000023DA5FB04010809C9F80070FCF780FF59
:104FC00006EB5500C8F800000A20FDF7EDFE022DA3
:104FD000EED8FCF79DFE002040F23202C8F8000037
:104FE000C2F2000240F2D2411288C2F200010880EF
:104FF000C8F8042062B601B0BDE8F0832DE9F04F97
:1050000081B042F6284543F200080320C4F20105AE
:10501000C4F20008FCF754FF40F2D24940F2C466E3
:1050200000274AF6AA24C2F20009C2F200064FF095
:10503000000B4FF0000A07E00AF1010A0BF104002F
:105040000BF1020B7E285DD2C8F8004006EB0B0185
:1050500091F83400A9F80070FF28EDD091F83510D0
:1050600000293FD04FF47A62F72311FB03214DF65C
:10507000C002C0F2A702B2FBF1F148F2A0635FFAEE
:105080008AF2C0F20103C2EBC212B3FBF1F300EBF0
:10509000420048F21F525843C5F2EB12A0FB020235
:1050A00041F60030C0F2B700B0FBF1F00A212960F0
:1050B00080B240F2BD516860C2F2000109784843F5
:1050C0004CF2D511C0F2D101A0FB01010809C5E9DC
:1050D00003006861C2F34F10FDF766FE4FF0000A4F
:1050E000ACE700BF5FFA8AF1C1EBC11100EB4100F0
:1050F0004FF0000AC5E903AAC5F814A0FDF754FE55
:105100009CE700BFFCF704FE002040F2320128605B
:10511000C2F2000109886960A9F800004AF6AA20D5
:10512000C8F8000001B0BDE8F08F000010B542F6ED
:105130002844C4F2010441F28730606028202060D6
:1051400040F2BD50C2F200000078C4E90300606183
:105150000220FCF7B5FE9620FDF726FE43F2000084
:10516000C4F200004AF6AA21016050202060962077
:10517000FDF71AFEFCF7CCFD002040F23202206061
:10518000C2F2000240F2D2411288C2F2000108804D
:10519000626010BD10B542F62844C4F2010441F229
:1051A000873060603220206040F2BD50C2F20000C3
:1051B0000078C4E9030060610220FCF781FE9620BC
:1051C000FDF7F2FD43F20000C4F200004AF6AA2106
:1051D00001601E2020609620FDF7E6FDFCF798FD9B
:1051E000002040F232022060C2F2000240F2D241BE
:1051F0001288C2F200010880626010BD10B5EFF3A2
:10520000108072B642F62844C4F2010441F287309D
:10521000606043F20000C4F200004AF6AA21016077
:105220005020206040F2BD50C2F200000078C4E976
:10523000030060610320FCF743FE6420FDF7B4FD2A
:10524000462020606420FDF7AFFD28202060642008
:10525000FDF7AAFDFCF75CFD002040F23202206061
:10526000C2F2000240F2D2411288C2F2000108806C
:10527000626062B610BD000070B542F62844C4F208
:10528000010441F287306060EFF3108072B643F2A0
:105290000005C4F200054AF6AA263C202E602060D4
:1052A00040F2BD50C2F200000078C4E90300606122
:1052B0000120FCF705FE4B20FDF776FD5020206015
:1052C0004B20FDF771FD5A2020604B202E60FDF72A
:1052D0006BFDFCF71DFD002040F232022060C2F29F
:1052E000000240F2D2411288C2F2000108806260DE
:1052F00062B670BD10B5EFF3108072B640F2C460B4
:10530000C2F2000090F8300042F62844FF28C4F2B0
:10531000010403D0FFF772FE2CE000BF41F287309A
:10532000606040F2BD50C2F200000078C4E90300A2
:1053300060610320FCF7C4FD37202060C820FDF722
:1053400033FD0520FCF7BCFD28202060C820FDF7B8
:105350002BFD0620FCF7B4FD19202060C820FDF7C6
:1053600023FDFCF7D5FC40F2D2410020C2F200013F
:105370002060088040F23200C2F2000000886060C5
:1053800062B610BD10B540F28C44C2F200046078E1
:10539000022809D0012803D1FCF77EFF00206070AD
:1053A000BDE8104000F0AAB940F20850C2F2000077
:1053B0008088FFF77BFC0020607010BDB0B54FF017
:1053C0009040012100224FF480634FF48064FEF787
:1053D00029FB2825C4F600054FF09040012100224A
:1053E0004FF400732C604FF40074FEF71BFB4FF07A
:1053F0009040012100224FF480732C604FF48074A0
:10540000FEF710FB2C6005F5767420460221002281
:105410000223FEF707FB2046022100220123FEF7AC
:1054200001FB4FF09040022100228023BDE8B040F4
:10543000FEF7F8BA012AB8BF704770B5042A02F027
:10544000030C01D2002211E022F0030E431C0022C3
:105450008D5C9E188C1806F8015C65789D54A578C3
:1054600004327570E4789645B470F1D1BCF1000F48
:105470000FD0535CBCF1010F83540AD0531C13F8B6
:1054800001E0BCF1020F00F803E002D00232515CEF
:105490008154BDE870407047B0B55825C4F202058C
:1054A000286844F20004C4F201042860204601F098
:1054B00073F9412040F2D501A061C2F200010B2036
:1054C000097820624FF6FF70A162E06260690021F6
:1054D00040F00100606140F61D00C2F20000017062
:1054E00004F134006162A86040F2C050C2F20000D2
:1054F000E86040F27C00C2F2000000786860E0687A
:1055000040F40070E060206840F00100206040F648
:105510008B102860B0BD000044F22400C4F20100EA
:10552000002181600160704740F20000C2F200007B
:10553000C26C40F2C460C2F20000C021AFF3008030
:105540002DE9F04F03AF85B08346C81701EB90708B
:105550004FEAA00820F00300073020F00700924631
:10556000ADEB00058946AD4628464146FBF797FE60
:10557000B9F1040F39DBA8F10100032808F0030C8E
:1055800004D20021BCF1000F1BD12EE028F0030152
:10559000C1F1000E002100235BF803400BEB030078
:1055A000EC5044688668C0680439EA188E4503F1F7
:1055B0001003C2E90146D060EED14942BCF1000FB0
:1055C00013D05BF82120BCF1010F45F821200CD04D
:1055D0004A1C5BF82230BCF1020F45F8223004D09F
:1055E000881C5BF8201045F8201047F8148CFDF754
:1055F000E3FF5FEA8A5002D15046FDF715FF002015
:1056000047F8180C57F8180C57F8141C884211D298
:1056100057F8180C57F8181C0AEB800055F82110A1
:10562000FDF7DAFF0320FDF7EFFE57F8180C013005
:10563000E6E700BFA7F10C04A546BDE8F04FFDF773
:10564000E9BE0000B0B55825C4F20205286844F24E
:10565000000440F01000C4F201042860204601F06C
:105660009BF86020A0610320206240F27640C2F2E5
:10567000000000780121A0624C20E06240F61D008D
:10568000C2F200000170606940F00100606104F145
:105690003400A86040F28870C2F20000E86040F276
:1056A000D400C2F20000007817306860286840F02B
:1056B00002002860286840F008002860286840F050
:1056C00001002860E06840F40070E060606C40F425
:1056D00000406064206840F001002060B0BD000020
:1056E0001C21C4F202010A6822F001020A6048602B
:1056F000086840F001000860704700002DE9F041A3
:1057000082B040F2C466C2F20006B07C40F28C4423
:1057100040F20008C2F20004C2F20008F0B1607E5C
:1057200096F82610B0B3B4F84000002900F0548277
:10573000B0F5836FC0F07E8098F80E10727C9142B5
:1057400040F0A280237900220127E286E77343B16B
:10575000C1F1010188F80E10E27399E0B4F840003D
:10576000E086A07C98F8071088420BD9B07D48B13C
:10577000FCF7CEFAFFF7B2FB0020E0876620A074AA
:10578000BCE000BFF07C68B3E08E1D286CD800211F
:10579000E187A1E098F80520B4F840004FF47A774B
:1057A0005300002907EB420162D0814280F03C8126
:1057B00098F80E20777CBA4240F0248127794FF088
:1057C000000C4FF0010E002FA4F836C084F80FE053
:1057D00000F02A81C2F1010288F80E2084F80FC07F
:1057E00012E100BF6079002800F086802078002850
:1057F00000F0C480D8E91113E08E00912F2140F20F
:10580000FF7240F2FF77FFF741FB48F20071C0F2F0
:105810009331F27E91FBF0F05108E28E90FBF1F0B3
:105820002E2A208500F218810020E087C8F8540055
:10583000606663E0A0F1300189B2C9087C2931D8E3
:10584000717C98F80E20C1F10103934240F0CE80A4
:10585000237900220127002BE286E7733FF481AF12
:1058600088F80E10E273C5E01E2825D11E2033E013
:105870008142C0F09980C3F57A72824200F2508171
:10588000824240F297819CE1E17B00297FF469AF7D
:1058900098F808200021C2EB40002171A0F6010019
:1058A0005EE700BFE17B00200029E0863FF459AFAE
:1058B000E0730120207154E796F8281001EB810174
:1058C0008A00824208D9A0271E212F230097FFF7C4
:1058D000DDFA0146E08E5BE796F8281001EB8101C6
:1058E000890081420AD840F2FF7740F2FF72A0237C
:1058F0000097FFF7CBFA00E0E08EE087207D0028DC
:1059000040F09882E07D002800F09482F17CE08FE6
:1059100001EB81022F2707EB0212824200F2338251
:10592000E07C58B1E08FB8F82C30002900F01C82E0
:1059300028334FF4FA65892119E200BFFCF7E8F932
:1059400098F80A00002840F00382E07C002840F02C
:10595000FD8198F80E1098F81200012940F0B881E6
:105960000130C1B2072988F8120022BF012088F84F
:105970001200207300F00100B7E100BF606E48F62E
:10598000AD31C6F6DB0150FB01F0011301EBD07025
:1059900081B2302998BF302110F4784F18BF40F2FF
:1059A000FF71E187AAE700BF98F80E20737C9A4246
:1059B00040F0A380D8F85000B8F82430002798426F
:1059C000B4F842304FF0000088BF0120C82B4FF0E0
:1059D000000338BF0123184278D1207D002875D1FB
:1059E0004FF47A70A4F8400087E000BFE17B002903
:1059F0007FF4B7AE98F808200021C2EB4000217177
:105A00003138ADE6E27B7AB90022227140F2FF77AD
:105A10004FF4FA622F230097FFF738FA98F8051031
:105A2000E086B4F840004B00C3F57A7282423BD95D
:105A3000717C98F80E70C1F10105BD4220D1257925
:105A40004FF0000C0127A4F836C0E77365B388F85F
:105A50000E1084F80FC015E0606E48F6AD31C6F642
:105A6000DB0150FB01F0011301EBD07081B2302952
:105A700098BF302110F4784F08BF0F46E7873DE705
:105A8000E17B89B900212F2740F2FF732171009734
:105A9000FFF7FCF998F80510E086B4F840004FF4E1
:105AA0007A724B00A2EB4102824200F28A8003F537
:105AB0007A718142C0F08580E17B00200029E08678
:105AC00000F07F80E073012020717AE0C2F10100D4
:105AD00088F80E0040F20850C2F200000760012072
:105AE00088F80A00FFF7FAF998F80510B4F84000B2
:105AF0004FF47A72A77202EB410140F2FF774FF444
:105B0000FA622F230097FFF7C1F998F80510E08695
:105B1000B4F840004B00C3F57A7282427FF6B0AE13
:105B2000717C98F80E30C1F101079F422FD1D8F84F
:105B30005000B8F8243000279842B4F842304FF0B3
:105B4000000088BF0120C82B4FF0000338BF01239D
:105B5000184207D1207D28B94FF47A70A4F840008C
:105B600015E000BF40F20850C2F2000007600120BB
:105B700088F80A0088F80E10FFF7B0F998F80510B9
:105B8000B4F840004FF47A72A772A2EB41022F27BB
:105B9000002140F2FF730097FFF778F998F805109D
:105BA000E086B4F840004FF47A724B00A2EB410259
:105BB000824206D803F57A71814222BF0020E08636
:105BC000A072607E00283FF4CCAD96F82610B4F8A1
:105BD000400000297FF4ACADB0F5836F36D398F860
:105BE0000E10727C91422AD1D8F85000B8F82420C7
:105BF00000279042B4F842204FF0000088BF0120F7
:105C0000C82A4FF0000238BF0122104206D1207D81
:105C100020B90020A4F8400011E000BFC1F101004C
:105C200088F80E0040F20850C2F200000760012020
:105C300088F80A00FFF752F9B4F84000A77298F804
:105C40000810C1EB4001A1F60101E186A0F130018D
:105C500089B2C9087C2934D8717C98F80E20C1F12A
:105C60000103934227D1D8F85000B8F82420002728
:105C70009042B4F842204FF0000088BF0120C82AAB
:105C80004FF0000238BF0122104205D1207D18B923
:105C90000020A4F840000EE040F20850C2F20000DC
:105CA0000760012088F80A0088F80E10FFF716F93F
:105CB000B4F84000A77298F80810C1EB40013139E0
:105CC000E1862F283FF64DAD0020E086A07248E522
:105CD0000138010688F8120004D10620012188F855
:105CE00012002173012121EA000088F80D00EFF372
:105CF000108072B6E07B18B998F81200FCF7E0F853
:105D000062B6FCF7A9F8606F40F6C511884224BF5F
:105D1000012088F80A00002098F8121040F208527A
:105D2000A077E076D8F85000C2F2000202EB410101
:105D3000488142F21070C8F8500041F22400C4F2C9
:105D4000000041F2883101600120E074FDF7CAFAD9
:105D50000120E074B8F82800F17C6086E08FB8F884
:105D60002C3000297FF4E4AD4FF4FA652F2140F286
:105D7000FF720095FFF78AF896F82610A086002992
:105D800004BF0020E073F07CE18F00EB800007EBA4
:105D9000001088424CD9E07A052813D8DFE800F0DB
:105DA0001404080C100400BFFFF7F4F90AE000BF68
:105DB000FFF7BCF906E000BFFFF7D6F802E000BF2E
:105DC000FFF75AFA0020E072307D002852D0E07CC4
:105DD000002800F0838098F81200B8F81810C0EB83
:105DE000001001EB8000A0F13C010AB2B2F5B47FD3
:105DF000A8BFA0F5D27101F1770002B2A4F84E104D
:105E0000B2F5B47FA8BFA1F1F100A4F8500001F1F0
:105E1000EF0002B2B2F5B47FF27CA8BFA1F1790025
:105E2000012AA4F8520004BF012020750020A0869A
:105E3000E07B18B102B0BDE8F08100BFE08F2E28F2
:105E40002CD940F20851C2F200010A68717F1E236A
:105E5000CB40A18E9A4222D2B8F8282091423CBF72
:105E6000A2861146B8F82A20914284BFA286114624
:105E700015E000BFE17C00200029A08655D101215A
:105E800088F80A10317F40F20852C2F2000200295D
:105E9000106045D0FDF764FC47E000BFA18EB8F864
:105EA0003420914284BFA2861146A2792AB1B8F962
:105EB00022209142C4BF91B2A1863028BAD3A06EED
:105EC0000128B7DB41F25972CDF2B712A0FB0202F2
:105ED00001EB5230A08602B0BDE8F081012088F8C5
:105EE0000A00307F40F20851C2F2000100220A602D
:105EF000A27588B101287FF46EAFF07C00287FF492
:105F00006AAF96F82900C82141430A2861843DD32D
:105F1000FDF726FC5FE700BFFBF7FAFE5BE700BF7B
:105F2000E07B002808BFFBF7F3FE96F82610E07B25
:105F3000002918BF00283FF47CAF607EB4F8401001
:105F400050B94FF47A70FDF75BFC617E00F57A7012
:105F5000608411B3B4F84010A1F1300080B2C008E1
:105F60007C2807D898F80800C0EB410031386084DD
:105F700013E000BFB1F5836F0ED398F80800C0EBB3
:105F80004100A0F60100608407E000BFFFF716FAA9
:105F90000120E0731FE700BF608C80B240F2CF7138
:105FA000884203D3FDF7DCFB42E700BFFFF706FAA8
:105FB0003EE700004FF09040022101220423FDF74C
:105FC0003DBD000042F63441C4F201010860704753
:105FD00042F63841C4F201010860704742F63C4184
:105FE000C4F20101086070470B2828BF0B2040F263
:105FF000BD514000C2F200010870704780B542F206
:106000000000C4F2020040F253110160FCF75EFE92
:1060100000200121FCF72EFD0120FCF7F9FD0128ED
:10602000FAD100201D21FCF729FE02200121FCF7F6
:1060300021FD00BF1920FCF7EBFD0128FAD100205B
:10604000FCF7E2FC0020FCF7FBFC0020FCF7EAFC7C
:106050000120FCF703FD0220FCF776FEFCF77EFE34
:106060000228FBD10020FCF7F9FCBDE8804000F0DD
:1060700001B80000B0B541F2040441F20025C4F2B9
:106080000204C0F27A05FCF769FE02280CD0002851
:106090004BD1206D800548D5E06A800144BF46F6AB
:1060A0000045C0F2DC2540E02068A16A4FEA104CB0
:1060B000002921D421682268C1F38341C2F34172CF
:1060C0001301581C0F29034618BF0223002A18BFCA
:1060D00003465FEACC7003EB010005D02168890319
:1060E00002D4454321E000BF40F60011C0F23D015B
:1060F00000FB01F519E000BFA06AA36AC0F3031E0C
:10610000A06A40F60011C0F23D01C3F308235FEA24
:10611000CC7200F0070003D02268920358BF2946D2
:1061200059430EFA00F0B1FBF0F540F2AC30C2F288
:1061300000000560216804A2C1F30311515C25FA37
:1061400001F10160B0BD00BF0000000000000000D0
:106150000102030406070809F0B587B00E20C0F25B
:1061600018000121FCF762FD1220C0F21400012189
:10617000FCF75CFD4FF4A0100121FCF757FD40F245
:106180000010C0F2021040F2004406904020C4F615
:106190000004059005A92046FDF706FC20460621CF
:1061A00000220027FDF75EFC1C25C4F202052846EC
:1061B000FDF778F86E463046FDF726F83120C0F23C
:1061C0000010CDF80A001020ADF8080040F28C5005
:1061D00043F60004C2F20000C4F201040190201D45
:1061E000009028463146CDF80E70FDF71DF8204688
:1061F0004FF4E1310022002300F016FC204601217B
:1062000000F06AFC2046012100F052FC20460121EA
:1062100000F058FC2046012100F0F2FB204601214D
:1062200000F0F8FB0A2003210022FEF763FE07B00E
:10623000F0BD00002DE9F04381B040F28C44C2F281
:106240000004A08EE18DA4F84200481CA18CE085DA
:10625000481CE18CA084481CE17D40F2C468C2F275
:106260000008E084A9BB607A98BB207E88B3B4F8AC
:10627000540001210130A4F8540098F82400E1757D
:1062800001281DD1A08D41F6D471C0F2B101A0FB4F
:106290000112B0F5B97F627214D343F200070026F1
:1062A000C4F200074AF6AA25FEF7A8FF6420FCF70F
:1062B0007BFD3D60607A01368642F5D302E000BF87
:1062C000FEF79CFF607EA17E084304BF002088F893
:1062D000260098F81F00C0B140F20002C2F200028E
:1062E000D278B4F856101044013100EB80006FF002
:1062F000130202EB80008AB29042A4F8561004D236
:106300000120A0730020A4F85600207D002840F052
:10631000B48140F20009C2F2000999F80A0000288D
:106320003ED0E07CE0B3FEF7D9FDFDF76DFA99F8B9
:106330000D1069B168B1A07D99F80F200130C3B28A
:106340009342A07514D8E07E50BBA07F15E000BF3B
:1063500030B1A07F0130E27EA0770ABB0CE000BF25
:10636000A07D99F80F200130C3B29342A0750BD9DC
:106370000020E27EA0779AB949B199F81010C0B216
:10638000884209D80CE000BFE07E48B9A07F99F8A8
:106390001110C0B2884203D90120E07600F0A6FBBC
:1063A000E08C1528C0F0E080A27994F813C0012099
:1063B0000021002A6073E18418BFBCF1000F48D0AF
:1063C000B4F9301098F82C206FF0C70312FB0312B9
:1063D00040F28401C2F200010F69D1E901530A6061
:1063E00003FB02730F6ACE68BB42A8BF3B467F42E5
:1063F000BB42D8BF3B468F690B61D71B07FB0633F7
:1064000007FB06F0486105FB02304B6A8A6198423F
:10641000A8BF18465A429042D8BF1046C86147F2FA
:106420005341C9F2247150FB01F00113B9F8222045
:1064300001EBD0701044B9F82C1002B28A42B8BFF8
:10644000084600B2B0F5FA6FA8BF4FF4FA60A9F899
:10645000220098F81D00002818BFBCF1000F37D0AB
:10646000D9F85000B9F81610401A40F28401C2F26F
:1064700000018B6BD1E90B72886202FB00328B6CDE
:106480004E6B9A42A8BF1A465B429A42D8BF1A4640
:106490000B6C8A63C31A03FB062203FB06F507FB9A
:1064A0000022CB6CCD6308649A42A8BF1A465842BA
:1064B0008242D8BF0246A06E4A644EF26031104458
:1064C000C0F216018842B8BF014621EAE170A06619
:1064D0006079002818BFBCF1000F45D040F2085089
:1064E000C2F20000D0E90001228DD9F86430891A87
:1064F000D9E91672C9F8541002FB0132D9F8743088
:10650000D9F860609A42A8BF1A465B429A42D8BF47
:106510001A46D9F86C30C9F86420CB1A03FB06225E
:1065200003FB06F507FB0122D9F87830C9F868505B
:10653000C9F86C109A42A8BF1A4659428A42D8BF7D
:106540000A46616EC9F87020114445F6F002C0F2A7
:1065500038129142B8BF0A4622EAE27163286166A6
:106560009CBF0020C9F86400E08D617FB0FBF1F2B0
:1065700002FB110010B1608E22E000BFA08D012748
:106580004FF4487140F698020A230097FEF77EFC0C
:10659000616FB4F84230C829618E98BF00EB4000AB
:1065A0005F1AC2B2974289F80900D1BF184651FA62
:1065B00080F0A4F8420083B2CB1A934202DD881A1D
:1065C000A4F84200E17D99B1E27C8AB1E28F302AE1
:1065D0000ED3B9F8301082B244F6D3534A43C1F215
:1065E0006203A2FB0323012202EBD31239E000BFB6
:1065F000E27B6AB1B9F83010628C44F6D3534A4357
:10660000C1F26203A2FB0323A1EBD31229E000BF76
:10661000E1B198F81C10022918D10220FBF750FCB8
:1066200098F80C00B9F8301041F26F224843C0F2DC
:106630008302A0FB020222F0030000EB9200322250
:1066400002EB4002B4F842000BE000BFB9F8301092
:1066500082B244F6D3534A43C1F26203A2FB03233E
:10666000DA09608642F62C40C4F20100A4F85820F2
:10667000016091B2C0E902110161B4F84600013035
:10668000A4F8460001B0BDE8F0830000062988BFE9
:106690007047DFE801F0050B151F29333D0000BFEF
:1066A000016A62F300010162704700BF016A02F0F3
:1066B000010221F0040141EA82010162704700BF3A
:1066C000016A02F0010221F0100141EA02110162A7
:1066D000704700BF016A02F0010221F0400141EA67
:1066E00082110162704700BF016A02F0010221F4C9
:1066F000807141EA02210162704700BF016A02F025
:10670000010221F4806141EA82210162704700BFE9
:10671000016A02F0010221F4805141EA0231016272
:1067200070470000062988BF7047DFE801F005299F
:106730000F291929210000BF816902F0010221F00F
:10674000080141EAC2018161704700BF816902F01E
:10675000010221F4006141EAC2218161704700BF5A
:10676000C16902F0010221F0080141EAC20106E01C
:10677000C16902F0010221F4006141EAC221C16154
:1067800070470000026801F0010122F0800242EA35
:10679000C11101607047000010B542F6FF31C4F22C
:1067A0000101884216DD44F2FF31C4F201010B24DD
:1067B0008842C0F20C0425DC42F60041C4F201011B
:1067C00088423AD044F20001C4F2010188423FD12C
:1067D000053432E040F20041C4F20001884221D089
:1067E00041F20001C4F2000188421FD042F20001D0
:1067F000C4F2000188422BD10120C0F21000C41D58
:106800001BE000BF44F20041C4F20101884213D0F2
:1068100044F60001C4F20101884218BF10BD0734DC
:106820000BE000BF0124C0F2100406E00120C0F21A
:106830001000C41C01E000BF063420460121FCF713
:1068400009FA20460021BDE81040FCF703BA00BF5A
:1068500010BD0000B0B540F2A344C2F2000440F203
:106860009C402178C2F200000078002918BF00285F
:106870000ED140F2A441C2F200010978012917D0DB
:1068800000295FD1FCF77AFBBDE8B040FEF704BEFB
:1068900040F61D00C2F200000078E8B1FEF7FCFDF2
:1068A00040F28D40C2F2000002210170B0BD00BF75
:1068B000E0B140F61D00C2F20000007890B340F253
:1068C0000C50C2F200000088FEF7F0F9FBF7E4FC80
:1068D000BDE8B040FEF7E0BDFEF7B4FE40F28D40EB
:1068E000C2F2000001210170B0BD00BF40F2A54519
:1068F000C2F200052878012803D1FBF7CDFCFEF792
:10690000CBFD40F2A640C2F200000078012817D16A
:10691000FCF796FF50B140F27C00C2F20000032168
:1069200001700BE0BDE8B040FEF78CBE40F27C0089
:10693000C2F2000002210170FBF764FFFEF7ACFD1C
:10694000207808B1B0BD00BF40F2C84C2878C2F230
:10695000000CBCF8002040F27044C2F20004E8B120
:10696000607907281AD8062A18D3431C40F2C05071
:10697000C2F200000568C06F6169401B0844082B23
:10698000637160610AD1C10840F27C0501EBD0134C
:10699000C2F20005A1EBD010AB80A08140F2C2454D
:1069A000C2F20005288828B9617819B9501CACF8E2
:1069B0000000B0BD40F2C461C2F20001C9790029F3
:1069C000C0D140F2DD5200219042ACF8001038BF37
:1069D000B0BD6189FCF714FF2278E17801323228DA
:1069E00088BF0022D0B23328227005D321B9FEF728
:1069F000BBFA4FF48070208028886081B0BD000011
:106A0000426901F0010122F0800242EAC1114161B4
:106A100070470000C26801F0010122F4005242EA0E
:106A20004131C160704700002DE9F04186B001ADF1
:106A300004462846984616460F46FCF75DF843F68E
:106A4000000105F10C00C4F201018C4208BF05F100
:106A5000080000684CF6CD4100EB80004000B0FB20
:106A6000F7F0CCF6CC41A0FB0112D10801EB810379
:106A7000A0EB43000428A0684FF0010388BF03EB9C
:106A8000D201C1EA0000A060E06806F0010120F434
:106A9000805040EA0130E060206908F0030120F4F2
:106AA000405040EA0130206106B0BDE8F0810000AE
:106AB000C26801F0010122F0040242EA8101C160D2
:106AC00070470000426901F0010122F0080242EA29
:106AD000C101416170470000C26801F0010122F06C
