:0400000508000401EA
:020000040800F2
:100000000020002001040008A10D0008A30D000835
:1000100000000000000000000000000000000000E0
:10002000000000000000000000000000A50D000816
:100030000000000000000000A70D0008A90D000846
:10004000510400085104000851040008510400083C
:10005000510400085104000851040008510400082C
:10006000510400085104000851040008510400081C
:10007000510400085104000851040008510400080C
:100080005104000851040008000000005104000859
:1000900051040008510400085104000851040008EC
:1000A00051040008510400085104000851040008DC
:1000B0005104000800000000510400080000000086
:1000C0000448054B10B5834203D0044B002B00D0ED
:1000D000984710BD18000020180000200000000004
:1000E00006480749091A8B10C90FC91810B54910DD
:1000F00003D0044B002B00D0984710BD18000020FF
:10010000180000200000000010B5074C2378002BD9
:1001100009D1FFF7D5FF054B002B02D0044800E0C2
:1001200000BF0123237010BD180000200000000054
:100130001C0F0008054B10B5002B03D004490548DF
:1001400000E000BFFFF7CCFF10BDC046000000007C
:100150001C0000201C0F000870B50C4D0C4E761BC7
:10016000B61005D0002408CD01349847A642FAD134
:1001700000F0D4FE074D084E761BB61005D00024C3
:1001800008CD01349847A642FAD170BD340F00085B
:10019000340F0008340F0008380F0008F0B50500D0
:1001A000830749D0541E002A45D003000326CAB253
:1001B00002E00135013C3ED301332A703342F8D1CD
:1001C000032C30D9FF220A40150215432A04154397
:1001D0000F2C34D92700103F3F093E01B4461E00C2
:1001E0001A0010366644156055609560D56010326F
:1001F000B242F8D101373F01DB190F270C2227400B
:1002000022403C00002A0ED03E1FB608B400A4468F
:100210001A001C1D644420C2A242FCD103240136F2
:10022000B6009B193C40002C05D0C9B21C191970AE
:1002300001339C42FBD1F0BD03001400C0E727004E
:10024000E2E7C046002243088B4274D303098B4285
:100250005FD3030A8B4244D3030B8B4228D3030C96
:100260008B420DD3FF22090212BA030C8B4202D338
:100270001212090265D0030B8B4219D300E0090A60
:10028000C30B8B4201D3CB03C01A5241830B8B4269
:1002900001D38B03C01A5241430B8B4201D34B0352
:1002A000C01A5241030B8B4201D30B03C01A5241B7
:1002B000C30A8B4201D3CB02C01A5241830A8B423C
:1002C00001D38B02C01A5241430A8B4201D34B0225
:1002D000C01A5241030A8B4201D30B02C01A524189
:1002E000CDD2C3098B4201D3CB01C01A524183093D
:1002F0008B4201D38B01C01A524143098B4201D377
:100300004B01C01A524103098B4201D30B01C01AA1
:100310005241C3088B4201D3CB00C01A524183081B
:100320008B4201D38B00C01A524143088B4201D348
:100330004B00C01A5241411A00D2014652411046A8
:100340007047FFE701B5002000F006F802BDC04687
:100350000029F7D076E770477047C046F0B5C6462B
:1003600000B50F2A41D903270D003E0005430C00BC
:1003700003002E402F423DD11500103D2D09A84607
:100380002D01AC46844427681D001F6067685F60CC
:10039000A7689F60E7681034DF6010336545F2D1CD
:1003A00045460F230C2401352D01491913404519E9
:1003B000144222D08C59AC5104369C1B032CF9D822
:1003C000043B9B0801339B00ED18C91803231A4016
:1003D000561E002A06D00023CC5C1A00EC540133D0
:1003E0009642F9D180BCB846F0BD0500561E002AE1
:1003F000F1D1F7E70500561EEDE71A00F6E7C04613
:100400000D4885460D480E490E4A002302E0D45897
:10041000C4500433C4188C42F9D30B4A0B4C00234C
:1004200001E013600432A242FBD300F0BEFCFFF7F0
:1004300093FE00F013FCFEE70020002000000020E7
:10044000180000203C0F0008180000206402002063
:10045000FEE70000F0B587B015006A46CC0F6418BF
:10046000641063000733DB08DB00D31A00AF9D463E
:100470006E467860220000213000FFF78FFE0023D7
:100480007868A34236DB01222D4BFC60D96811420B
:10049000FCD11A69120605D52A4A12685A602A4AFE
:1004A00012685A60AA0515D1196902320A431A6105
:1004B00040225D6119690A431A610122D96811421B
:1004C000FCD12022D968114200D0DA6002211A69D9
:1004D0008A431A61002220203A617A6101327C69E4
:1004E000F9688C4211D38022BD4619690A431A610A
:1004F00007B0F0BD4278120294466146027802309D
:100500000A43590072520133BBE71969114319615B
:100510007C6939696400A45B49190C80D96811426F
:10052000FCD1D968014200D0D860196991431961A2
:10053000396902313961796901317961CFE7C046A2
:10054000002002400000002004000020002310B51D
:10055000934200DB10BDCC5CC4540133F8E70000CB
:1005600000B589B01422002103A8FFF717FE8020F0
:10057000094A8002516901435161536902A903404C
:100580000193019B90200423C0050293033B069333
:1005900000F00CFC09B000BD0010024080230022D6
:1005A000DB055A625A6A8242FCD3704710B572B6B4
:1005B0000B4B0C4C1B6823600B4B1B78012B03D09F
:1005C00000220A4B1A8010BD00F0E0FB084A2368A5
:1005D0001360084A126882F308889847F3E7C04618
:1005E0000410000838000020007C000852000020A1
:1005F0003C00002000100008F7B501910021009098
:100600000B0008000125124A124F11705170019C15
:1006100084420BDC002902D013701B0A537011783E
:100620000D4B197052780D4B1A70F7BD00990C5C88
:10063000082126005E405B082E4201D07B409BB221
:100640000139C9B264080029F3D129000130DEE77D
:100650003400002001A0FFFF4700002046000020DA
:1006600070B54318455C5C78FFF7C6FF054B00206A
:100670001B78AB4205D1044B1878001B434258410C
:10068000C0B270BD470000204600002010B5FFF743
:1006900067FF0022014B1A6010BDC0465C010020BC
:1006A00090213022C9050B6893431A00102313438D
:1006B0000B607047F8B59021002380201E4D1F4C21
:1006C0002B70C9050433C0050A691A4227D01C4B98
:1006D0009021802618780423C905F6050A691400BC
:1006E0001C401A4222D11A209027FFF757FF0126FB
:1006F000FF053420FFF752FF3B692A789B083340FF
:10070000A340013413432B70082CF2D11A20FFF7B9
:1007100045FF0B4B2A781E700A4B1A7005E0426A9F
:10072000A242D1D96522084B1A80F8BD726AFA2A12
:10073000D4D90028D2D0F8E763020020400D03008E
:10074000580000206001002052000020F8B59026DB
:100750000423050008240127F605B3623420FFF7BF
:100760001DFF04233D420DD0B361013CE4B26D088E
:10077000002CF3D13420FFF711FF90230422DB0576
:100780009A61F8BDB362F0E710B5FFF789FF30203A
:10079000FFF7DCFFFFF77AFF10BD10B5FFF780FF12
:1007A000C120FFF7D3FFFFF771FF10BD10B5FFF7B2
:1007B00077FFC220FFF7CAFFFFF768FF10BD70B5D3
:1007C00006000D000024AC4200DB70BD305DFFF779
:1007D000BDFF3420FFF7E2FE0134F4E710B5FFF768
:1007E0005FFF09210248FFF7EAFFFFF74FFF10BD47
:1007F00008000020F7B58F4D8F4C2B7800AF002BF1
:100800001ED08E4B200019888D4B1980FFF728FFD2
:10081000002812D080228B4E002152003000FFF7BA
:10082000BDFC874B21001A883000FFF797FDFFF7CA
:10083000ABFF00232B70BD46F7BDFFF7B7FFFAE70C
:10084000814B21781960237C7D2B0AD1237A0D2BD3
:10085000F1D1637A422BEED1FFF7C0FF002323755D
:10086000E9E7237D7D2B05D1237B0D2B02D1637B13
:10087000422BF1D0230028331B787D2B07D1631C3A
:10088000DB7F0D2B03D1A31CDB7F422BE4D000299F
:1008900012D1A27863781343E278134302D1652220
:1008A0006A4B1A80FFF7FCFEC120FFF74FFF674A33
:1008B00013880133138048E0012917D1604B0131BF
:1008C00020001980FFF7CCFE0028B6D0604B1A68D4
:1008D000604B9A4202D8FFF760FFACE7574B59488C
:1008E0001988FFF7B7FDFFF74FFFA4E7FF2916D1DF
:1008F000534BFB3920001980FFF7B2FE00289CD033
:100900000022524BA1781A808022E37812051B0244
:100910000B435BBA9BB29B184D4A1360E3E7FE2979
:1009200019D1474BFA3920001980FFF799FE0028AA
:1009300083D0A378012B0BD0E378404A13800123A6
:1009400080222B70444B52001A80FFF79FFE72E703
:1009500080235B00F1E7FD290ED1394BFB392000E4
:100960001980FFF77DFE002800D166E7FFF798FEAB
:10097000C120FFF7EBFEE8E702290DD1304B200044
:100980001980FFF76DFE002800D156E7304A314B41
:1009900012689A429FD9A6E704293AD101222F4B27
:1009A0001A707FE72E4A1368013313606478002CB5
:1009B00001D10134FF348022274B1A80FFF770FEEB
:1009C0006A46E31C7B600733DB08DB00D31A9D46D5
:1009D0006D46E21C00216846FFF7E0FB1C4B22003D
:1009E00019686846FFF7B2FD21006846FFF704FE6C
:1009F0001C4B1D4A1B7812782B55631CEA5430237C
:100A00000234684679682B55FFF7D9FEFFF73EFEA2
:100A10000DE0032900D045E70221094B20006E4676
:100A20001980FFF71DFE0028BCD1FFF7BFFEB546B9
:100A300001E7C04651000020610100205A0100205A
:100A400054000020590000204800002052000020DF
:100A500040000020FF0F000844000020500000204C
:100A60004C0000204700002046000020F8B58122FD
:100A700000241B4D1B4E1C4B2100280080275200D8
:100A800034601C70FFF78AFBFF05FFF713FE174B5E
:100A90001B78002B11D0164A3368128802329A4212
:100AA0000FD0144A0133127833602A708123013445
:100AB00001355B009C42E8D103E07A6AFA2A03D947
:100AC0003360FFF797FEF8BD0A4B1B782B700223AB
:100AD000FF339C42EAD1084A138814331380E5E7B8
:100AE000610100204C00002058000020510000202F
:100AF0005A010020630200205200002010B50A4C69
:100B0000302220000949FFF721FDA3780C2B0AD0E1
:100B1000013BDBB2FD2B06D80C2330212000034A19
:100B2000A370FFF797FC10BD61010020007C000856
:100B3000F8B590243022E405E368FA2093431A00C4
:100B400020231343FA25E3604000FFF727FD042626
:100B50006D002369334203D1164A13880133138091
:100B60000A20013DFFF71AFD002DF2D1114C238818
:100B7000002B1ED090263022FA20F605F36825803F
:100B80009343F3604000FFF709FD0427F535FF3577
:100B900033693B4202D12388013323800A20013D7F
:100BA000FFF7FCFC002DF3D12388002B01D0FFF7C9
:100BB000FDFCF8BD560000200122234910B50B684A
:100BC000934313430B600B68204B19680A431A6068
:100BD000022219681142FCD0F8211A688A431100D8
:100BE00080220A431A605A6819491140A0229203D0
:100BF0000A430F215A60DA6A8A43DA62802219684E
:100C000052040A431A608022920419681142FCD0EF
:100C1000F0215A688A435A605A680E490A400321F3
:100C20005A605A688A43110002220A430C215A6012
:100C30005A680A40082AFBD1074800F059F90648CB
:100C400000F066F910BDC0460020024000100240CE
:100C5000FFFFC2FFFFF8FFFF006CDC02F0B50125CB
:100C6000802110262D4C89B0A36949052B43A3612F
:100C7000A36903AF2B400193019BE2690A43E26140
:100C8000E369274A0B400093009B136833431360CA
:100C9000FFF792FF142200213800FFF77FFAE36983
:100CA00039002B43E361E36980242B400293029BCC
:100CB0002F23E4053B802000303B059300F0C8F86B
:100CC00080222368174993432360A3680B40702157
:100CD000A36063688B436360A3689343A360236846
:100CE0001D432560FFF73CFCFFF722FF90223021D7
:100CF000D205D3688B431E430B4BD6601A780B4B3F
:100D0000DA70FFF7FBFE00F015F8FFF7AFFE084BB7
:100D10001B88642BF9D9FFF749FCF6E70010024065
:100D200000200240F8BFFFFF110000200800002053
:100D3000520000208020134B8002596930B50143D6
:100D4000596180215A6989B002400192019A5A6919
:100D5000C9020A435A615B690C220B4000930021CF
:100D600005A8009BFFF71AFA01231825064C0393E8
:100D70002000023302A90295049300F017F8A5623F
:100D800009B030BD0010024000040048024A034987
:100D900013680B4013607047000400483FF9FFFFE1
:100DA0007047FEE77047704770477047F7B50025FA
:100DB0004B680A6800935E1E1300EB4009D1012EB8
:100DC00005D84368C96893434A431A4342600020E8
:100DD000FEBD01241300AC40234022422BD01A0058
:100DE00003275A435743BC46FF43019767460468AD
:100DF000BC43009F57433C430460012E06D88C68D7
:100E000086685443019F3E40344384600C69C66841
:100E10005443019F3E402643009CC660022C0AD1E9
:100E20004C69FF2B09D80F26524356436243036A8D
:100E3000B3431A4302620135BAE70F261B0A5B432C
:100E40005B435E436343426AB2431A434262F2E742
:100E5000204A10B50368904206D08024E405A042E1
:100E600002D01D4CA0420CD17024A3434C682343F4
:100E7000904212D08024E405A0420ED0164CA0422D
:100E80000BD0164CA04208D0154CA04205D0154CF2
:100E9000A04202D0144CA04203D1144C2340CC6891
:100EA000234303608B68C3620B888362904208D03F
:100EB0000B4B984205D00B4B984202D00A4B9842FC
:100EC00001D10B7C0363012342691343436100207A
:100ED00010BDC046002C014000040040002000402E
:100EE000004001400044014000480140FFFCFFFF7A
:100EF000FA2110B58900FFF7A5F90022034B01384C
:100F000058609A6005321A6010BDC04610E000E0DB
:100F1000014B18607047C04614000020F8B5C04669
:100F2000F8BC08BC9E467047F8B5C046F8BC08BC83
:100F30009E467047350100080901000823016745F6
:100F4000AB89EFCD343731001F06060130020000B7
:040F500000127A0011
:010FFC000CE8
:1010000000200020CD550008CD630008D163000802
:1010100000000000000000000000000000000000D0
:10102000000000000000000000000000D563000880
:101030000000000000000000D9630008DD63000824
:101040001D5600081D5600081D5600081D560008B4
:101050001D5600081D5600081D5600081D560008A4
:101060001D56000811650008E163000809640008C6
:1010700075640008396500081D5600081D560008F3
:10108000ED6400089164000800000000AD640008F1
:10109000C9640008C16400081D5600081D560008F8
:1010A0001D5600081D5600081D560008C56400089E
:1010B0001D560008000000001D560008000000003A
:0E10C000015F415249412037304100000000DD
:1010D00010B5064C2378002B07D1054B002B02D00E
:1010E000044800E000BF0123237010BD94040020D9
:1010F00000000000006A0008044B10B5002B03D06C
:101100000349044800E000BF10BDC04600000000D5
:1011100098040020006A0008002243088B4274D320
:1011200003098B425FD3030A8B4244D3030B8B42E8
:1011300028D3030C8B420DD3FF22090212BA030CF1
:101140008B4202D31212090265D0030B8B4219D3D2
:1011500000E0090AC30B8B4201D3CB03C01A5241F2
:10116000830B8B4201D38B03C01A5241430B8B423A
:1011700001D34B03C01A5241030B8B4201D30B0323
:10118000C01A5241C30A8B4201D3CB02C01A52414A
:10119000830A8B4201D38B02C01A5241430A8B420D
:1011A00001D34B02C01A5241030A8B4201D30B02F6
:1011B000C01A5241CDD2C3098B4201D3CB01C01A10
:1011C000524183098B4201D38B01C01A524143091A
:1011D0008B4201D34B01C01A524103098B4201D308
:1011E0000B01C01A5241C3088B4201D3CB00C01A75
:1011F000524183088B4201D38B00C01A52414308ED
:101200008B4201D34B00C01A5241411A00D2014611
:10121000524110467047FFE701B5002000F0F0F89A
:1012200002BDC0460029F7D076E7704703460B435E
:101230007FD4002243088B4274D303098B425FD3CF
:10124000030A8B4244D3030B8B4228D3030C8B42FB
:101250000DD3FF22090212BA030C8B4202D31212E1
:10126000090265D0030B8B4219D300E0090AC30BB6
:101270008B4201D3CB03C01A5241830B8B4201D363
:101280008B03C01A5241430B8B4201D34B03C01A4C
:101290005241030B8B4201D30B03C01A5241C30AC4
:1012A0008B4201D3CB02C01A5241830A8B4201D335
:1012B0008B02C01A5241430A8B4201D34B02C01A1F
:1012C0005241030A8B4201D30B02C01A5241CDD2C4
:1012D000C3098B4201D3CB01C01A524183098B420F
:1012E00001D38B01C01A524143098B4201D34B01F8
:1012F000C01A524103098B4201D30B01C01A52415B
:10130000C3088B4201D3CB00C01A524183088B42E1
:1013100001D38B00C01A524143088B4201D34B00CA
:10132000C01A5241411A00D201465241104670473C
:101330005DE0CA0F00D04942031000D34042534041
:1013400000229C4603098B422DD3030A8B4212D301
:10135000FC22890112BA030A8B420CD38901921133
:101360008B4208D3890192118B4204D389013AD070
:10137000921100E08909C3098B4201D3CB01C01A45
:10138000524183098B4201D38B01C01A5241430958
:101390008B4201D34B01C01A524103098B4201D346
:1013A0000B01C01A5241C3088B4201D3CB00C01AB3
:1013B000524183088B4201D38B00C01A5241D9D2CB
:1013C00043088B4201D34B00C01A5241411A00D24C
:1013D0000146634652415B10104601D34042002B48
:1013E00000D54942704763465B1000D3404201B5C7
:1013F000002000F005F802BD0029F8D016E770477C
:101400007047C046844608006146FFE71FB500F0FC
:101410006DFB002801D40021C8421FBD10B500F0AB
:10142000F9FA4042013010BD10B500F05FFB002812
:1014300001DB002010BD012010BDC04610B500F03A
:1014400055FB002801DD002010BD012010BDC04665
:1014500010B500F005FB002801DC002010BD0120C4
:1014600010BDC04610B500F0FBFA002801DA0020DC
:1014700010BD012010BDC0469E2110B5C905041C39
:10148000FFF7F0FF002803D1201C00F047FE10BD3D
:101490009E21201CC90500F093FC00F03FFE802334
:1014A0001B069C466044F2E7F0B5C64643025B0A61
:1014B0004E0245004F00DA00C40F9C46700A904669
:1014C00000B52D0E3F0EC90FB6098C424BD0EA1B5A
:1014D000002A36DD002F61D0FF2D00D1ADE0802342
:1014E000DB041E431B2A00DCD3E001204346181A0C
:1014F000430100D48CE080018709380000F0BEFE73
:1015000005388740854200DCB6E02D1AB3483840E4
:10151000430704D00F230340042B00D004304301C1
:1015200000D478E06A1CFE2D65D08001430A9C46F9
:10153000D2B26346D0051843E407204380BCB846C6
:10154000F0BD002A35D07A1B002D00D0AFE0434615
:10155000002B00D1A7E0531E012A00D12FE1FF2A62
:1015600069D01A00AAE0E91B002970DD002F37D0EE
:10157000FF2D62D08023DB041E431B2900DCB0E07A
:1015800001204044430143D50135FF2D33D00123D1
:10159000934A0340400810401843B9E7002E00D199
:1015A00083E0511E012A00D1D8E0FF2A45D00A006D
:1015B00098E7FE276A1C174200D086E0002D00D075
:1015C000B7E04346002B00D1F3E00022002EB0D05C
:1015D000981B430100D4FAE043460C00F01A97E749
:1015E000002E00D1C8E04A1E012900D1AEE0FF293B
:1015F00023D01100C1E70023FF229C4699E7FE217A
:101600006A1C114277D0FF2AF5D0150046447008B5
:10161000430700D07EE7C308FF2D0ED05B025B0AB4
:101620009C46EAB285E7002E07D08022D2031342FF
:1016300003D0104201D10C000300002BDBD080202E
:10164000C00318434002430A9C46FF2271E7002969
:10165000D5D07A1B002D60D14346002B24D0531ED9
:10166000012A73D0FF2AE7D01A001B2A00DC85E08C
:1016700001203D00801985E720233A00451B3800F2
:101680000135EA405D1BA840431E984100251043E8
:101690003EE7202330009B1A31009840D140431E82
:1016A0009841084322E70C0003001500B4E7FF2F20
:1016B000C1D080234046DB04184380461B2A51DDFD
:1016C00001200C003D00301A12E743469F1B7B01AE
:1016D0002BD4002F00D010E70023002400229C46CA
:1016E00027E7202332003000CA40591A8840431EA1
:1016F0009841104345E7002D4AD14346002B63D063
:101700000022002E00D114E730004044430100D4F1
:101710007EE7324B013518407AE7FF2F8CD08023CB
:101720004146DB04194388469FE743460C00F71AFD
:10173000E3E64246002A00D075E7002E00D07AE7A3
:101740008023DB0300249C46FF22F2E63000404465
:101750000125430100D45BE7022518E74346012534
:10176000981BC5E6202344464046D4409A1A904030
:10177000431E98412043A4E70D004DE72023414636
:101780004046D1409A1A9040431E9841084370E762
:101790004246002A00D14FE7002E00D14DE78022BB
:1017A000D203134200D148E7104200D045E70300BE
:1017B00043E7002E90D00C0084460022B9E6434651
:1017C0000C00F01A013593E684460022B1E60028A9
:1017D00000D01DE7002300249C46AAE6FFFFFFFB84
:1017E000FFFFFF7DF0B54F464646D6464502C0B5E1
:1017F00047000C1C6D0A3F0EC60F002F00D170E091
:10180000FF2F00D175E0EB008025ED041D43002380
:1018100099469A467F3F6002430A984663001B0E32
:10182000E40F002B4ED0FF2B46D04246D000802242
:10183000D2040243904600227F3B3100FF1A4B4600
:101840006140C9B213430F2B00D9B5E06E489B002D
:10185000C3589F4600239846260045469246534665
:10186000022B00D189E0032B00D19EE0012B18D080
:101870003B007F33002B69DD6A0704D00F222A402A
:10188000042A00D004352A0103D5604B1D403B00DB
:101890008033FE2B00DD70E0AD016D0AD8B202E0AE
:1018A0000E0000200025C0052843F6073043E0BCA9
:1018B000BA46B146A846F0BD4346002B3FD10222AE
:1018C000FF3F03E04346002B2DD1012231004B4660
:1018D0006140C9B213430F2B34D84D489B00C35805
:1018E0009F46002D13D104239946033B00279A46B7
:1018F00091E7002D05D108239946063BFF279A461C
:1019000089E70C239946093BFF279A4683E728007D
:1019100000F0B4FC7627431F9D4000237F42994688
:101920009A463F1A77E7404600F0A8FC4246431F1C
:101930009A4076235B4290461B1A00227DE7FF23E4
:1019400003227AE70E00FF200025ACE70120C01A31
:101950001B28A6DC9E372A00BD40C2406B1E9D415D
:1019600015436B0704D00F232B40042B00D0043504
:101970006B0144D50120002595E7FF20002592E763
:1019800080250026FF20ED038DE700239846802068
:10199000C003054209D04346034206D145460543EC
:1019A0006D022600FF206D0A7DE78020C0030543FD
:1019B0006D02FF206D0A76E742466B0150018342BB
:1019C00019D21B220025013F01261C006D005B007F
:1019D000002C01DB984201D81B1A3543013A002A3A
:1019E000F3D15A1E93411D433B007F330E00002B61
:1019F00000DD41E7AAE71A2201251B1AE4E7AD0141
:101A000000206D0A4FE7C046E06A0008FFFFFFF7BD
:101A1000206B000870B5420045024E024C00C30F17
:101A20006D0A0120120E760A240EC90FFF2A06D075
:101A3000FF2C03D0A24201D1B54206D070BD002DCB
:101A4000FCD1FF2CFAD1002EF8D18B4206D0012018
:101A5000002AF3D12800431E9841EFE70020EDE76C
:101A600070B5420045024E024C00C30F6D0A120EC3
:101A7000760A240EC80FFF2A1BD0FF2C0ED0002A96
:101A80001BD1002C01D1002E1CD0002D0CD0834284
:101A90001CD00221581E0840013870BD002E22D1F2
:101AA000002AF4D1002DF2D10028F6D101204042C5
:101AB000F3E7002D17D1FF2CF0D0002CE7D1002E3A
:101AC000E5D1E6E70020002DE7D0E2E7A24205DC01
:101AD000EADBB54202D8E7D30020DEE743425841B3
:101AE00040000138D9E702204042D6E770B54200F5
:101AF00045024E024C00C30F6D0A120E760A240EE8
:101B0000C80FFF2A0BD0FF2C0DD0002A1FD1002CAC
:101B100016D1002E14D10020002D10D009E0002D88
:101B20000CD1FF2C13D1002E08D1002A08D08342FB
:101B300012D00221581E0840013800E0022070BD7A
:101B4000002DF4D10028FAD101204042F7E7002C03
:101B5000EDD1002EEBD1ECE7A24205DCF2DBB54281
:101B600002D8EFD30020EAE7434258414000013851
:101B7000E5E7C046F0B54F464646D6464402450026
:101B8000C0B5640A0F1C2D0EC60F002D00D18DE0CC
:101B9000FF2D00D192E00023802099469A46E40070
:101BA000C00404437F3D7802430A98467B001B0E25
:101BB000FF0F002B00D170E0FF2B00D186E04246E2
:101BC000D00080227F3BED180023D20402439046D0
:101BD0009C4631004B467940681C0F2B1CD8764A36
:101BE0009B00D3589F4639004446E2465346022B99
:101BF0000FD0032B00D1D7E0012B37D100200024D8
:101C0000C0052043C9070843E0BCBA46B146A84610
:101C1000F0BDFF200024F3E7260C2404220C4446E8
:101C20002404240C434627001B0C574374435A4397
:101C30005E4312193B0C9B189C4203D9802252022E
:101C4000944666443F041A043F0CD2199401671E5F
:101C5000BC411B0C920E9B1914439B011C431B019E
:101C600000D49BE0012362081C40144302007F3231
:101C7000002A64DD630704D00F232340042B00D027
:101C80000434230103D502004C4B80321C40FE2A51
:101C9000BFDCA401640AD0B2B2E74346002B3DD1B9
:101CA0004A4601331A4391469C4692E7002C29D1BB
:101CB00004239946033B00259A4674E7002C1BD168
:101CC00008239946063BFF259A466CE74346FF35B5
:101CD000002B0BD102234A461A4391469C4678E7D3
:101CE00053463100022B00D083E792E703234A4694
:101CF0001A4391469C466CE70C239946093BFF2505
:101D00009A4650E7200000F0B9FA7625431F9C4020
:101D100000236D4299469A462D1A44E7404600F04A
:101D2000ADFA4246431F9A4000232D1A90469C4626
:101D3000763D4EE780240021FF20E40360E7012385
:101D40009B1A1B2B00DD59E722009E30DA408440AD
:101D50001300621E94411C43630704D00F232340E9
:101D6000042B00D0043463011AD50120002447E776
:101D70008020C003044209D04346034206D14446B2
:101D8000044364023900FF20640A39E78020C0035D
:101D9000044364023100FF20640A31E7280065E74C
:101DA000A4010020640A2BE78020C00304436402DE
:101DB000FF20640A24E7C046606B0008FFFFFFF7BE
:101DC000F8B5CE46474643025B0A4E02DA00944617
:101DD000720A914645004A0080B52D0E1F00C40FBF
:101DE000120EC90FB609FF2A5BD0012041408C4278
:101DF00039D0A81A00285ADD002A6AD0FF2D00D158
:101E0000D9E08022D20416431B2800DCE9E001203F
:101E10006346181A430100D4B4E0800187093800F2
:101E200000F02CFA05388740854200DCCCE02D1A02
:101E3000B5483840430704D00F230340042B00D09B
:101E40000430430100D4A0E06A1CFE2D00D18DE0D7
:101E50008001470AD2B2D0053843E4072043C0BC12
:101E6000B946B046F8BDA81A8046002845DD002ACC
:101E700070D0FF2D00D19EE08023DB041E4343463B
:101E80001B2B00DCD2E00120604443017AD50135F0
:101E9000FF2D6BD001239D4A03404008104018439A
:101EA000C8E7002E20D08C4223D02800FF3800281D
:101EB00039D0571B002D00D09DE06346002B00D188
:101EC000DBE07B1E012F00D10DE1FF2F71D01F0041
:101ED00098E0002E00D1A7E0421E012800D1E6E0E4
:101EE000FF2868D010008FE701204140A14200D0B8
:101EF0007FE7FF2040428046A8444046002838D073
:101F0000511B002D00D1AEE0FF2A00D1DFE080237D
:101F10006046DB04184384461B2900DCD9E001201D
:101F200015008019B1E7FE206A1C104271D1002D06
:101F300000D0A6E06346002B00D1D9E00022002E9D
:101F400000D188E7981B430100D4E1E063460C0010
:101F5000F01A6FE7002E00D1B7E00200013A012825
:101F600000D19CE0FF2826D0904688E7FF2200277A
:101F700071E7FE206A1C104264D0FF2AF6D01500DB
:101F800066447008430700D056E7C308FF2D12D0FF
:101F90005B025F0AEAB25EE76246002A00D196E081
:101FA000002E08D08022D203134204D048461042AB
:101FB00001D10C004B46002BD8D08027FF031F43D4
:101FC0007F02FF227F0A46E720233A00451B3800A4
:101FD0000135EA405D1BA840431E9841002510438F
:101FE00028E720231B1A32009E40C2403000431EC7
:101FF000984110430CE7FF2ADBD080236046DB04C6
:10200000184384461B2F56DD01200C001500301AA2
:1020100000E763469F1B7B013DD4002F00D0FEE606
:1020200000240022002716E70500AFE732004346F0
:102030004146DA4020235B1A9E403000431E9841FF
:10204000104321E7002DA7D16346002B59D0002271
:10205000002E00D1FFE630006044430192D52A4BA8
:10206000013518408EE76346002B47D04B1E0129EF
:1020700015D0FF292BD019004EE70C004B463D0030
:1020800084E76246002A8BD1002E92D1802700245B
:10209000FF22FF03DFE663460C00F71ABFE63000BD
:1020A00060440125430100D46CE70225F2E6634653
:1020B0000125981BAEE6202364466046FC40DF1BEA
:1020C000B840431E984120439FE705005EE74B461A
:1020D00071E7202365466046CD40591A8840431E6B
:1020E000984128431CE763460C000125F01A91E64D
:1020F000002E95D00C004F460022ACE64B460D005A
:1021000044E74F460022A6E6FFFFFFFBFFFFFF7DEF
:10211000002800D036E7002400279CE64102420058
:10212000C30F490A0020120E7E2A03DD9D2A02DD1C
:10213000094A98187047802000040143952A07DC5B
:102140009620821AD1404842002BF3D10800F1E7D3
:10215000963A9140F7E7C046FFFFFF7FF8B50028A9
:1021600013D0C317C6185E40C40F300000F086F8C5
:102170009E2305001B1A962B0FDC082801DD083D65
:10218000AE407602760AD8B202E000240020002693
:10219000C0053043E4072043F8BD992B0CDD052230
:1021A0003100121AD1400A00010030001B31884072
:1021B000411E884102431600052D12DC31000D4FEF
:1021C0003940720709D00F203040042805D004316F
:1021D0004A0102D59F2339405B1B89014E0AD8B2C0
:1021E000D6E76A1F96403100024F39407207F4D09B
:1021F000E9E7C046FFFFFFFB70B5051E0ED000F0FB
:102200003DF89E2304001B1A962B0CDC082801DDE8
:10221000083CA5406D026D0AD8B201E000200025FF
:10222000C005284370BD992B09DD020029001B322F
:1022300091404A1E91410522121AD5400D43052CAA
:1022400012DC29000C4E31406A0709D00F202840CB
:10225000042805D004314A0102D59F2331401B1BBD
:1022600089014D0AD8B2DBE7621F95402900024E72
:1022700031406A07F4D0E9E7FFFFFFFB1C2101238F
:102280001B04984201D3000C10391B0A984201D359
:10229000000A08391B09984201D30009043902A237
:1022A000105C40187047C04604030202010101019E
:1022B000000000000000000070B500260C4D0D4C21
:1022C000641BA410A64209D1002604F099FB0A4D14
:1022D0000A4C641BA410A64205D170BDB300EB5894
:1022E00098470136EEE7B300EB5898470136F2E71E
:1022F000A06B0008A06B0008A06B0008A46B00088E
:1023000003008218934200D1704719700133F9E736
:10231000F0B5DE4657464E464546CA4CCA4BA44623
:10232000DA6FE0B518689346111AC84A89B211806D
:10233000614489B0C62900D9A3E059681C69081A0C
:102340004509D96898681E6A091A586949090191AE
:102350009160011BD8699C6949090291D160011BF8
:102360005C6A9F6A4809A11BDE6A4C09F61B710969
:102370001F6B07965E6B00955560F51B9F6BDE6BC0
:1023800003901061F61B186C5F6C04943F1A546143
:1023900076096C097F0991610594D46116625762D0
:1023A0009C6CD86C9D6E001B40091C6D844690622D
:1023B000586D001B40099C6D8146D062D86D001B92
:1023C00040091C6E80461063586E001BDC6E40098D
:1023D000641B64091D6FA24694635C6F9B6F641B52
:1023E00065095C460695E31AD563049C009D50631D
:1023F00065402C007C40E400A3466446019DC0007B
:10240000694061405C46039D8900754021432C0072
:1024100045466C402143029D059C5B0965402C00AC
:102420004D466C40640021435446A40020431843A9
:102430001364069B864C5B0003438648C9B2007850
:10244000DBB2002824D12578002D24D19025ED057C
:102450002D696D070FD544252C00555DAA46012531
:10246000AB46DA445546EDB2AA46250054465455CB
:10247000642C00D973E08B4212D05021535A01339F
:10248000535209B0F0BCBB46B246A946A046F0BDC7
:102490002478002CEFD00F24E31ADBB28B42ECD16E
:1024A00000216D4B19804631535A01335352434634
:1024B000012B02D14146694B1970009B01999B0287
:1024C00049020B4349460B430299079C09020B43FF
:1024D0000399F600C9010B430499BF0089010B431E
:1024E0001F218C43059923430D011D4363462E4351
:1024F00037435E0037432F2F08DD4823D35C002B82
:1025000034D1574C2778002F09D1BAE77B1E2E2BE8
:1025100016D80021534B524CFFB219802770524BF2
:102520001B78002BADD10028ABD04B33D15CB94226
:1025300024D0D754042F2BD949230121D154A0E70B
:10254000002FDED14A23D35C012B0CD000200023C6
:102550004449088042490B704921535491E70124B2
:102560003B4D2C7097E74733D754EFE73D4B3C4941
:102570001F8000230B704921535482E7042F07D991
:102580004921535C0133DBB25354052B00D878E763
:1025900049230021D154152F05D8344BBF00DB59F6
:1025A0009F4602F041FF2278314B1A7000232370BE
:1025B00067E7304B1A78304B1A70F4E72D4B1A78D6
:1025C00001239B1A2C4A1370EDE74C230021D154B0
:1025D0002A490233D152E6E74C230121D154E021AC
:1025E00002330901D152043BD35C012BDBD14821DA
:1025F0005354D8E700F0BAFCD5E70122204B1A70FB
:10260000D1E700221E4B1A70CDE70122194B1A7038
:102610000022194B1A701B4B02321A70C3E70022BA
:10262000144B1A700123144A1370164A1370BAE738
:1026300002F07EFEB7E702F093FFB4E702F0BAFEC5
:10264000B1E7C04681FBFFFF8C070020B0040020EB
:10265000A20600204C060020760600205806002026
:10266000A00600206606002027060020186A000841
:10267000A1060020BA050020FB000020FF0E00008C
:10268000BB050020640600204E213A48F0B5425AAE
:10269000002A39D0002413004452140A1109614061
:1026A0004A400F210C000D0094431B01324A234382
:1026B0001C13145D1D40555DE40383652C431D12FE
:1026C0001B110D400B40555DD35C4022AD022C43E5
:1026D00001255B011C43294B294F1E78C465731CDF
:1026E0009B00B600FA50B81941682D3A2B00934070
:1026F0002340D34089095940890181600430013A5F
:10270000F4D20023BB51F0BD1E4B1B78002B19D017
:102710001D4B1B68D913012917D0991301291CD00F
:10272000591301291BD0191301291AD0D9120129D3
:1027300019D09912012918D05912012917D04265D0
:102740009AB2AAE7114B104A13600F22083A1341BC
:1027500051020B4342659AB29FE70E22F6E70D2223
:10276000F4E70C22F2E70B22F0E70A22EEE7092257
:10277000ECE7C046B0040020706A00088207002021
:10278000100500202706002018060020FFFF00008B
:1027900010B51C00884200DA08001300824200DDF8
:1027A000030002985B1A001B5843511AFEF73EFDC6
:1027B000001910BD0300401A00D5C81A7047C04662
:1027C0000023034A5362536A8342FCD37047C046D6
:1027D0000048014000230121084A5362084B9362DC
:1027E00053690B435361536A8342FCD33023012165
:1027F000936253690B4353617047C04600480140E0
:1028000080BB0000F0B5DE4657464E4645461023D5
:10281000E0B58BB01022002106A89946FFF770FDA5
:102820008021344C8902626901270A43626163692D
:1028300080220B400393039B012312020492059311
:102840009023DB05180004A99846079703F0BAFE09
:1028500080231B029B4643465A4680269A610021EC
:10286000102206A8FFF74CFD6369F602334363614B
:102870006369082233400293029B01231E4D04A981
:10288000280004920593079703F09CFE082310226A
:102890000021AB6106A89A46FFF732FD636910225A
:1028A00033436361636904A91E400196019B0123C0
:1028B000280004920593079703F084FE4B46AB6112
:1028C0000E4B0F4A1968914203D01A605A68002AC9
:1028D00006D00BB0F0BCBB46B246A946A046F0BD40
:1028E0001A815946424691625246AA614A46AA61F5
:1028F0009F72EEE70010024000040048A40500208B
:10290000806A0008214B30B5DA6858680132041E2D
:10291000DA6028D019699D7A511AA94222D31A6126
:102920001A89013292B21A81A25C002A05D11A8159
:10293000002801D01C685A60227891061FD590218A
:102940008020C90500028862510614D5082010496C
:10295000886251B200290ADA10200D4988621F21CD
:102960000A409A7230BD1C68002CFBD0D2E71020C0
:1029700007498861F3E7082005498861E9E7902164
:102980008020C90500028861DEE7C046A40500205A
:10299000000400480B4B0C4A1968914203D01A609E
:1029A0005A68002A00D070471A81802190220902BB
:1029B000D20591620821054A916108319161012295
:1029C0009A72F0E7A4050020806A0008000400481D
:1029D0000C4A0D4B11680433994203D013605368BD
:1029E000002B00D070471381802190230902DB0562
:1029F00099610821054B996208319961012393720D
:102A0000F0E7C046A4050020806A000800040048E2
:102A100010B500280BD10021154A2030154B1C6839
:102A2000A24203D01A605A68002A05D010BD104A8D
:102A3000402100200432F1E71A819022D2050028BB
:102A40000DD18020000290610B4A00290DD0082191
:102A500091621021084A916101229A72E6E7802072
:102A600000029062044A0029F1D108219161F0E747
:102A7000806A0008A4050020000400480C4A0D4BA1
:102A800011680833994203D013605368002B00D0BB
:102A900070471381802190230902DB059961082189
:102AA000054B99620831996102239372F0E7C046A1
:102AB000A4050020806A0008000400480A4A0B4B65
:102AC0005168103399420ED0536000238021138146
:102AD00090230902DB0599620821054B99610831B1
:102AE0009962032393727047A4050020806A00084E
:102AF000000400480A4A0B4B51681C3399420ED01F
:102B0000536000238021138190230902DB05996122
:102B10000821054B9961083199620323937270472C
:102B2000A4050020806A0008000400480A4A0B4BF4
:102B30005168283399420ED05360002380211381BD
:102B400090230902DB0599620821054B9961083140
:102B50009961022393727047A4050020806A0008DF
:102B6000000400480A4A0B4B5168303399420ED09A
:102B7000536000238021138190230902DB059961B2
:102B80000821054B996208319961012393727047BE
:102B9000A4050020806A000800040048BFF34F8F9E
:102BA000034B044ADA60BFF34F8FC046FDE7C046CF
:102BB00000ED00E00400FA05F8B5902502F050FEA3
:102BC0003022FA20FA240427ED05EB6880009343B5
:102BD000103A1343EB60FFF7F3FD114EA4002B698D
:102BE0001F4212D133880A200133013C3380FFF7A2
:102BF000E7FD002CF3D190223021D205D3688B431E
:102C0000D3603388052B07D9F8BD0A20013CFFF7B4
:102C1000D7FD002CE3D1EEE701F01AFFFFF7BEFF6E
:102C2000B8050020F0B5CE46474680B5BE4CB02270
:102C30002000BE4983B003F071F8637CBC4E013BB9
:102C40005A425341B370A37C013B5A425341F37043
:102C5000E37C012B00D13371237DB64D013B5A42F9
:102C600053412B70637D013B5A4253416B70A37DEE
:102C7000013B5A425341AB70E37D032B00D9022341
:102C8000EB70207E0300083B282B5CD8103B182BF0
:102C900000D81FE103000C3B0B2B00D828E10300F8
:102CA000083B032B00D831E1A888A34BD862E88009
:102CB0002881637E9846323B642B4DD84046FA21EA
:102CC000AB882D30C0B25843C9009946FEF7AEFA22
:102CD0004346FA2187B258084B460F305843C90083
:102CE000FEF7A4FA80B203000A33AB812822E88100
:102CF0002F82A37E0520534314336B82E37E2B7512
:102D0000237F013B5A4253417371637F013B5A4217
:102D10005341B37102F06CFA6378002B1FD16C8AB7
:102D20009621864B20000093854A864B4900FFF789
:102D30002FFD2B786886002B00D1F37003B0C0BC48
:102D4000B946B046F0BD804B7B4A6B81D362637E4F
:102D50009846323B642BB1D955209627C6E7A07F11
:102D60000B2800D8B3E0052002F042FAE37F774950
:102D7000013B5A4253412022F371A35C8C467833C5
:102D8000FF335B00EB822123E35C714963445B000A
:102D90002B8322238C46E35C63446B832323E35C15
:102DA0002B772423E35C013B59424B4133722523AB
:102DB000E35CFA33EB832623E35C013B59424B414E
:102DC00073720023B3722833E35C591F142900D8AF
:102DD000AB542923E35C5A1E092A01D82122AB54A3
:102DE0002A23E25C531E082B1AD82223EA545301EB
:102DF0009B1A9B009B1A23225B003D3BDBB2AB542A
:102E0000627E991852089A18EA81AA8C29829A1827
:102E1000AA84EA8C9A18EA84474A516C0B4353649B
:102E20002B23E35C1A00463A462A01D82822AB54E9
:102E30002C23E35C5A1E622A03D85B006B850123B6
:102E4000F3722D23E35C5A1E092A01D82C22AB54BD
:102E50002E23E35C092B0AD8022B61D02DD8002B3E
:102E600006D0012B09D13B4A3373137005E00023D0
:102E7000012233737373374B1A7096236C8A5B008D
:102E80009C4202D20022FF3BEA54297D2020FEF71B
:102E9000CDF9642107002000FEF73EF9390080B229
:102EA000FEF7C4F91121E8852000FEF735F9390055
:102EB00080B2FEF7BBF9288632E7042BDDD101236F
:102EC0000021254A33731370224A1170D5E702F0AE
:102ED0008FF94BE7214B3022009318211A4BFFF753
:102EE00057FCA880207E03000C3B0B2B00D9D6E6B4
:102EF000154B182200930C21194BFFF749FCA880B1
:102F0000207E0300083B032B00D9CDE6154B102291
:102F100000930721144BFFF73BFC80B2A880C4E666
:102F200001237373A9E7C046A4060020007C0008B3
:102F3000B8050020C0000020002C0140E204000081
:102F4000B80B0000C4090000CF0700006B030000AD
:102F50005E050000F8040020FA040020E7030000EA
:102F60009E0F0000B50B00006D170000342210B555
:102F7000144B154815499A5C42708A78013A5442BC
:102F800062414274CA78013A5442624182740A79B9
:102F9000013A51424A41C2741A78013A51424A41B7
:102FA00002755A78013A51424A4142759A78DB7863
:102FB000013A51424A41C3758275B021044A02F078
:102FC00025FE10BDC0000020A4060020B80500208A
:102FD000007C00081549164B8C4680211A68154B59
:102FE000C9011B686344DB0099400E330A40DA4094
:102FF00038211300104A515C002907D0002B07D15B
:1030000052220E498B5C01338B547047002BF7D151
:1030100053200A490B5C0133DBB20B541A38125CA3
:103020009A42F2D252230022CA54EEE7E4FFFEBFD6
:103030001C00014084040020C0000020B8050020CE
:10304000F8B53A265422554D554CA95DE88E4F1ED1
:103050007B00E3189852A35A2200543250881B1860
:1030600090881B18D0881B18108952891B189B1830
:103070005B1023663B23E85C01282FD0F8B20028C0
:1030800024D00123A85519403823E9546523E35C73
:10309000002B31D002F082FDFA23A26EDB009A42AF
:1030A00006D9A379627A134302D06C230122E25439
:1030B00000235222A3541B32A3546E33E35C002B33
:1030C00003D06F23E35C002B1ED1F8BD0623012241
:1030D000AB555E3306200121E254D5E70131C9B278
:1030E00006290CD802000800A9550A403823EA54E2
:1030F0006523E35C002BCDD101F0EEFCCAE764232D
:103100000122A855E054F1E77023E05A236E696D5F
:103110006A6C181A0B185343EA6CE8639446EA6D1C
:103120006344EB64934201DD1300EA6452429A4225
:1031300001DD1300EA64421AA96C68654A43296CF0
:103140002A6548438018C0182B6EA865984201DD97
:103150001800AB655B42834201DD1800AB65FEF7EA
:10316000FDFF1049FEF73EFB616FFEF79DF90E4F24
:10317000061C391CFEF76CF9002806D10027301C0C
:10318000391CFEF751F9002806D06767A36F632B3F
:103190009BD80023EB6498E76667F7E7C000002040
:1031A000B805002000401C4600E0FF440121154AFC
:1031B00070B5D368144D8B43D360EA8E134C530023
:1031C0009B187C22A25A9B189B10EB86FFF738FFB6
:1031D000EB8EEA78D9084A437E2192B25B089B1AAB
:1031E00062520B4A13806C23E35C002B06D0A36F62
:1031F000084A934201D80133A36770BD02F0C4FCB2
:10320000F5E7C04600200040C0000020B8050020BF
:10321000380600200F27000070B53E4DAB6E7D2BA9
:103220003CD83D4C8023DB055A6A7C23EA52443B60
:10323000E35C002B19D06423E55C002D4DD0374BA7
:1032400080201968364BC0019C466144C900884003
:103250000022344E0E3102E00132AA423DDA3368D8
:103260000340CB40012BF7D170BD6433E55C002DEA
:1032700033D02A4B80201968294BC0019C466144F9
:10328000C90088400022274E0E3102E00132AA42D6
:1032900023DA33680340CB40F8D1E5E78023DB0530
:1032A0005B6A7C2B05D896231F4A9B0052889A4262
:1032B0002AD38023184CDB055A6AE38E5B089A42B6
:1032C000D2D3194A13790133DBB21371642BA9D914
:1032D00002F04CFC0023AB67C6E702F047FC8023FA
:1032E00000216520104ADB055962205C13880341E8
:1032F00013800E4A1B041B0C5162D3621161D36808
:1033000001310B43D360AFE7AA6F643B9A42D0D23E
:10331000AAE7C046B8050020C000002084040020B1
:10332000E4FFFEBF1C0001403806002000200040E2
:10333000F0B5D6464F464646FA21B64CC0B5E588AC
:1033400082B00135ADB22800E5808900FDF76AFF43
:1033500089B2002900D1C0E1AF4B9D4218D90823A2
:10336000E65E3000FEF7FAFEAC49FEF73BFAE16894
:10337000FEF79AF8AA4DE0602B78022B00D1DEE12F
:10338000032B00D17BE2012B00D16FE20023E3800D
:10339000237D627D134303D1A27D002A00D0DBE1AF
:1033A000A04DEB79002B00D084E19F4E2123E35CFC
:1033B000002B00D0E7E02A79608C93009B181B015A
:1033C0002E33834200DB4AE1237D002B00D19AE1BA
:1033D0006F27EB5D002B00D14CE3F389002A00D16D
:1033E0008EE2B28889210092904AFFF7D1F983B228
:1033F000984663800A21E088FDF714FF89B200290E
:1034000050D1EB7A002B00D09BE2AB79002B49D056
:103410006F23EB5C002B45D0854F7B8AF08EF96AD9
:10342000FA69C01A0B1853437A6A786194467A6B2A
:1034300063447B62934201DD13007A6252429A42F6
:1034400001DD13007A62421A396AF8624A43B969A7
:10345000BA6248438018C018BB6B3863984201DDDC
:1034600018003B635B42834201DD18003B63FEF7BB
:1034700075FE7049FEF7B6F9A16AFEF715F86E4BB6
:10348000071C191C9846FDF7E3FF002808D100230C
:10349000381C191C9846FDF7D1FF002800D176E3AF
:1034A0004346A3626B7A002B00D0CFE06522AB5479
:1034B0002A79618C93009B181B012E33994200DC02
:1034C000CDE0237D99461423AA791341AA6F934234
:1034D00000D9BDE1638898463389434501D29846B7
:1034E0006380EB7A524F002B06D01022BB5E9845CA
:1034F00002DD9BB298466380A36A0021181C9A469D
:10350000FDF7A6FF002806D05046FDF7B5FF404462
:1035100083B2984663803E23FB5C002B1FD0FA23C6
:10352000AA6E5B009A4200D9FFE1D73BFF3B9C4665
:103530001E221E203F2178544146A38CC91A914275
:1035400000DCE7E163449BB298466380FA23F28E85
:103550005B009A4200D9EFE165230022F2544B460A
:10356000002B00D099E16F33E85C4300C3181801C9
:10357000C01A43467789A384304B80B2E086DF626D
:1035800058639863D8630321286EFDF74FFE6423C8
:10359000EB5CA866002B03D0AB6F0A2B00D9A0E030
:1035A000C823F28E5B009A4222D9C221FF20244A0E
:1035B000890053581B021B0A53500431535883434C
:1035C000BF3803435350E38F1E4A01339BB2E38756
:1035D000934207D9257D002D00D037E21A4A934245
:1035E00000D91EE202B0E0BCBA46B146A846F0BD22
:1035F000C2208021124A80001358C9051B021B0AF1
:103600000B43C3211350FF20890053588343535069
:10361000D9E7C04638060020102700000000B44358
:10362000FC040020B8050020C0000020FF070000B7
:103630004001002000401C4600001643002C0140C1
:1036400000E100E088130000A86100002A799300DF
:103650009B181B01628C2E33934200DAD4E02C2796
:10366000E35D002B08D0012B00D12BE2022B00D10F
:1036700025E22C230022E2543378002B00D07FE097
:1036800063806F33EB5C002B00D013E16C220121CF
:10369000AB676B79A954002B00D009E16523EB5C83
:1036A000002B00D112E26B7A002B00D00AE1237DBF
:1036B0009946B0E06622CB4EE38BB15C01338A00C1
:1036C0009BB25218E3835200934200DC6EE6202343
:1036D0000122E2540023E38368E6FFF713F9E5884B
:1036E0003AE60100A06BFFF765F8AB6E5A0890420E
:1036F00004D9FA22D200934200D2CBE16422002105
:10370000A363A9544CE76533EB5C9946002B00D1C9
:10371000D9E66388B18898464B1C4046994677891C
:103720007843FDF783FD4B46181A80B2E086434686
:10373000A384AD4BDF6258639863D86323E73221DB
:10374000F0B2FDF7E9FCC3B2C020C0001843A74B9C
:10375000188003232B7019E6228B002A00D0E9E0A1
:10376000638BA34901339BB263838B4200D817E676
:10377000A38B1E2B00D9C2E19E4DA275628310E679
:103780006F23EB5C002B17D10122904641466B3230
:10379000A95400226F796380AB675333EA54002F3A
:1037A00000D13AE12B79002B00D192E1207D431E1C
:1037B0009841C0B2FFF72CF93A233C22B421F35CC4
:1037C0008D4F013B5343BA8F49009B189AB21BB2ED
:1037D0008B4200DB8FE023861300B42177331BB2CA
:1037E00049008B4201DB1300F13B63861300B421D7
:1037F000EF331BB249008B4200DB79E0A3862B79C3
:10380000012B01D12122A3546523227DEB5C91463B
:10381000002B00D157E64B46002B00D179E76F23F0
:10382000EB5C002B00D174E7638C2F2B00D870E782
:103830007378002B00D0E5E077896388B1881800A1
:1038400078439846FDF7F2FC013080B2E0866EE7DF
:1038500063889846338A984501D298466380F38CF2
:10386000434500D338E69846638035E68023227CC2
:103870009B0013435D4A138002232B7086E51921B8
:10388000608AFDF749FCFF2303408020C0001843F5
:10389000564B188001232B7078E56F23E85C0028D5
:1038A00000D162E6638C2F2BC2D8638898465CE611
:1038B00001F068FA6B7A002BA6D06523EB5C002B35
:1038C00000D1FEE5FA20E18D8000FEF773FFFA23B8
:1038D000FA229B00C3189BB26380D200934200D1AE
:1038E0003AE101F075F86523227DEB5C91468FE7A4
:1038F000793AA28683E7693AFF3A92B222866BE769
:10390000B2882F2100923D4AFEF742FF83B29846CB
:1039100063806FE54146591A914200DC1CE662461D
:103920009B1A9BB29846638016E60A230A229C469D
:103930000A20FFE5638333E50122903BFF3BF2540D
:103940000DE66F23EB5C002B00D1ABE56420082271
:10395000A35E728D5043181A8023F158326F0B18F2
:103960005343B26FB06694468822B2586344B3673B
:10397000934201DD1300B26752429A4201DD130007
:10398000B267421A716F4A4380217050F16EF2673C
:1039900048438018C0188C238422F358B0509842B2
:1039A00001DD1800B3505B42834202DD842218001F
:1039B000B350FEF7D3FB1249FDF714FFFEF7AEFB41
:1039C0000D4FF2893B8A1B1A1BB23B82934201DAEC
:1039D00013B23B82984500DAD3E0AB79002B00D1DB
:1039E00060E51AE5C0000020002C0140FE04002024
:1039F00010270000B805002040010020FF0700004C
:103A000000401C46B288F08E530800926021C82204
:103A1000FEF7BEFE87B277810FE701F019F86780E5
:103A2000C4E601F015F880225A4B25756584A5750A
:103A3000A5835D639D63DD63574B00219D625748FD
:103A40005D625200FEF75CFCFFF7A8F801F000F899
:103A5000002180224F4B21756184A175A183596398
:103A60009963D9634C4B520099624C485962FEF7F6
:103A700047FCE9E700F0ECFF6C23EB5C002B35D052
:103A800001226F23EA54338AA384FEF7F7FF2A79D1
:103A9000608CA2E43C21635C0022013363546F23F9
:103AA000AA67EA54033B0132EA54FFF75BF8AB6FB5
:103AB000642B21D8AB6E328A5208A2841EE601F034
:103AC0001DFDD6E501F0E8FCE35DCFE500F0C0FFA9
:103AD000F0E62133F35CB2885B00133A9B186380F5
:103AE00000F076FF65234246EA545FE6EB5D002B6B
:103AF0003CD002F049F8C3E7294BAB66DBE7012372
:103B00002375FEF765FF637D264D002B2BD12B7AA5
:103B1000002B28D0B921678A49003800FDF7FCFA4C
:103B2000B923002660755B009F420DD31E4B1F4FCB
:103B3000984601F079FC6420FEF74CFE43461F6076
:103B4000637D0136B342F4DC6B7B002B01D0FFF7C1
:103B500028FC6B72FFF725FC01F014F96523227D28
:103B6000EB5C914654E601F05FFCEDE7FFF768FA85
:103B70000F4B0B4AF3868023DB055A620123EB557A
:103B8000B7E743463B82FEF799FFFFF73EFCA7628B
:103B900088E4C046002C0140004001408C07002012
:103BA00088130000B805002000300040AAAA0000D9
:103BB00010270000F0B5D6464F4646463B23C0B519
:103BC0004749C85C474B00281AD1B4241A8E6400B8
:103BD000013212B2A24260DAB4205D8E1A8601353B
:103BE0002DB24000854261DA5D86B4209C8E400093
:103BF000013424B2844214DB00200024988611E0B2
:103C0000188E013802B200045DD4588E1A8601382D
:103C100005B200044ED4988E5D86013804B20004CB
:103C20005AD49C86402330488F88C35A5200994604
:103C30002C23CE5CFA212D4BC9009A46D05E6D0034
:103C400048447843FDF7F2FA0A217043FDF7EEFA93
:103C5000274BFA21984658635346E85EC90048440A
:103C60007843FDF7E3FA0A217043FDF7DFFA434694
:103C700098635346FA216400E05EC90048447843E3
:103C8000FDF7D4FA0A217043FDF7D0FA4346D86312
:103C9000E0BCBA46B146A846F0BD1886B4205D8E99
:103CA000002201352DB2400085429DDB0020002519
:103CB00058869AE76825988EFF3501385D8604B2EC
:103CC0000004AED508E06822588EFF3201381A860B
:103CD00005B200049FD5EDE76824FF34A1E7C04694
:103CE000C000002038060020400100209C01002078
:103CF000002C0140F8B580257C22ED056B6A1E4E34
:103D00001E4FB35200226A62FA8E1B0450008018C4
:103D10001B0CC01842231A4A801084B2D15CFC8666
:103D2000FDF784FA7E2380B26208F052121A154B16
:103D300092B21A806B6A9A42FCD8FFF781F900238D
:103D40005222B3540132B354B36FB279717A013352
:103D5000B3670A4302D11E2B07D8F8BD132BFCD939
:103D6000FA23FA8EDB009A42F7D86C230022F25431
:103D700001F00AFFF1E7C046B8050020C0000020AE
:103D80004001002038060020F0B5DE4657464E467A
:103D90004546E0B5012485B001F0F8FF02F0FCF9DA
:103DA0001021E44B1A6A22431A621A6A0A431A6201
:103DB0008022196A52000A4304211A621A6A0A43CD
:103DC0001A621A6A3C310A431A628022196AD200C6
:103DD0000A431A628022196A52010A431A62642253
:103DE0001A641A6822431A608022596C12020A432C
:103DF0005A645A6922435A61CF4B1A6A22431A62A3
:103E00001A6822431A60FEF7FDFCCC4B1A68224365
:103E10001A605A6922435A61DA682243DA60DA6822
:103E2000A243DA60C64B1A6822431A605A692243D9
:103E30005A618023DB051A6822431A605A692243BB
:103E40005A61C04B1A6822431A605A6922435A6168
:103E5000DA682243DA6001F051FC01F0F5FB01F071
:103E600023FC0023B84A03931368B8491C43B84B9A
:103E700014601868FDF750F90301181A0A21800030
:103E8000FDF74AF90390039B002B05D0039B013BF0
:103E90000393039B002BF9D1FEF7C4FEAD49AE4856
:103EA0000B78C2789A4201D100F088FDC3704B783C
:103EB0000C2203710231053002F098FDFFF756F82D
:103EC000A64DA74E2B79002B01D000F065FDA54B28
:103ED0009B46AB78FA21013B5A1E93413B22B488A2
:103EE000F08CB354C90060437481FDF79FF923231C
:103EF000FA21F35CC9001B18B08CF3846043FDF712
:103F000095F93378B084F480002B00D12B716B7A53
:103F1000002B14D0FA239B00B384002301222D210F
:103F20002B7173703370B370F389EA703233F3819D
:103F3000B38972543233B381338A3233338201F01E
:103F4000F7F90023884CA38301F0DAFF874B884AF6
:103F50001A60FEF731FE01F0ABFC4023E35C002B5E
:103F600002D06E230122EA54824A8021136849015B
:103F70001B051B0D1360636400231268120C8A4238
:103F80005B41A264E5225B429343E633993AA35432
:103F9000764B774A1A604D22A35C0133DBB2A354FF
:103FA0000A2B00D889E0634B0321D86B4000FDF752
:103FB000B3F85B464622013080B29852738998422A
:103FC00002D9594618008B525A4B4C2218644E2382
:103FD000A25CE05A801A80B2E052674B1B88984678
:103FE000664B190058439946FDF796F84346C31AA5
:103FF0009800C018624B000119884346C91AFDF7A2
:1040000015F950231E3080B2E052237C5D49DA005E
:10401000D31A1B18DB1023745223E05A4B46584323
:10402000FDF704F95A464823D35C64215843FDF751
:10403000FDF8628ACD21D3009B1AC018C310638299
:104040009846636D89009801C01A5823E35AC01836
:104050004B46800960655843FDF75EF803B20204E1
:1040600000D50023484A4949238193680B40042125
:104070000B4393602B7A002B1CD0627DF38B534350
:1040800042461004000C834200DCD5E25A23E25A77
:10409000013292B2E252393BE15C8B055B1ADB00E4
:1040A0005B185B015B1A3A499B008C4663449A4259
:1040B00000DD64E34D230022E25400232371EB78FA
:1040C0002A7B012B00D160E1002A00D036E2E08D8E
:1040D0002083FA22AB6F9200934200D9FFE00028C0
:1040E00000D1E9E1642B00D9FFE02B799846002B41
:1040F00002D09F2800D8E0E05E23E35C9C46002BC2
:1041000000D1E2E0C8235B00984200D2E7E15A46C2
:10411000473BFF3BD25C5C2367469946E15C083332
:104120007B4301335343994234DDB378002B00D0F5
:1041300076E22FE0002C01400040014000200040CA
:1041400000480140001000401C000140400D0300E9
:1041500090040020C0100008A4060020B80500202C
:10416000C000002040010020380600200030004040
:10417000AAAA000000580140B8F7FF1FE40C000095
:10418000C2F7FF1FFF0F000000240140E8FFFF7F80
:10419000204E00004346002B00D1ADE01D2800D981
:1041A00010E2002363842023F35C9900C91889007E
:1041B000884200DB12E22123E35C002B39D0638CC0
:1041C000302B00D8BBE0227D002A00D1B7E0313B84
:1041D000572B00D9E4E264239946E35C002B00D01E
:1041E00037E3FFF7E7FC337DCC4819009946FDF72C
:1041F0001DF8638C80464946C9489A46FDF716F873
:1042000043463021782200905046FEF7C1FA5623EB
:104210005A469846D0520004000CFEF7D1FA4346A5
:104220005A469620D15A8000FDF700F86023E052EC
:10423000AEE6296EBB48FCF7F9FF6F23EB5C0A2161
:1042400058434300C0186023400080B2E052FCF79E
:1042500063FF622380B2E052353BF35C002B00D059
:10426000D5E12823207CF15C884200D9C4E1AB6F02
:10427000632B00D93FE1F38E64220C210C20B15452
:10428000632B03D8642302220220F254FA23728A99
:104290005B009A4203D2913B4000FF3BF0546C23F9
:1042A000EB5C002B00D1A2E06F23EB5C002B00D075
:1042B00088E08023DB055B6A6AE65C230022E25427
:1042C0000233E35C002B00D009E1952800D80BE114
:1042D0004A230A225946CA5400239C461BE75C2302
:1042E0000022E254002800D158E1C72800D9FCE69A
:1042F0005C230022E254F8E66E23EB5C002B00D135
:104300005EE14023E35C002B00D0F7E16B6F864950
:10431000181C9846FDF79CF8002800D1A9E1834BB2
:10432000638440468249FDF77FF8002800D142E7C8
:10433000302363842123E35C002B00D179E7012340
:10434000984642466333E2546B79002B00D14CE12E
:104350002123B188F05C0B004000133BC0184B1CBC
:104360009946738980B260805843FCF75FFF4B46E3
:10437000181AE08600F02CFBE28E6E4B5A639A63AB
:10438000DA6365234246EA5402E6002A00D0D8E008
:10439000697A002900D171E1E18DFA208C46317FE4
:1043A000800049000818844551DDA97889463B21E1
:1043B000775C4F4500D189E26523EB5C002B38D058
:1043C000208B86E601F0D2FBFEF704FE6D23EB5C4A
:1043D000002B0CD13833F35C002B00D177E1522352
:1043E0005946EA5C0233CB5C9A4200D977E18023DC
:1043F000DB055A6A504B9A4200D8C9E56F239946AB
:10440000EB5C9846012B00D0C2E55C22A35C013333
:10441000A35401F0ABFB6C234246EA54638C2F2B70
:1044200002D800234A46AB540023AB67FFF762FC77
:10443000AEE5FA223D4B0100009360462F23D200E7
:10444000FEF7A6F9E38D317F9C4620834900FA22CE
:104450009200521A62451FDD3B23F05CA978814629
:104460000120471AB94500D138E22A33EB5C002B12
:10447000A6D12F230021604600932C4BFEF788F92C
:10448000E38D317F9C46FA2380B249009B00208354
:104490005B1A9C4500DA1CE6FA239B0098464144CF
:1044A0008C458DDC00230022FA2123836533EA54F6
:1044B000AB6F89008B426FD85C220021A154227D12
:1044C000002A00D0BCE02B799846002B6FD05C23EB
:1044D0000022E2540233E35C002B04D000205C2372
:1044E0000022E25456E600204A2364225946CA5468
:1044F00000239C460FE6FA22F38E5200934200D925
:10450000BAE60A2300936421073BA86EFEF740F940
:104510006423C0B2F054F38EB2E6C046581B0000CC
:104520002A030000A086010000E0FF44FF0700000E
:1045300000004042002C0140C8AF0000002B00D119
:10454000C5E58323E28DDB009A4200D37DE01300B2
:10455000303B9BB2FA2189008B4210D23B21715C27
:10456000A8788C460121091A8C4500D15BE14921CC
:1045700058465B00415C9BB25B1A2F3323832F2A82
:1045800000D91DE700230022FA2123835D33E25482
:10459000AB6F89008B428FD95C23E254237D002BC3
:1045A0004ED15C22A3542B799846002B8FD15E23E9
:1045B000E35C9846002B96D00023002098468EE7B7
:1045C0006084F8E51E2800D1EDE52023F35C9A0015
:1045D000D21892001100904200DA86E0D44AA0235B
:1045E0000092FEF7D5F86084E5E5D24A5363936301
:1045F000D36300F02DFACBE40A000127F3880A32D6
:104600005B080A390097FEF7C3F830812FE6F78878
:10461000B38C328EF18D0097FEF7BAF8308120E628
:1046200000F016FA01F0A2FA00234A4663846633CA
:10463000A354FEF75FFABEE55A230022E25239E5A1
:10464000FEF7C6F9AB6F208B4CE53B21AB78715C74
:10465000994200D1DDE049205F46B74B385CD11864
:104660001300490089B2091A303B2F319BB22183D4
:1046700070E74046FCF700FF608452E6E38D327F2E
:104680009C46FA2352009B00D1188C4555DD3B22F5
:10469000AB78B25C9A4200D129E1FA22A44B604681
:1046A0000093D2002F23FEF773F8E38DFA229C4685
:1046B000337F92005B002083D21A624543DCFA22EA
:1046C000920090464344634500DA79E65AE7522364
:1046D0005946EA5C0333CB5C9A4200D887E66D23E7
:1046E0000122EA54FFF706FB81E6A0231E21009376
:1046F000713BFEF74DF86084208B54E58C4A5B4695
:1047000091465A46126DDB6C2F2100924A46FEF705
:104710003FF801008948FCF789FD317D4908FCF725
:1047200085FD7023E852238B2E2B00D985E043466C
:104730006384F36300236B67FCE5FA239B009A1AFA
:10474000944500DB1EE73B23A978F05C3A3B5B1AFB
:10475000984200D1FAE02F23604600930021744B69
:10476000FEF716F8E38DFA229C46337F80B25B0099
:1047700092002083D21A944500DAAAE49FE700232E
:104780009946638400F064F901F0F0F94A466F231A
:10479000A283EA542275FEF7FDF8FEF7C7F989E413
:1047A00064230122E254FFF705FA638CC82B00D979
:1047B00084E056235A46D05AFEF702F83022A35E10
:1047C000002B01D0FFF7E4FB21226F21A354203AF4
:1047D0006A5403396A548021594AC905F286AA6687
:1047E000A2634A620A22AA675B32AB545A46583324
:1047F000D25C1E3BF254AB79002B01D0B389F3811C
:10480000FEF71EFC01214B4A53690B435361FFF72E
:10481000BFFBF18E728E91422ED82122A25C002A1B
:104820002AD1E285AEE6F28E738E9A4235D82123E4
:10483000E35C002B31D1E385A4E66B6F4149181C82
:104840009846FCF705FE002800D112E74B4663842A
:1048500067E501213C4AD3688B43D36001F086F9B8
:1048600000229046334B5A639A63DA6300F0CEFA23
:104870004B464246E254B4E40122D31A3B22B354DD
:10488000002398463A3AAB676C33EA5401F06EF96C
:1048900042465D23E254E28DDDE600230122984684
:1048A000AB676C33EA54313BF05401F05FF95D23A0
:1048B0004246E254E28D1300303B58E6002350227A
:1048C0005946238656335020CA5275E722836F32E9
:1048D000AA5C002A57D06522AB5471E56F27EF5DC3
:1048E000002F54D06523E8540023238368E5F08E1D
:1048F000728E904203D82122A25C002A59D0012254
:10490000D31A3B22B354002398463A3AAB676C3330
:10491000EA5401F02BF95D234246E254E38D317FE6
:104920009C46FA239B00984649004144B5E6C046A0
:10493000FF070000002C0140E8FBFFFF0087930306
:104940002823000000E0FF4400200040F08E738E1A
:10495000984203D82123E35C002B25D000230122B9
:104960009846AB676C33EA54313BF15401F0FEF8E2
:104970005D234246E254E38D327F9C46FA23520087
:104980009B009A1AE7E60123DB1B735414E5F154EC
:1049900065232783EB5C6AE50C4B9B4644235A4610
:1049A000D35A3382FFF795FAFA2080008446E085D7
:1049B000D1E6FA2080008446E0856EE64C780279E4
:1049C000944201D0FFF772FAFFF77AFA4001002013
:1049D0009023DB051A6819490C20114080225203EC
:1049E0000A431A608022D2009A621A681449114060
:1049F0008022D2020A431A60802292009A621A68C8
:104A000010491140802252020A431A6080220E4946
:104A100052009A620A688243043802430A600A68B4
:104A200005388243013802430A601A680749114079
:104A3000802212020A431A607047C046FFFFCFFF70
:104A4000FFFFF3FFFFFFFCFF00040048FF3FFFFFF5
:104A50000C211C4A1C4813688B4308390B43136014
:104A6000022393629023DB051968084080214903E3
:104A70000143196080210320C900996211688143B4
:104A800002380143116090621A6810491140802277
:104A9000D2020A431A60802292009A621A680C4974
:104AA00011408022D2010A431A6080229A621A6859
:104AB00008491140802252020A431A6080225200A3
:104AC0009A62704700040048FFFFCFFFFFFFF3FF2B
:104AD000FF3FFFFFFFFFFCFF10B506283FD8A24BAA
:104AE00080001B589F46A14BA14A1B78002B00D089
:104AF0002DE10C2113688B4308390B43136002230B
:104B000093629023DB051A689A49032011408022A2
:104B100092030A4396491A600A68824302380243A4
:104B20000A6088621A68944911408022D2020A43BE
:104B30001A60802292009A621A689049114080227D
:104B4000D2010A431A6080229A611A688C49114086
:104B5000802252020A431A60802252009A6210BDDB
:104B6000824B834A1B78002B00D0E3E00C211368B2
:104B70008B4308390B431360022393629023DB05B8
:104B80001A687C4903201140802292030A43784925
:104B90001A600A688243023802430A6088611A6810
:104BA000754911408022D2020A431A608022920085
:104BB0009A621A68714911408022D2010A431A6030
:104BC00080229A62C1E70C21694A6A4813688B43C4
:104BD00008390B431360022393629023DB051968A5
:104BE0000840802149030143196080210320C90046
:104BF00099621168814302380143116090611A681B
:104C00005D4911408022D2020A431A60802292003C
:104C10009A62564A1278002A00D083E01A685749EF
:104C200011408022D2010A431A6080229A629021A8
:104C3000C9050B68524A1A4080239B0213430B603C
:104C40008DE70C214A4B02241A684A488A430839E6
:104C50000A431A6090229C61D205116808408021A5
:104C60004903014311608021C90091623F4A1278D3
:104C7000002A66D103211A688A4302390A431A605E
:104C800099629023DB051A683B4911408022120388
:104C90000A431A608DE70C21354A364813688B4366
:104CA00008390B431360022393619023DB051968D5
:104CB0000840802149030143196080210320C90075
:104CC000996211688143023801431160906296E74E
:104CD0000C21274B02241A6826488A4308390A43C4
:104CE0001A6090229C62D205116808408021490315
:104CF000014311608021C90091621C4A1278002A88
:104D00002CD103211A688A4302390A431A60996236
:104D10009023DB051A6818491140802212030A43C8
:104D20001A6009E71A6815491140802212020A43E5
:104D30001A607CE70C2113688B4304390B43136022
:104D40001CE703211A688A4322431A6099E70C2161
:104D500013688B4304390B431360D2E603211A68AE
:104D60008A4322431A60D3E7C46A0008C0000020C7
:104D700000040048FFFFCFFFFFFFF3FFFF3FFFFFEF
:104D8000FFFFFCFF0C211C4A1C4813688B430839A9
:104D90000B431360022393619023DB0519680840DD
:104DA000802149030143196080210320C9009962D1
:104DB0001168814302380143116090611A681049FB
:104DC00011408022D2020A431A60802292009A6225
:104DD0001A680C4911408022D2010A431A608022CD
:104DE0009A611A6808491140802252020A431A60E7
:104DF000802252009A62704700040048FFFFCFFFF4
:104E0000FFFFF3FFFF3FFFFFFFFFFCFF2A4A2B4995
:104E10001378002B3AD10C200B68834308380343E6
:104E20000B6002238B629020C0050368244919405F
:104E300080239B030B43036013782049002B34D15C
:104E400003200B688343023803430B60886290237E
:104E5000DB0519681B4808408021090301431960DC
:104E60001278002A19D11A68174911408022D201FC
:104E70000A431A6080229A629021C9050B68134A7E
:104E80001A4080239B0213430B6070470C200B6871
:104E90008343043803430B60C5E71A680A4911408D
:104EA000802212020A431A60E6E703200B6883435C
:104EB000013803430B60CAE7C0000020000400482B
:104EC000FFFFCFFFFFFFF3FFFF3FFFFFFFFFFCFFF1
:104ED00070B5654C82B063682268981A634B010014
:104EE000C218634B9A4236D8624D2B78002B44D0BF
:104EF0006B78002B17D1AB78002B00D197E0A888F6
:104F00005D4E01333188AB70FDF754FC322800DC74
:104F10006DE000232B703388AB806B78002B09D0B9
:104F200061682368C91A554B994254D9AB794B2B08
:104F300000D97FE00022524B52491A80524AA86899
:104F40000B881268C41A944211DC1C1AA24212DAAD
:104F50009B1A0B800DE000224C4B1A80454B986841
:104F60004849494A0B881268C41A9442EDDD9B18DF
:104F70000B8002B070BD0880FBE7454B1C78002C0D
:104F800010D0444B1A88904219D8434B1988FA2301
:104F90009B0000930023FDF7FBFBA8600022384B29
:104FA0001A80DDE7344B1A883B4B19883B4B009342
:104FB0002F23FDF7EDFB2F2852D0A860EEE72E4BF4
:104FC000511C1C88FA23DB0000932200344BFDF7B0
:104FD000DFFBA860E2E73048AB7904880133E200E8
:104FE000121B5118DBB2C908AB7101809FE73188F1
:104FF000226863689B1ACA00521A9B18DB08AA78B9
:105000009BB23380322A00D886E7264A193B944661
:105010009BB233806344DA0FD318212222495B10FC
:105020008B5401236B7000F037FA338874E780B239
:10503000A88065E7184A002413881B4919339BB2DE
:1050400013801A4A2C7094466344DA0FD318202236
:105050005B108B54FDF78AFFAC7100F04FFA69E7E3
:105060000020AC609AE7C0468C070020DFFCFFFF01
:105070007605000068070020D8000020E104000049
:1050800076060020660600207404002054060020E6
:10509000BB050020DA000020D6000020FF0700003A
:1050A000E90300002AF9FFFFA406002012FDFFFF1C
:1050B00070B5434C2378002B03D0424B1B78002B58
:1050C00006D1414B1B78002B46D0012B07D070BD79
:1050D0003E4B1B78002B2DD000F0EAFBF7E7394B55
:1050E0001B78002B2DD13A4B1B78012B57D0394B15
:1050F0001B78012B41D02378002BE8D1364C208837
:10510000002831D0354A00261380354B9842DED92D
:10511000344DA989FDF74EFB32284FDCAB7B0133C0
:10512000DBB2AB73322B02D96B78002B42D02388D1
:10513000AB81CCE700F002FCFDF7A6FAFDF7E8F83A
:10514000C5E7224B1B78002B0BD0FDF79DFAFDF72E
:10515000DFF800F0ADFBBAE700F036FC00F0A8FB8A
:10516000B5E700F0EBFBB2E71E4B1B78002B1BD121
:105170001A4A138801331380A9E79023DB051B69C2
:105180005B0714D50A21184A136A8B43136200F097
:105190008FFB0421154A13680B431360ABE7FDF73F
:1051A000B7F800F085FBA2E70C4B18808FE7FFF7FC
:1051B0008FFEE7E700F0D4F901232B70AE73B6E75A
:1051C0004C060020A20600204E0600208107002089
:1051D000C4050020C505002050060020540600200C
:1051E000DC05000068070020004001405800024034
:1051F000031C0B2800D90B23014A5B001370704776
:1052000077070020F8B5DE4657464E464546032050
:10521000E0B5FFF761FC7C239B463A4B3A4C99463C
:105220003A4B00259A46A34411E0617800292FD11A
:10523000E801401B364B40008019596380B29963E6
:10524000D963FDF7C7FA002502345C450DD05346FB
:10525000304A1A6000234A4626781380FF2EE4D194
:1052600001350234EDB25C45F1D1FFF7F1FB0023CB
:105270002949274A09889362D1624A461380234B01
:10528000244A1A60F0BCBB46B246A946A046F8BD07
:105290004B015B1ADB00591AFA231B019C461F487D
:1052A0006144FBF7C3FF1A4B010098460A234246AC
:1052B000070093621A48FBF7B9FF4346D862194BBF
:1052C00019491B785843FBF7B1FF4346586398636D
:1052D000D863E801401B40008019FCF73FFF051C24
:1052E000B8B2FCF789FF011C1048FCF77BFA011CDF
:1052F000281CFCF73FFCFCF7BFF880B2FDF76AFA08
:105300000025A1E776060020D806002000300040E6
:10531000002C0140AAAA0000C4000020809698003A
:10532000003E490077070020CF07000000007A44C4
:1053300010B572B6194B1B78FF2B07D0FFF762FF31
:10534000174B1A88174BDA6262B610BD154C164B14
:105350000320E362154B1B786363A363E363FFF7EA
:10536000BBFB3723C820A362FDF734FA0520FFF703
:10537000B3FB2823C820A362FDF72CFA0620FFF711
:10538000ABFB1923C820A362FDF724FAFFF760FBEB
:105390000023074AA3621380D2E7C046307C00088E
:1053A000C4000020002C0140CF0700007707002038
:1053B0007606002070B5154B154CE36272B63C239F
:1053C000144D154E01202E60A362144B1B786363AD
:1053D000A363E363FFF780FB4B20FDF7FBF950234A
:1053E0004B20A362FDF7F6F95A234B20A3622E60EF
:1053F000FDF7F0F9FFF72CFB0023094AA3621380A5
:10540000084B1B88E36262B670BDC046CF07000040
:10541000002C014000300040AAAA000077070020BD
:1054200076060020C400002010B572B6134C144B51
:10543000144AE362144B03201A605023A362134BF7
:105440001B786363A363E363FFF746FB6420FDF708
:10545000C1F946236420A362FDF7BCF92823642028
:10546000A362FDF7B7F9FFF7F3FA0023084AA36236
:105470001380084B1B88E36262B610BD002C01400C
:10548000CF070000AAAA00000030004077070020E4
:1054900076060020C400002010B5114B114C0220EC
:1054A000E3623223A362104B1B786363A363E3635D
:1054B000FFF712FB9620FDF78DF90C4A0C4B962056
:1054C0001A601E23A362FDF785F9FFF7C1FA0023D6
:1054D000084AA3621380084B1B88E36210BDC046D4
:1054E000CF070000002C014077070020AAAA000087
:1054F0000030004076060020C400002010B5114B9B
:10550000114C0220E3622823A362104B1B786363D3
:10551000A363E363FFF7E0FA9620FDF75BF90C4A1B
:105520000C4B96201A605023A362FDF753F9FFF746
:105530008FFA0023084AA3621380084B1B88E3629A
:1055400010BDC046CF070000002C014077070020A7
:10555000AAAA00000030004076060020C400002007
:10556000F8B5134D134BEB6272B67724124B134F01
:105570001B78134E6B63AB63EB63142120003E601A
:10558000FBF754FEFFF7A8FA63100A330A20AB6258
:10559000023CFDF71FF9631CEFD1FFF759FA002316
:1055A000084AAB621380084B1B88EB6262B6F8BDF9
:1055B000002C0140CF07000077070020003000409A
:1055C000AAAA000076060020C40000200D488546E7
:1055D0000D480E490E4A002302E0D458C45004334B
:1055E000C4188C42F9D30B4A0B4C002301E0136022
:1055F0000432A242FBD300F0B1FFFCF75DFEFEF7E0
:10560000C3FBFEE700200020C0000020940400201F
:10561000A86B0008940400208C080020FEE700001E
:10562000054B064A998811805988054A11801A88C5
:10563000044B1A807047C046780700208606002079
:105640008A06002090060020C220124B80001A58C3
:1056500011491140C02212020A431A50802203212C
:1056600092001A600D4B0E4A9A600E4ADA605A6830
:10567000120C12040A435A601A6801390A431A606C
:105680001A6806310A431A601A6807390A431A6011
:105690007047C04600E100E0FF00FFFF0800024045
:1056A00040240140780700200023124A82B0019371
:1056B00093681149194080231B060B43936093683C
:1056C000002BFCDB01230193019B002B05D0019BE8
:1056D000013B0193019B002BF9D1064A06499368CF
:1056E0000B4001210B43936013681942FCD002B0B8
:1056F0007047C04600240140E8FFFF7FF0B5C64672
:1057000000B592B01022002102A8FCF7F9FD142286
:10571000002106A8FCF7F4FD102200210EA8FCF7DA
:10572000EFFD8020454B80009969902401439961E9
:1057300080219A69890202400192019A5A69E4051E
:105740000A435A615B6908220B400093009B0323C4
:105750000CA920000C920D9300F034FF402203238B
:105760000C920D9300230CA920009846109300F092
:1057700029FF334B33491A6840200A401A601A68DF
:10578000314908250A4020211A601A682F4C0A4323
:105790001A601A68603182431A601A6800260A4348
:1057A0001A601A682A4900271140802252000A43D1
:1057B0001A601A68274911408022D2000A431A60F1
:1057C000A26A25492A43A262A36A0343A3628023F3
:1057D000A26A5B021343A3620B68204A20001A40AE
:1057E00080231B04134380220B600023120602A9AE
:1057F000029203930496059700F0B2FE0022012363
:1058000008920993434606A920000A930696079733
:1058100000F0C0FE04220721E3689343E36063695C
:105820008B4301390B43636163689343636063682F
:10583000AB43636012B080BCB846F0BD00100240BC
:1058400008000240EFBFFFFFFFCFFFFF0024014031
:10585000FFFCFFFFFFF3FFFF08270140FFFF3FFEB4
:1058600080220D4B5202D9680A43DA60DA680B498C
:105870000A40DA6001210A22094B99611A62094A39
:1058800012789A62084ADA625A690A435A61002217
:10589000064B5A707047C04600100240FFFFFEFFE3
:1058A0000040014078040020FFFF00008007002036
:1058B0008022184B5202D96810B50A43DA60DA68C0
:1058C000154916480A40DA600A210122144B154C8A
:1058D0009A6119620178406899621349D9625969DD
:1058E00011435961002161705962104C1049CC601C
:1058F000104C8C604860104808608021D86889008E
:105900000143D960196A1143196219680A431A6080
:1059100010BDC04600100240FFFFFEFF78040020CB
:105920000040014080070020FFFF00008C0700209E
:1059300058000240344001408B09000080221A4B7D
:105940005202D96810B50A43DA60DA681749184874
:105950000A40DA606022174B174C9A615D3A1A626E
:1059600002789A623D22DA623C3A427059691143E8
:1059700059611249CC60124C8C60807817304860B5
:10598000104808608021D86889000143D960196AED
:10599000114319628021586C090201435964196846
:1059A0000A431A6010BDC04600100240FFFFFEFF10
:1059B00080070020004001401005002058000240F0
:1059C000344001409B090000F0B55D4D00262A00DF
:1059D000002000275B4B5C4C9C465C6008CA7C3511
:1059E0001168994206D0CB1A9C4201D91C000127AC
:1059F0000126C01804320B009542F1D1002F4DD082
:105A000063465C60002E27D06346504940090A78FF
:105A10009860012A56D04E4D2B78012B2DD0134380
:105A200019D1A21E012A67D9231F032B38D8312888
:105A300011D801230B706146464A47480B7047490D
:105A4000137048622C21604611722539817019311A
:105A50005160434A1370F0BD63463C4900200A7808
:105A60009E60012AD7D1A31E012B58D9231F032BD7
:105A700030D9374B1B78012BEDD12E3C394BFF3CF5
:105A80009C42E8D82F222321324B1A70364A1180CB
:105A900002225A60324B013A1A70DCE72A4CB1E715
:105AA0002E3C304BFF3C9C42D5D82F212320294A45
:105AB000012311702C492B70088002215160284A63
:105AC0001370C8E7A31E012B27D9231F032BD0D89F
:105AD0003128CED8012361461E4A1F480B701F494A
:105AE000137048622C21604611722539817019317A
:105AF00051601B4A1370BCE73128ACD86046154A88
:105B00000370137001330B702C21117223398170D3
:105B100017315160124A13709DE73128A9D800222D
:105B200060460C4B02701A7001320A702C211972F7
:105B30002339817017315960094B1A7099E7C046B3
:105B40008C07002080070020204E0000C4050020A4
:105B5000C505002078040020FFFF00000040014040
:105B60004E060020F24C00009A010020044B05492B
:105B70001A680A401A60802292035A617047C04630
