:04000005080056C9D0
:020000040800F2
:100000000020002001040008B10D0008B30D000815
:1000100000000000000000000000000000000000E0
:10002000000000000000000000000000B50D000806
:100030000000000000000000B70D0008B90D000826
:10004000510400085104000851040008510400083C
:10005000510400085104000851040008510400082C
:10006000510400085104000851040008510400081C
:10007000510400085104000851040008510400080C
:100080005104000851040008000000005104000859
:1000900051040008510400085104000851040008EC
:1000A00051040008510400085104000851040008DC
:1000B0005104000800000000510400080000000086
:1000C0000448054B10B5834203D0044B002B00D0ED
:1000D000984710BD18000020180000200000000004
:1000E00006480749091A8B10C90FC91810B54910DD
:1000F00003D0044B002B00D0984710BD18000020FF
:10010000180000200000000010B5074C2378002BD9
:1001100009D1FFF7D5FF054B002B02D0044800E0C2
:1001200000BF0123237010BD180000200000000054
:100130002C0F0008054B10B5002B03D004490548CF
:1001400000E000BFFFF7CCFF10BDC046000000007C
:100150001C0000202C0F000870B50C4D0C4E761BB7
:10016000B61005D0002408CD01349847A642FAD134
:1001700000F0DCFE074D084E761BB61005D00024BB
:1001800008CD01349847A642FAD170BD440F00084B
:10019000440F0008440F0008480F0008F0B50500A0
:1001A000830749D0541E002A45D003000326CAB253
:1001B00002E00135013C3ED301332A703342F8D1CD
:1001C000032C30D9FF220A40150215432A04154397
:1001D0000F2C34D92700103F3F093E01B4461E00C2
:1001E0001A0010366644156055609560D56010326F
:1001F000B242F8D101373F01DB190F270C2227400B
:1002000022403C00002A0ED03E1FB608B400A4468F
:100210001A001C1D644420C2A242FCD103240136F2
:10022000B6009B193C40002C05D0C9B21C191970AE
:1002300001339C42FBD1F0BD03001400C0E727004E
:10024000E2E7C046002243088B4274D303098B4285
:100250005FD3030A8B4244D3030B8B4228D3030C96
:100260008B420DD3FF22090212BA030C8B4202D338
:100270001212090265D0030B8B4219D300E0090A60
:10028000C30B8B4201D3CB03C01A5241830B8B4269
:1002900001D38B03C01A5241430B8B4201D34B0352
:1002A000C01A5241030B8B4201D30B03C01A5241B7
:1002B000C30A8B4201D3CB02C01A5241830A8B423C
:1002C00001D38B02C01A5241430A8B4201D34B0225
:1002D000C01A5241030A8B4201D30B02C01A524189
:1002E000CDD2C3098B4201D3CB01C01A524183093D
:1002F0008B4201D38B01C01A524143098B4201D377
:100300004B01C01A524103098B4201D30B01C01AA1
:100310005241C3088B4201D3CB00C01A524183081B
:100320008B4201D38B00C01A524143088B4201D348
:100330004B00C01A5241411A00D2014652411046A8
:100340007047FFE701B5002000F006F802BDC04687
:100350000029F7D076E770477047C046F0B5C6462B
:1003600000B50F2A41D903270D003E0005430C00BC
:1003700003002E402F423DD11500103D2D09A84607
:100380002D01AC46844427681D001F6067685F60CC
:10039000A7689F60E7681034DF6010336545F2D1CD
:1003A00045460F230C2401352D01491913404519E9
:1003B000144222D08C59AC5104369C1B032CF9D822
:1003C000043B9B0801339B00ED18C91803231A4016
:1003D000561E002A06D00023CC5C1A00EC540133D0
:1003E0009642F9D180BCB846F0BD0500561E002AE1
:1003F000F1D1F7E70500561EEDE71A00F6E7C04613
:100400000D4885460D480E490E4A002302E0D45897
:10041000C4500433C4188C42F9D30B4A0B4C00234C
:1004200001E013600432A242FBD300F0C6FCFFF7E8
:1004300093FE00F01BFCFEE70020002000000020DF
:10044000180000204C0F0008180000206402002053
:10045000FEE70000F0B587B015006A46CC0F6418BF
:10046000641063000733DB08DB00D31A00AF9D463E
:100470006E467860220000213000FFF78FFE0023D7
:100480007868A34236DB01222D4BFC60D96811420B
:10049000FCD11A69120605D52A4A12685A602A4AFE
:1004A00012685A60AA0515D1196902320A431A6105
:1004B00040225D6119690A431A610122D96811421B
:1004C000FCD12022D968114200D0DA6002211A69D9
:1004D0008A431A61002220203A617A6101327C69E4
:1004E000F9688C4211D38022BD4619690A431A610A
:1004F00007B0F0BD4278120294466146027802309D
:100500000A43590072520133BBE71969114319615B
:100510007C6939696400A45B49190C80D96811426F
:10052000FCD1D968014200D0D860196991431961A2
:10053000396902313961796901317961CFE7C046A2
:10054000002002400000002004000020002310B51D
:10055000934200DB10BDCC5CC4540133F8E70000CB
:1005600000B589B01422002103A8FFF717FE8020F0
:10057000094A8002516901435161536902A903404C
:100580000193019B90200423C0050293033B069333
:1005900000F014FC09B000BD0010024080230022CE
:1005A000DB055A625A6A8242FCD3704710B572B6B4
:1005B0000B4B0C4C1B6823600B4B1B78012B03D09F
:1005C00000220A4B1A8010BD00F0E8FB084A23689D
:1005D0001360084A126882F308889847F3E7C04618
:1005E0000410000838000020007C000852000020A1
:1005F0003C00002000100008F7B501910021009098
:100600000B0008000125124A124F11705170019C15
:1006100084420BDC002902D013701B0A537011783E
:100620000D4B197052780D4B1A70F7BD00990C5C88
:10063000082126005E405B082E4201D07B409BB221
:100640000139C9B264080029F3D129000130DEE77D
:100650003400002001A0FFFF4700002046000020DA
:1006600070B54418465C6578FFF7C6FF064B1A78EC
:10067000064BB24203D119780120A94203D00020D1
:10068000A2701B78E37070BD470000204600002078
:1006900010B5FFF765FF0022014B1A6010BDC04680
:1006A0005C01002090213022C9050B6893431A0099
:1006B000102313430B607047F8B58023002290206D
:1006C000204DDB05204C2A70C0055A6204320169B6
:1006D000114229D08026FA271C4BF6051878BF0056
:1006E00090210423C9050A6914001C401A4222D132
:1006F0001A209027FFF752FF0126FF053420FFF74D
:100700004DFF3B692A789B083340A34001341343D3
:100710002B70082CF2D11A20FFF740FF0B4B2A78E0
:100720001E700B4B1A7005E0596AA142CFD96522A1
:10073000084B1A80F8BD726ABA42D4D90028CFD0CB
:10074000F8E7C04663020020400D03005800002077
:100750006001002052000020F8B590260423050017
:1007600008240127F605B3623420FFF717FF04239E
:100770003D420DD0B361013CE4B26D08002CF3D1D1
:100780003420FFF70BFF90230422DB059A61F8BDAC
:10079000B362F0E710B5FFF785FF3020FFF7DCFF0D
:1007A000FFF776FF10BD10B5FFF77CFFC120FFF704
:1007B000D3FFFFF76DFF10BD10B5FFF773FFC22029
:1007C000FFF7CAFFFFF764FF10BD70B506000D000C
:1007D0000024AC4200DB70BD305DFFF7BDFF9C2004
:1007E000FFF7DCFE0134F4E710B5FFF75BFF0921EA
:1007F0000248FFF7EAFFFFF74BFF10BD080000209B
:10080000F7B58F4D8F4C2B7800AF002B1ED08E4B41
:10081000200019888D4B1980FFF722FF002812D085
:1008200080228B4E002152003000FFF7B7FC874B2F
:1008300021001A883000FFF791FDFFF7ABFF00237E
:100840002B70BD46F7BDFFF7B7FFFAE7814B217864
:100850001960237C7D2B0AD1237A0D2BF1D1637A89
:10086000422BEED1FFF7C0FF00232375E9E7237D7C
:100870007D2B05D1237B0D2B02D1637B422BF1D045
:10088000230028331B787D2B07D1631CDB7F0D2BC6
:1008900003D1A31CDB7F422BE4D0002912D1A27824
:1008A00063781343E278134302D165226A4B1A80BE
:1008B000FFF7F8FEC120FFF74FFF674A13880133A7
:1008C000138048E0012917D1604B013120001980C5
:1008D000FFF7C6FE0028B6D0604B1A68604B9A42FC
:1008E00002D8FFF760FFACE7574B59481988FFF76C
:1008F000B1FDFFF74FFFA4E7FF2916D1534BFB399A
:1009000020001980FFF7ACFE00289CD00022524B3B
:10091000A1781A808022E37812051B020B435BBA90
:100920009BB29B184D4A1360E3E7FE2919D1474B50
:10093000FA3920001980FFF793FE002883D0A378AE
:10094000012B0BD0E378404A1380012380222B70C7
:10095000444B52001A80FFF79BFE72E780235B0036
:10096000F1E7FD290ED1394BFB3920001980FFF743
:1009700077FE002800D166E7FFF794FEC120FFF75D
:10098000EBFEE8E702290DD1304B20001980FFF77C
:1009900067FE002800D156E7304A314B12689A4270
:1009A0009FD9A6E704293AD101222F4B1A707FE77D
:1009B0002E4A1368013313606478002C01D101348E
:1009C000FF348022274B1A80FFF76CFE6A46E31C37
:1009D0007B600733DB08DB00D31A9D466D46E21CC3
:1009E00000216846FFF7DAFB1C4B220019686846B5
:1009F000FFF7ACFD21006846FFF7FEFD1C4B1D4ACA
:100A00001B7812782B55631CEA5430230234684655
:100A100079682B55FFF7D9FEFFF73AFE0DE0032961
:100A200000D045E70221094B20006E461980FFF7F0
:100A300017FE0028BCD1FFF7BFFEB54601E7C04650
:100A400051000020610100205A01002054000020C4
:100A500059000020480000205200002040000020E3
:100A6000FF0F000844000020500000204C00002030
:100A70004700002046000020F8B5812200241C4DCC
:100A80001C4E1D4B210028008027520034601C7032
:100A9000FFF784FBFF05FFF70FFE184B1B78002BB9
:100AA0000DD0174B174A1B7812882B70336802320F
:100AB00001333360934214D1FFF7A2FEF8BDFA214F
:100AC0007A6A89008A4201D93360F5E70C4B1B78BA
:100AD0002B700223FF339C4203D10B4A138814333B
:100AE00013808123013401355B009C42D3D1E3E7BD
:100AF000610100204C00002058000020510000201F
:100B0000630200205A0100205200002010B50A4C58
:100B1000302220000949FFF719FDA3780D2B0AD0D8
:100B2000013BDBB2FD2B06D80D2330212000034A08
:100B3000A370FFF78FFC10BD61010020007C00084E
:100B4000F8B590243022E405E368FA2093431A00B4
:100B500020231343FA25E3604000FFF71FFD04261E
:100B60006D002369334203D1164A13880133138081
:100B70000A20013DFFF712FD002DF2D1114C238810
:100B8000002B1ED090263022FA20F605F36825802F
:100B90009343F3604000FFF701FD0427F535FF356F
:100BA00033693B4202D12388013323800A20013D6F
:100BB000FFF7F4FC002DF3D12388002B01D0FFF7C1
:100BC000F5FCF8BD560000200122234910B50B6842
:100BD000934313430B600B68204B19680A431A6058
:100BE000022219681142FCD0F8211A688A431100C8
:100BF00080220A431A605A6819491140A0229203C0
:100C00000A430F215A60DA6A8A43DA62802219683D
:100C100052040A431A608022920419681142FCD0DF
:100C2000F0215A688A435A605A680E490A400321E3
:100C30005A605A688A43110002220A430C215A6002
:100C40005A680A40082AFBD1074800F059F90648BB
:100C500000F066F910BDC0460020024000100240BE
:100C6000FFFFC2FFFFF8FFFF006CDC02F0B50125BB
:100C7000802110262D4C89B0A36949052B43A3611F
:100C8000A36903AF2B400193019BE2690A43E26130
:100C9000E369274A0B400093009B136833431360BA
:100CA000FFF792FF142200213800FFF777FAE3697B
:100CB00039002B43E361E36980242B400293029BBC
:100CC0002F23E4053B802000303B059300F0C8F85B
:100CD00080222368174993432360A3680B40702147
:100CE000A36063688B436360A3689343A360236836
:100CF0001D432560FFF734FCFFF722FF90223021CF
:100D0000D205D3688B431E430B4BD6601A780B4B2E
:100D1000DA70FFF7FBFE00F015F8FFF7ADFE084BA9
:100D20001B88642BF9D9FFF741FCF6E7001002405D
:100D300000200240F8BFFFFF110000200800002043
:100D4000520000208020134B8002596930B50143C6
:100D5000596180215A6989B002400192019A5A6909
:100D6000C9020A435A615B690C220B4000930021BF
:100D700005A8009BFFF712FA01231825064C0393E0
:100D80002000023302A90295049300F017F8A5622F
:100D900009B030BD0010024000040048024A034977
:100DA00013680B4013607047000400483FF9FFFFD1
:100DB0007047FEE77047704770477047F7B50025EA
:100DC0004B680A6800935E1E1300EB4009D1012EA8
:100DD00005D84368C96893434A431A4342600020D8
:100DE000FEBD01241300AC40234022422BD01A0048
:100DF00003275A435743BC46FF430197674604689D
:100E0000BC43009F57433C430460012E06D88C68C6
:100E100086685443019F3E40344384600C69C66831
:100E20005443019F3E402643009CC660022C0AD1D9
:100E30004C69FF2B09D80F26524356436243036A7D
:100E4000B3431A4302620135BAE70F261B0A5B431C
:100E50005B435E436343426AB2431A434262F2E732
:100E6000204A10B50368904206D08024E405A042D1
:100E700002D01D4CA0420CD17024A3434C682343E4
:100E8000904212D08024E405A0420ED0164CA0421D
:100E90000BD0164CA04208D0154CA04205D0154CE2
:100EA000A04202D0144CA04203D1144C2340CC6881
:100EB000234303608B68C3620B888362904208D02F
:100EC0000B4B984205D00B4B984202D00A4B9842EC
:100ED00001D10B7C0363012342691343436100206A
:100EE00010BDC046002C014000040040002000401E
:100EF000004001400044014000480140FFFCFFFF6A
:100F0000FA2110B58900FFF79DF90022034B013843
:100F100058609A6005321A6010BDC04610E000E0CB
:100F2000014B18607047C04614000020F8B5C04659
:100F3000F8BC08BC9E467047F8B5C046F8BC08BC73
:100F40009E467047350100080901000823016745E6
:100F5000AB89EFCD343731001F06060130020000A7
:100F600000127A00000000000000000000000000F5
:100F70000000000000000000000000000000000071
:100F80000000000000000000000000000000000061
:100F90000000000000000000000000000000000051
:100FA0000000000000000000000000000000000041
:100FB0000000000000000000000000000000000031
:100FC0000000000000000000000000000000000021
:100FD0000000000000000000000000000000000011
:100FE0000000000000000000000000000000000001
:0D0FF0000000000000000000000000000DE7
:1010000000200020C9560008096500080D65000889
:1010100000000000000000000000000000000000D0
:101020000000000000000000000000001165000842
:1010300000000000000000001565000819650008A8
:1010400019570008195700081957000819570008C0
:1010500019570008195700081957000819570008B0
:10106000195700088D6600081D65000869650008AD
:10107000D5650008B566000819570008195700081B
:1010800069660008F1650008000000000D660008B0
:10109000456600082166000819570008195700081E
:1010A0001957000819570008195700082566000845
:1010B0001957000800000000195700080000000040
:0E10C0000200417269612037304100000000DB
:1010D00010B5064C2378002B07D1054B002B02D00E
:1010E000044800E000BF0123237010BD9C040020D1
:1010F000000000007C6B0008044B10B5002B03D0EF
:101100000349044800E000BF10BDC04600000000D5
:10111000A00400207C6B0008002243088B4274D39B
:1011200003098B425FD3030A8B4244D3030B8B42E8
:1011300028D3030C8B420DD3FF22090212BA030CF1
:101140008B4202D31212090265D0030B8B4219D3D2
:1011500000E0090AC30B8B4201D3CB03C01A5241F2
:10116000830B8B4201D38B03C01A5241430B8B423A
:1011700001D34B03C01A5241030B8B4201D30B0323
:10118000C01A5241C30A8B4201D3CB02C01A52414A
:10119000830A8B4201D38B02C01A5241430A8B420D
:1011A00001D34B02C01A5241030A8B4201D30B02F6
:1011B000C01A5241CDD2C3098B4201D3CB01C01A10
:1011C000524183098B4201D38B01C01A524143091A
:1011D0008B4201D34B01C01A524103098B4201D308
:1011E0000B01C01A5241C3088B4201D3CB00C01A75
:1011F000524183088B4201D38B00C01A52414308ED
:101200008B4201D34B00C01A5241411A00D2014611
:10121000524110467047FFE701B5002000F0F0F89A
:1012200002BDC0460029F7D076E7704703460B435E
:101230007FD4002243088B4274D303098B425FD3CF
:10124000030A8B4244D3030B8B4228D3030C8B42FB
:101250000DD3FF22090212BA030C8B4202D31212E1
:10126000090265D0030B8B4219D300E0090AC30BB6
:101270008B4201D3CB03C01A5241830B8B4201D363
:101280008B03C01A5241430B8B4201D34B03C01A4C
:101290005241030B8B4201D30B03C01A5241C30AC4
:1012A0008B4201D3CB02C01A5241830A8B4201D335
:1012B0008B02C01A5241430A8B4201D34B02C01A1F
:1012C0005241030A8B4201D30B02C01A5241CDD2C4
:1012D000C3098B4201D3CB01C01A524183098B420F
:1012E00001D38B01C01A524143098B4201D34B01F8
:1012F000C01A524103098B4201D30B01C01A52415B
:10130000C3088B4201D3CB00C01A524183088B42E1
:1013100001D38B00C01A524143088B4201D34B00CA
:10132000C01A5241411A00D201465241104670473C
:101330005DE0CA0F00D04942031000D34042534041
:1013400000229C4603098B422DD3030A8B4212D301
:10135000FC22890112BA030A8B420CD38901921133
:101360008B4208D3890192118B4204D389013AD070
:10137000921100E08909C3098B4201D3CB01C01A45
:10138000524183098B4201D38B01C01A5241430958
:101390008B4201D34B01C01A524103098B4201D346
:1013A0000B01C01A5241C3088B4201D3CB00C01AB3
:1013B000524183088B4201D38B00C01A5241D9D2CB
:1013C00043088B4201D34B00C01A5241411A00D24C
:1013D0000146634652415B10104601D34042002B48
:1013E00000D54942704763465B1000D3404201B5C7
:1013F000002000F005F802BD0029F8D016E770477C
:101400007047C046844608006146FFE71FB500F0FC
:101410006DFB002801D40021C8421FBD10B500F0AB
:10142000F9FA4042013010BD10B500F05FFB002812
:1014300001DB002010BD012010BDC04610B500F03A
:1014400055FB002801DD002010BD012010BDC04665
:1014500010B500F005FB002801DC002010BD0120C4
:1014600010BDC04610B500F0FBFA002801DA0020DC
:1014700010BD012010BDC0469E2110B5C905041C39
:10148000FFF7F0FF002803D1201C00F047FE10BD3D
:101490009E21201CC90500F093FC00F03FFE802334
:1014A0001B069C466044F2E7F0B5C64643025B0A61
:1014B0004E0245004F00DA00C40F9C46700A904669
:1014C00000B52D0E3F0EC90FB6098C424BD0EA1B5A
:1014D000002A36DD002F61D0FF2D00D1ADE0802342
:1014E000DB041E431B2A00DCD3E001204346181A0C
:1014F000430100D48CE080018709380000F0BEFE73
:1015000005388740854200DCB6E02D1AB3483840E4
:10151000430704D00F230340042B00D004304301C1
:1015200000D478E06A1CFE2D65D08001430A9C46F9
:10153000D2B26346D0051843E407204380BCB846C6
:10154000F0BD002A35D07A1B002D00D0AFE0434615
:10155000002B00D1A7E0531E012A00D12FE1FF2A62
:1015600069D01A00AAE0E91B002970DD002F37D0EE
:10157000FF2D62D08023DB041E431B2900DCB0E07A
:1015800001204044430143D50135FF2D33D00123D1
:10159000934A0340400810401843B9E7002E00D199
:1015A00083E0511E012A00D1D8E0FF2A45D00A006D
:1015B00098E7FE276A1C174200D086E0002D00D075
:1015C000B7E04346002B00D1F3E00022002EB0D05C
:1015D000981B430100D4FAE043460C00F01A97E749
:1015E000002E00D1C8E04A1E012900D1AEE0FF293B
:1015F00023D01100C1E70023FF229C4699E7FE217A
:101600006A1C114277D0FF2AF5D0150046447008B5
:10161000430700D07EE7C308FF2D0ED05B025B0AB4
:101620009C46EAB285E7002E07D08022D2031342FF
:1016300003D0104201D10C000300002BDBD080202E
:10164000C00318434002430A9C46FF2271E7002969
:10165000D5D07A1B002D60D14346002B24D0531ED9
:10166000012A73D0FF2AE7D01A001B2A00DC85E08C
:1016700001203D00801985E720233A00451B3800F2
:101680000135EA405D1BA840431E984100251043E8
:101690003EE7202330009B1A31009840D140431E82
:1016A0009841084322E70C0003001500B4E7FF2F20
:1016B000C1D080234046DB04184380461B2A51DDFD
:1016C00001200C003D00301A12E743469F1B7B01AE
:1016D0002BD4002F00D010E70023002400229C46CA
:1016E00027E7202332003000CA40591A8840431EA1
:1016F0009841104345E7002D4AD14346002B63D063
:101700000022002E00D114E730004044430100D4F1
:101710007EE7324B013518407AE7FF2F8CD08023CB
:101720004146DB04194388469FE743460C00F71AFD
:10173000E3E64246002A00D075E7002E00D07AE7A3
:101740008023DB0300249C46FF22F2E63000404465
:101750000125430100D45BE7022518E74346012534
:10176000981BC5E6202344464046D4409A1A904030
:10177000431E98412043A4E70D004DE72023414636
:101780004046D1409A1A9040431E9841084370E762
:101790004246002A00D14FE7002E00D14DE78022BB
:1017A000D203134200D148E7104200D045E70300BE
:1017B00043E7002E90D00C0084460022B9E6434651
:1017C0000C00F01A013593E684460022B1E60028A9
:1017D00000D01DE7002300249C46AAE6FFFFFFFB84
:1017E000FFFFFF7DF0B54F464646D6464502C0B5E1
:1017F00047000C1C6D0A3F0EC60F002F00D170E091
:10180000FF2F00D175E0EB008025ED041D43002380
:1018100099469A467F3F6002430A984663001B0E32
:10182000E40F002B4ED0FF2B46D04246D000802242
:10183000D2040243904600227F3B3100FF1A4B4600
:101840006140C9B213430F2B00D9B5E06E489B002D
:10185000C3589F4600239846260045469246534665
:10186000022B00D189E0032B00D19EE0012B18D080
:101870003B007F33002B69DD6A0704D00F222A402A
:10188000042A00D004352A0103D5604B1D403B00DB
:101890008033FE2B00DD70E0AD016D0AD8B202E0AE
:1018A0000E0000200025C0052843F6073043E0BCA9
:1018B000BA46B146A846F0BD4346002B3FD10222AE
:1018C000FF3F03E04346002B2DD1012231004B4660
:1018D0006140C9B213430F2B34D84D489B00C35805
:1018E0009F46002D13D104239946033B00279A46B7
:1018F00091E7002D05D108239946063BFF279A461C
:1019000089E70C239946093BFF279A4683E728007D
:1019100000F0B4FC7627431F9D4000237F42994688
:101920009A463F1A77E7404600F0A8FC4246431F1C
:101930009A4076235B4290461B1A00227DE7FF23E4
:1019400003227AE70E00FF200025ACE70120C01A31
:101950001B28A6DC9E372A00BD40C2406B1E9D415D
:1019600015436B0704D00F232B40042B00D0043504
:101970006B0144D50120002595E7FF20002592E763
:1019800080250026FF20ED038DE700239846802068
:10199000C003054209D04346034206D145460543EC
:1019A0006D022600FF206D0A7DE78020C0030543FD
:1019B0006D02FF206D0A76E742466B0150018342BB
:1019C00019D21B220025013F01261C006D005B007F
:1019D000002C01DB984201D81B1A3543013A002A3A
:1019E000F3D15A1E93411D433B007F330E00002B61
:1019F00000DD41E7AAE71A2201251B1AE4E7AD0141
:101A000000206D0A4FE7C046686C0008FFFFFFF733
:101A1000A86C000870B5420045024E024C00C30F8E
:101A20006D0A0120120E760A240EC90FFF2A06D075
:101A3000FF2C03D0A24201D1B54206D070BD002DCB
:101A4000FCD1FF2CFAD1002EF8D18B4206D0012018
:101A5000002AF3D12800431E9841EFE70020EDE76C
:101A600070B5420045024E024C00C30F6D0A120EC3
:101A7000760A240EC80FFF2A1BD0FF2C0ED0002A96
:101A80001BD1002C01D1002E1CD0002D0CD0834284
:101A90001CD00221581E0840013870BD002E22D1F2
:101AA000002AF4D1002DF2D10028F6D101204042C5
:101AB000F3E7002D17D1FF2CF0D0002CE7D1002E3A
:101AC000E5D1E6E70020002DE7D0E2E7A24205DC01
:101AD000EADBB54202D8E7D30020DEE743425841B3
:101AE00040000138D9E702204042D6E770B54200F5
:101AF00045024E024C00C30F6D0A120E760A240EE8
:101B0000C80FFF2A0BD0FF2C0DD0002A1FD1002CAC
:101B100016D1002E14D10020002D10D009E0002D88
:101B20000CD1FF2C13D1002E08D1002A08D08342FB
:101B300012D00221581E0840013800E0022070BD7A
:101B4000002DF4D10028FAD101204042F7E7002C03
:101B5000EDD1002EEBD1ECE7A24205DCF2DBB54281
:101B600002D8EFD30020EAE7434258414000013851
:101B7000E5E7C046F0B54F464646D6464402450026
:101B8000C0B5640A0F1C2D0EC60F002D00D18DE0CC
:101B9000FF2D00D192E00023802099469A46E40070
:101BA000C00404437F3D7802430A98467B001B0E25
:101BB000FF0F002B00D170E0FF2B00D186E04246E2
:101BC000D00080227F3BED180023D20402439046D0
:101BD0009C4631004B467940681C0F2B1CD8764A36
:101BE0009B00D3589F4639004446E2465346022B99
:101BF0000FD0032B00D1D7E0012B37D100200024D8
:101C0000C0052043C9070843E0BCBA46B146A84610
:101C1000F0BDFF200024F3E7260C2404220C4446E8
:101C20002404240C434627001B0C574374435A4397
:101C30005E4312193B0C9B189C4203D9802252022E
:101C4000944666443F041A043F0CD2199401671E5F
:101C5000BC411B0C920E9B1914439B011C431B019E
:101C600000D49BE0012362081C40144302007F3231
:101C7000002A64DD630704D00F232340042B00D027
:101C80000434230103D502004C4B80321C40FE2A51
:101C9000BFDCA401640AD0B2B2E74346002B3DD1B9
:101CA0004A4601331A4391469C4692E7002C29D1BB
:101CB00004239946033B00259A4674E7002C1BD168
:101CC00008239946063BFF259A466CE74346FF35B5
:101CD000002B0BD102234A461A4391469C4678E7D3
:101CE00053463100022B00D083E792E703234A4694
:101CF0001A4391469C466CE70C239946093BFF2505
:101D00009A4650E7200000F0B9FA7625431F9C4020
:101D100000236D4299469A462D1A44E7404600F04A
:101D2000ADFA4246431F9A4000232D1A90469C4626
:101D3000763D4EE780240021FF20E40360E7012385
:101D40009B1A1B2B00DD59E722009E30DA408440AD
:101D50001300621E94411C43630704D00F232340E9
:101D6000042B00D0043463011AD50120002447E776
:101D70008020C003044209D04346034206D14446B2
:101D8000044364023900FF20640A39E78020C0035D
:101D9000044364023100FF20640A31E7280065E74C
:101DA000A4010020640A2BE78020C00304436402DE
:101DB000FF20640A24E7C046E86C0008FFFFFFF735
:101DC000F8B5CE46474643025B0A4E02DA00944617
:101DD000720A914645004A0080B52D0E1F00C40FBF
:101DE000120EC90FB609FF2A5BD0012041408C4278
:101DF00039D0A81A00285ADD002A6AD0FF2D00D158
:101E0000D9E08022D20416431B2800DCE9E001203F
:101E10006346181A430100D4B4E0800187093800F2
:101E200000F02CFA05388740854200DCCCE02D1A02
:101E3000B5483840430704D00F230340042B00D09B
:101E40000430430100D4A0E06A1CFE2D00D18DE0D7
:101E50008001470AD2B2D0053843E4072043C0BC12
:101E6000B946B046F8BDA81A8046002845DD002ACC
:101E700070D0FF2D00D19EE08023DB041E4343463B
:101E80001B2B00DCD2E00120604443017AD50135F0
:101E9000FF2D6BD001239D4A03404008104018439A
:101EA000C8E7002E20D08C4223D02800FF3800281D
:101EB00039D0571B002D00D09DE06346002B00D188
:101EC000DBE07B1E012F00D10DE1FF2F71D01F0041
:101ED00098E0002E00D1A7E0421E012800D1E6E0E4
:101EE000FF2868D010008FE701204140A14200D0B8
:101EF0007FE7FF2040428046A8444046002838D073
:101F0000511B002D00D1AEE0FF2A00D1DFE080237D
:101F10006046DB04184384461B2900DCD9E001201D
:101F200015008019B1E7FE206A1C104271D1002D06
:101F300000D0A6E06346002B00D1D9E00022002E9D
:101F400000D188E7981B430100D4E1E063460C0010
:101F5000F01A6FE7002E00D1B7E00200013A012825
:101F600000D19CE0FF2826D0904688E7FF2200277A
:101F700071E7FE206A1C104264D0FF2AF6D01500DB
:101F800066447008430700D056E7C308FF2D12D0FF
:101F90005B025F0AEAB25EE76246002A00D196E081
:101FA000002E08D08022D203134204D048461042AB
:101FB00001D10C004B46002BD8D08027FF031F43D4
:101FC0007F02FF227F0A46E720233A00451B3800A4
:101FD0000135EA405D1BA840431E9841002510438F
:101FE00028E720231B1A32009E40C2403000431EC7
:101FF000984110430CE7FF2ADBD080236046DB04C6
:10200000184384461B2F56DD01200C001500301AA2
:1020100000E763469F1B7B013DD4002F00D0FEE606
:1020200000240022002716E70500AFE732004346F0
:102030004146DA4020235B1A9E403000431E9841FF
:10204000104321E7002DA7D16346002B59D0002271
:10205000002E00D1FFE630006044430192D52A4BA8
:10206000013518408EE76346002B47D04B1E0129EF
:1020700015D0FF292BD019004EE70C004B463D0030
:1020800084E76246002A8BD1002E92D1802700245B
:10209000FF22FF03DFE663460C00F71ABFE63000BD
:1020A00060440125430100D46CE70225F2E6634653
:1020B0000125981BAEE6202364466046FC40DF1BEA
:1020C000B840431E984120439FE705005EE74B461A
:1020D00071E7202365466046CD40591A8840431E6B
:1020E000984128431CE763460C000125F01A91E64D
:1020F000002E95D00C004F460022ACE64B460D005A
:1021000044E74F460022A6E6FFFFFFFBFFFFFF7DEF
:10211000002800D036E7002400279CE64102420058
:10212000C30F490A0020120E7E2A03DD9D2A02DD1C
:10213000094A98187047802000040143952A07DC5B
:102140009620821AD1404842002BF3D10800F1E7D3
:10215000963A9140F7E7C046FFFFFF7FF8B50028A9
:1021600013D0C317C6185E40C40F300000F086F8C5
:102170009E2305001B1A962B0FDC082801DD083D65
:10218000AE407602760AD8B202E000240020002693
:10219000C0053043E4072043F8BD992B0CDD052230
:1021A0003100121AD1400A00010030001B31884072
:1021B000411E884102431600052D12DC31000D4FEF
:1021C0003940720709D00F203040042805D004316F
:1021D0004A0102D59F2339405B1B89014E0AD8B2C0
:1021E000D6E76A1F96403100024F39407207F4D09B
:1021F000E9E7C046FFFFFFFB70B5051E0ED000F0FB
:102200003DF89E2304001B1A962B0CDC082801DDE8
:10221000083CA5406D026D0AD8B201E000200025FF
:10222000C005284370BD992B09DD020029001B322F
:1022300091404A1E91410522121AD5400D43052CAA
:1022400012DC29000C4E31406A0709D00F202840CB
:10225000042805D004314A0102D59F2331401B1BBD
:1022600089014D0AD8B2DBE7621F95402900024E72
:1022700031406A07F4D0E9E7FFFFFFFB1C2101238F
:102280001B04984201D3000C10391B0A984201D359
:10229000000A08391B09984201D30009043902A237
:1022A000105C40187047C04604030202010101019E
:1022B000000000000000000070B500260C4D0D4C21
:1022C000641BA410A64209D1002604F057FC0A4D55
:1022D0000A4C641BA410A64205D170BDB300EB5894
:1022E00098470136EEE7B300EB5898470136F2E71E
:1022F000286D0008286D0008286D00082C6D000866
:1023000003008218934200D1704719700133F9E736
:10231000F0B5DE4657464E464546CA4CCA4BA44623
:10232000DA6FE0B518689346111AC84A89B211806D
:10233000614489B0C62900D9A3E059681C69081A0C
:102340004509D96898681E6A091A586949090191AE
:102350009160011BD8699C6949090291D160011BF8
:102360005C6A9F6A4809A11BDE6A4C09F61B710969
:102370001F6B07965E6B00955560F51B9F6BDE6BC0
:1023800003901061F61B186C5F6C04943F1A546143
:1023900076096C097F0991610594D46116625762D0
:1023A0009C6CD86C9D6E001B40091C6D844690622D
:1023B000586D001B40099C6D8146D062D86D001B92
:1023C00040091C6E80461063586E001BDC6E40098D
:1023D000641B64091D6FA24694635C6F9B6F641B52
:1023E00065095C460695E31AD563049C009D50631D
:1023F00065402C007C40E400A3466446019DC0007B
:10240000694061405C46039D8900754021432C0072
:1024100045466C402143029D059C5B0965402C00AC
:102420004D466C40640021435446A40020431843A9
:102430001364069B864C5B0003438648C9B2007850
:10244000DBB2002824D12578002D24D19025ED057C
:102450002D696D070FD544252C00555DAA46012531
:10246000AB46DA445546EDB2AA46250054465455CB
:10247000642C00D973E08B4212D05021535A01339F
:10248000535209B0F0BCBB46B246A946A046F0BDC7
:102490002478002CEFD00F24E31ADBB28B42ECD16E
:1024A00000216D4B19804631535A01335352434634
:1024B000012B02D14146694B1970009B01999B0287
:1024C00049020B4349460B430299079C09020B43FF
:1024D0000399F600C9010B430499BF0089010B431E
:1024E0001F218C43059923430D011D4363462E4351
:1024F00037435E0037432F2F08DD4823D35C002B82
:1025000034D1574C2778002F09D1BAE77B1E2E2BE8
:1025100016D80021534B524CFFB219802770524BF2
:102520001B78002BADD10028ABD04B33D15CB94226
:1025300024D0D754042F2BD949230121D154A0E70B
:10254000002FDED14A23D35C012B0CD000200023C6
:102550004449088042490B704921535491E70124B2
:102560003B4D2C7097E74733D754EFE73D4B3C4941
:102570001F8000230B704921535482E7042F07D991
:102580004921535C0133DBB25354052B00D878E763
:1025900049230021D154152F05D8344BBF00DB59F6
:1025A0009F4602F0BFFF2278314B1A700023237040
:1025B00067E7304B1A78304B1A70F4E72D4B1A78D6
:1025C00001239B1A2C4A1370EDE74C230021D154B0
:1025D0002A490233D152E6E74C230121D154E021AC
:1025E00002330901D152043BD35C012BDBD14821DA
:1025F0005354D8E700F01CFDD5E70122204B1A7098
:10260000D1E700221E4B1A70CDE70122194B1A7038
:102610000022194B1A701B4B02321A70C3E70022BA
:10262000144B1A700123144A1370164A1370BAE738
:1026300002F0FCFEB7E703F011F8B4E702F038FF50
:10264000B1E7C04681FBFFFF98070020B8040020D7
:10265000AC060020CE0500207E0600206206002089
:10266000AA0600206E06002037060020946B0008A2
:10267000AB060020C2050020FD000020FF0E000078
:10268000C30500206C0600204E213A48F0B5425A9E
:10269000002A39D0002413004452140A1109614061
:1026A0004A400F210C000D0094431B01324A234382
:1026B0001C13145D1D40555DE40383652C431D12FE
:1026C0001B110D400B40555DD35C4022AD022C43E5
:1026D00001255B011C43294B294F1E78C465731CDF
:1026E0009B00B600FA50B81941682D3A2B00934070
:1026F0002340D34089095940890181600430013A5F
:10270000F4D20023BB51F0BD1E4B1B78002B19D017
:102710001D4B1B68D913012917D0991301291CD00F
:10272000591301291BD0191301291AD0D9120129D3
:1027300019D09912012918D05912012917D04265D0
:102740009AB2AAE7114B104A13600F22083A1341BC
:1027500051020B4342659AB29FE70E22F6E70D2223
:10276000F4E70C22F2E70B22F0E70A22EEE7092257
:10277000ECE7C046B8040020EC6B00088E07002090
:10278000180500203706002028060020FFFF000063
:1027900010B51C00884200DA08001300824200DDF8
:1027A000030002985B1A001B5843511AFEF73EFDC6
:1027B000001910BD0300401A00D5C81A7047C04662
:1027C0000023034A5362536A8342FCD37047C046D6
:1027D0000048014000230F4A10B5536296235B0165
:1027E000936201235169194351618300516A18189A
:1027F0004000814205D2084C08492160536A834257
:10280000FBD330220121034B9A625A690A435A6171
:1028100010BDC0460048014000300040AAAA000098
:10282000F0B5DE4657464E4645461023E0B58BB020
:102830001022002106A89946FFF762FD8021344C42
:102840008902626901270A436261636980220B4041
:102850000393039B01231202049205939023DB054B
:10286000180004A99846079703F06AFF80231B020B
:102870009B4643465A4680269A610021102206A8AC
:10288000FFF73EFD6369F602334363616369082223
:1028900033400293029B01231E4D04A92800049299
:1028A0000593079703F04CFF082310220021AB612A
:1028B00006A89A46FFF724FD63691022334363613B
:1028C000636904A91E400196019B0123280004921C
:1028D0000593079703F034FF4B46AB610E4B0F4A4D
:1028E0001968914203D01A605A68002A06D00BB0CA
:1028F000F0BCBB46B246A946A046F0BD1A81594677
:10290000424691625246AA614A46AA619F72EEE728
:102910000010024000040048AC050020FC6B0008D9
:10292000214B30B5DA6858680132041EDA6028D0CD
:1029300019699D7A511AA94222D31A611A89013262
:1029400092B21A81A25C002A05D11A81002801D016
:102950001C685A60227891061FD590218020C905F5
:1029600000028862510614D508201049886251B2CD
:1029700000290ADA10200D4988621F210A409A7244
:1029800030BD1C68002CFBD0D2E7102007498861BD
:10299000F3E7082005498861E9E790218020C9050F
:1029A00000028861DEE7C046AC0500200004004854
:1029B0000B4B0C4A1968914203D01A605A68002ADE
:1029C00000D070471A81802190220902D2059162BD
:1029D0000821054A91610831916101229A72F0E75C
:1029E000AC050020FC6B0008000400480C4A0D4BAD
:1029F00011680433994203D013605368002B00D050
:102A000070471381802190230902DB059961082119
:102A1000054B99620831996101239372F0E7C04632
:102A2000AC050020FC6B0008000400480C4A0D4B6C
:102A300011680833994203D013605368002B00D00B
:102A400070471381802190230902DB0599610821D9
:102A5000054B99620831996102239372F0E7C046F1
:102A6000AC050020FC6B0008000400480A4A0B4B30
:102A70005168103399420ED0536000238021138196
:102A800090230902DB0599620821054B9961083101
:102A90009962032393727047AC050020FC6B000819
:102AA000000400480A4A0B4B5168283399420ED063
:102AB000536000238021138190230902DB05996272
:102AC0000821054B9961083199610223937270477F
:102AD000AC050020FC6B0008000400480A4A0B4BC0
:102AE0005168303399420ED0536000238021138106
:102AF00090230902DB0599610821054B9962083191
:102B00009961012393727047AC050020FC6B0008AB
:102B1000000400480A4A0B4B51683C3399420ED0DE
:102B2000536000238021138190230902DB05996201
:102B30000821054B9961083199610123937270470F
:102B4000AC050020FC6B0008000400480A4A0B4B4F
:102B50005168403399420ED0536000238021138185
:102B600090230902DB0599610821054B9962083120
:102B70009961012393727047AC050020FC6B00083B
:102B800000040048BFF34F8F034B044ADA60BFF3E1
:102B90004F8FC046FDE7C04600ED00E00400FA0597
:102BA000F8B5902502F0DAFE3022FA20FA24042744
:102BB000ED05EB6880009343103A1343EB60FFF799
:102BC000FFFD124EA4002B691F4214D133880A2046
:102BD0000133013C3380FFF7F3FD002CF3D1902249
:102BE0003021D205D3688B4320390B43D36033881F
:102BF000052B07D9F8BD0A20013CFFF7E1FD002CA9
:102C0000E1D1ECE701F0A2FFFFF7BCFFC005002017
:102C1000F0B5CE46474680B5CC4CB0222000CC491A
:102C200083B003F019F9637CCA4E013B5A42534109
:102C3000B370A37C013B5A425341F370E37C012BF8
:102C400000D13371237DC44D013B5A4253412B7057
:102C5000637D013B5A4253416B70A37D013B5A4255
:102C60005341AB70E37D032B00D90223EB70207E30
:102C70000300083B282B00D97AE1103B182B00D821
:102C800086E103000C3B0B2B00D88FE10300083BCF
:102C9000032B00D898E1A888B04BD862E88028813F
:102CA000637E9846323B642B00D96BE14046FA21A3
:102CB000AB882D30C0B25843C9009946FEF7B6FA2A
:102CC0004346FA2187B258084B460F305843C90093
:102CD000FEF7ACFA80B203000A33AB812822E88108
:102CE0002F82A37E0520534314336B82E37E2B7522
:102CF000237F013B5A4253417371637F013B5A4228
:102D00005341B37102F0F2FA6378002B00D1EEE088
:102D1000A07F0B2800D838E1052002F0E7FAE37F16
:102D20008F49013B5A4253412022F371A35C8C46E8
:102D30007833FF335B00EB822123E35C89496344F2
:102D40005B002B8322238C46E35C63446B83232349
:102D5000E35C2B772423E35C013B59424B41337204
:102D60002523E35CFA33EB832623E35C013B5942E2
:102D70004B4173720023B3722833E35C591F14294B
:102D800000D8AB542923E35C5A1E092A01D821221A
:102D9000AB542A23E25C531E082B1AD82223EA5490
:102DA00053019B1A9B009B1A23225B003D3BDBB225
:102DB000AB54627E991852089A18EA81AA8C29822B
:102DC0009A18AA84EA8C9A18EA84644A516C0B43D4
:102DD00053642B23E35C1A00463A462A01D8282282
:102DE000AB542C23E35C5A1E622A03D85B006B852C
:102DF0000123F3722D23E35C5A1E092A01D82C22E9
:102E0000AB542E23E35C092B0BD8022B00D1FCE042
:102E100063D8002B06D0012B09D1534A33731370AA
:102E200005E000230122337373734F4B1A706B8AD2
:102E3000984696235B00984502D20022FF3BEA5455
:102E4000297D2020FEF7F2F9642107004046FEF7B5
:102E500063F9390080B2FEF7E9F91121E8854046AF
:102E6000FEF75AF9390080B2FEF7E0F9C823288648
:102E700062786B862B78002B00D1F370022A3CD944
:102E80004023E25C531EDBB2FD2B16D84123E15CEC
:102E90004B1EDBB2FD2B00D9B0E0131C142A00D965
:102EA000A4E03522AB540B1C142900D998E0DAB207
:102EB000002A00D192E03422AB544323E35C012B7F
:102EC00000D1A5E04223E35C012B00D00023F37383
:102ED00003B0C0BCB946B046F0BD042BA7D1012356
:102EE0000021224A337313701F4A11709FE7C823D1
:102EF0006B862B78002B00D1F3702723E35CF373F0
:102F00002423E35C012BE3D10023FF223372283317
:102F1000EA540333DA3AE35CA15C463BDBB20A1CB9
:102F2000142900D91422D1B2002900D1012235215F
:102F30006A541A1C142B00D91422131CD2B2002A72
:102F400000D101233422AB54C2E7C046B0060020B2
:102F5000007C0008C0050020C0000020002C0140BB
:102F60006B0300005E050000000500200205002044
:102F7000294B2A4A6B81D362637E9846323B642B8D
:102F800000D893E655209627A8E602F0AFF9C6E6EA
:102F9000234B3022009318211F4BFFF7F9FBA88029
:102FA000207E03000C3B0B2B00D96FE61A4B182236
:102FB00000930C211B4BFFF7EBFBA880207E030046
:102FC000083B032B00D966E6174B1022009307211C
:102FD000164BFFF7DDFB80B2A8805DE601236AE7B0
:102FE0001423DAB2002A00D065E7F7E7142335226C
:102FF000AB540B1C142900D859E7F1E73423E95CE2
:10300000131C142A00D84CE7F0E7012373730EE772
:10301000B373FFF7EBFC55E7CF070000002C01402E
:10302000E70300009E0F0000B50B00006D170000C5
:10303000362210B5144B154815499A5C42708A78AF
:10304000013A544262414274CA78013A54426241A0
:1030500082740A79013A51424A41C2741A78013A9B
:1030600051424A4102755A78013A51424A414275E9
:103070009A78DB78013A51424A41C3758275B02192
:10308000044A02F061FE10BDC0000020B00600201E
:10309000C0050020007C00081549164B8C46802195
:1030A0001A68154BC9011B686344DB0099400E3355
:1030B0000A40DA403A211300104A515C002907D037
:1030C000002B07D156220E498B5C01338B5470477D
:1030D000002BF7D157200A490B5C0133DBB20B54AC
:1030E0001C38125C9A42F2D256230022CA54EEE7F0
:1030F000E4FFFEBF1C0001408C040020C000002043
:10310000C00500203C21F8B564275820554D564C89
:103110006A5CE75B561E7300E3181F52235A2000B7
:1031200058304788DB198788DB19C788DB1907897E
:103130004089DB191B1804335B10A3663D23E85C50
:1031400001282ED0F0B2002824D0012368541A4060
:103150003A23EA546D23E35C002B30D002F0BCFD2F
:10316000FA23226FDB009A4206D9A379627A1343CD
:1031700002D074230122E25400235622A3541F32AA
:10318000A3547633E35C002B03D07723E35C002B5E
:103190001DD1F8BD062301226B5466330620E2548C
:1031A000D6E70132D2B2062A0CD86A5401001000C8
:1031B00011403A23E9546D23E35C002BCED101F09A
:1031C00009FDCBE76C236854E0540121F1E7782333
:1031D0002A6DE05A9446A36E2A6E181AAB6C2864C6
:1031E000434363442B65934201DD13002A65524239
:1031F0009A4201DD13002A65AA6DE96C821A4A43DE
:10320000696CA86548438018C0186B6E6A65E865EC
:10321000984201DD1800EB655B42834201DD180036
:10322000EB65FEF79BFF1149FEF7DCFAE16FFEF755
:103230003BF90F4F061C391CFEF70AF9002806D18E
:103240000027301C391CFEF7EFF8002807D0E7678D
:10325000084B1B68632B9CD800232B6599E7E66716
:10326000F6E7C046C0000020C005002000401C4614
:1032700000E0FF44400600200121144A70B5D368E5
:10328000134D8B43D3602A8F124C53009B1864223A
:10329000A25A9B189B102B87FFF734FF2B8FEA78DD
:1032A000D9084A430C4D92B25B089B1AEB807423F9
:1032B000E35CAA80002B06D02B68084A934201D811
:1032C00001332B6070BD02F0FDFCF5E700200040EB
:1032D000C0000020C0050020400600200F2700008D
:1032E000F8B53F4D2B6F7D2B3CD83E4C8023DB0542
:1032F0005A6A6423EA522A3BE35C002B19D0682304
:10330000E65C002E4DD0384B80201968374BC00149
:103310009C466144C90088400022354F0E3102E0CE
:103320000132B2423DDA3B680340CB40012BF7D17A
:10333000F8BD6833E65C002E33D02B4B8020196833
:103340002A4BC0019C466144C90088400022284F96
:103350000E3102E00132B24223DA3B680340CB4037
:10336000F8D1E5E78023DB055B6A7C2B05D8962244
:10337000204B9200198991422DD38023194CDB05F3
:103380005A6A238F5B089A42D2D31A4EB37A01331A
:10339000DBB2B372642BA9D902F086FC0023336040
:1033A000C6E702F081FC80236422DB05596A6920AC
:1033B000A95200210F4A5962205CD3880341D3806F
:1033C0000D4A1B041B0C5162D3621161D368013199
:1033D0000B43D360ACE71B68643A9342CDD2A7E7B6
:1033E000C0050020C00000208C040020E4FFFEBFC8
:1033F0001C0001404006002000200040F0B5CE46F1
:103400004746FA21C24C80B5A58983B00135ADB2DB
:103410002800A5818900FDF705FF89B2002900D1A8
:103420005AE1BC4B9D4218D90E23E65E3000FEF7F0
:1034300095FEB949FEF7D6F92169FEF735F8B74D83
:1034400020612B78022B00D1CBE1032B00D147E187
:10345000012B00D152E10023A381B14D227EAB7B31
:10346000134303D1627E002A00D07FE1EB79002B69
:1034700000D01EE1AB4E2323E35C002B00D0D3E051
:103480002A79A08C93009B181B012E33834200DB0A
:1034900087E0AB7B002B00D1ACE07727EB5D002B06
:1034A00000D14BE3002A04D06B23F35C002B00D047
:1034B00054E3B288F3892F2100929B4AFFF768F901
:1034C00087B227810A21A089FDF7ACFE89B20029C5
:1034D00058D1EB7A002B00D1A0E27723EB5C002BD4
:1034E00050D064200E22A35E728D5043F26F181AE2
:1034F00094468C22736FB25843436344F066F3677B
:10350000934201DD1300F26752429A4201DD13003B
:10351000F26784229046B258B16F821A4A438021E2
:10352000725041467050316F48438018C018902344
:103530008822F358B050984201DD1800B3505B4226
:10354000834202DD88221800B350784B9846FEF77C
:1035500005FE7749FEF746F9FEF7E0FD4346424691
:103560009B8A1B1A1BB29382F289934202DA13B22E
:10357000424693829F4201DA43469F82AB79002BF9
:1035800000D056E26B7A002B00D01CE26D22AB54C7
:103590002A7993009B181B01A28C2E33934200DAE8
:1035A0002DE12C27E35D002B08D0012B00D1F7E2A1
:1035B000022B00D1F1E22C230022E2543378002BBD
:1035C00000D0E6E023817733EB5C002B00D09FE155
:1035D0007422012123606B79A954002B00D095E15E
:1035E0006D23EB5C002B00D1DEE26B7A002B00D068
:1035F000F7E195E16D33EB5C002B00D1FEE0238910
:10360000B18899464B1C4846984677897843FDF720
:103610000DFE4346181A80B2E0864B46E384454BC4
:10362000DF6258639863D8630321A86EFDF7FEFD3F
:103630006C23EB5C2867002B03D023680A2B00D98E
:1036400082E0C823328F5B009A4221D9C221FF2039
:10365000394A890053581B021B0A535004315358EE
:103660008343BF3803435350E38F344A01339BB243
:10367000E387934207D9AE7B002E00D035E2304A73
:10368000934200D946E203B0C0BCB946B046F0BD93
:10369000C2208021284A80001358C9051B021B0A3A
:1036A0000B43C3211350FF208900535883435350C9
:1036B000DAE76A221B4E238CB15C01338A009BB28D
:1036C000521823845200934200DCD4E622230122C4
:1036D000E25400232384CEE6FFF722F9A589A0E671
:1036E0001921E08AFDF718FDFF2303408020C00068
:1036F0001843144B188001232B70ACE68023227DE5
:103700009B0013430F4A138002232B70A3E6C0468D
:1037100040060020102700000000B44304050020EC
:10372000C0050020C0000020FF070000400100206D
:1037300000401C46002C014000E100E0881300001E
:10374000A8610000060500200100A06BFFF732F819
:103750002B6F5A08904204D9FA22D200934200D229
:1037600006E26C220021A363A9546AE7628B002A57
:1037700000D026E1A38BA64901339BB2A3838B42E1
:1037800000D873E6E38B1E2B00D919E26276A28380
:103790006CE67723EB5C002B00D0C8E0742201219B
:1037A0002381A9542360002257236F79EA54002F04
:1037B00000D1B9E02879002804D01433F35C002B41
:1037C00000D0B5E02123B288F35C133A5B009B186C
:1037D000238101F07BF96D23012201212879EA542C
:1037E000A8E03221F0B2FDF797FCC3B2C020C000C0
:1037F0001843884B188003232B702CE62789142349
:10380000AA7913412268934209D9338ABB4201D96C
:103810001F002381F38CBB4201D21F002381338917
:10382000BB4201D21F002381EB7A002B64D17A4B7B
:103830009846A76A0021381CFDF70AFE002805D02B
:10384000381CFDF719FE2389C01820814223424607
:10385000D35C002B25D096232A6F5B009A4200D9B7
:10386000AAE02A3BFF3B994603200322432341461B
:10387000CA542189E28C0E3B8F1ABC460700F35CC8
:103880005F43BC4500DC8BE049464B43D3182381A2
:10389000FA23328F5B009A4200D9B4E069230022F8
:1038A000F254AB7B002B16D07723EB5C002B12D0AD
:1038B000A38C2F2B0FD97378002B00D00AE17789C6
:1038C0002389B188180078439946FDF7AFFC013091
:1038D00080B2E086A1E66D23EB5C002B00D08EE683
:1038E0007723E85C77894300C3181801C01A23893D
:1038F00080B29946E08690E6474B984614229B5E3C
:103900009F4296DD2381FFF7B1F892E701F0B8FA04
:103910006B7A002B60D16D23E95C002900D16DE743
:10392000AB7B002BC0D16AE601F010F92781287922
:103930006D23E95C3C233C22F35C013B5343364A54
:10394000904640224746BA5AB4279B189AB21BB2F7
:103950007F00BB421CDA23861300B42777331BB2E7
:103960007F00BB4201DB1300F13B63861300B427E9
:10397000EF331BB27F00BB420FDAA3860028CCD006
:103980006B23F35C002BC8D023230122E254C4E74D
:10399000693AFF3A92B22286DEE7793AA286EDE7EB
:1039A0003423F35C511A5843814200DC76E74946E0
:1039B0004B43D31A238171E7012301209946012249
:1039C00054E7A38352E52A7993009B181B01A28C2C
:1039D0002E3393429FDBE4E56D23EB5C002B00D19B
:1039E0000CE7FA20E18D8000FEF7E4FEFA23FA22CC
:1039F0009B00C3189BB22381D200934200D10BE1FC
:103A000001F064F887E701228C3BFF3BF25448E762
:103A1000102700000605002040010020AB79002B94
:103A200000D1AFE57723EB5C002B00D1AAE5854BF5
:103A3000984643464246DB8A308F926AC01A434614
:103A40009446424698611B6A434363449362926B77
:103A5000934202DD43469A62130052429A4202DDCB
:103A600043469A62130042464146126B496A821AE3
:103A70004A4341460863CA62C96948438018C0186E
:103A800043465863DB6B984202DD4246180053639D
:103A90005B42834202DD424618005363FEF75EFB41
:103AA0006949FDF79FFEA16AFDF7FEFC674B804662
:103AB000191C9946FDF7CCFC002808D1002340468C
:103AC000191C9946FDF7BAFC002800D1B7E04B4617
:103AD000A36257E5B288308F530800926021C82254
:103AE000FEF756FE87B27781EAE601F02FF8002153
:103AF0008022574BA973A1846176E183596399634E
:103B0000D963544B5448996252005962FEF7F8FB4E
:103B1000FFF738F801F01AF880224D4BAE73A684F7
:103B20006676E6835E639E63DE634A4B00219E6297
:103B300052005E624848FEF7E3FBE9E701F006F851
:103B40007423EB5C002B35D001227723EA54338AAF
:103B5000E384FEF76BFF2A79A08CA3E4B288F38993
:103B6000892100923D4AFEF713FE87B22781A9E41E
:103B70003C220027A35C27600133A354FEF7AEFF6D
:103B800077230122EF54033BEA542368642B0ED8B9
:103B90002B6F328A5208E284E3E501F02DFD0AE53D
:103BA00001F0F8FCE35D03E500F0D0FFB0E62C4B3C
:103BB0002B67EEE7EB5D002B34D002F083F8C3E710
:103BC0000123AB73FEF712FF237E002B27D12B7A44
:103BD000002B24D0B921E78A49003800FDF79CFA70
:103BE000B923002620765B009F420DD31D4B1E4F4C
:103BF000984601F097FC6420FEF7ECFD43461F60F9
:103C0000237E0136B342F4DC6B7B002B01D0FFF73F
:103C10002DFC6B72FFF72AFC01F032F97BE601F014
:103C200081FCF1E7FFF76EFA104B0D4A33878023D2
:103C3000DB055A620123EB55FEF7F8FEBDE743466C
:103C4000A3629FE44001002000401C460000164390
:103C5000002C01400040014098070020FF070000B1
:103C60008813000000300040AAAA000010270000BE
:103C7000F0B5D6464F4646463D23C0B54749C85CD9
:103C8000474B00281AD1B4241A8E6400013212B2B4
:103C9000A24260DAB4205D8E1A8601352DB2400052
:103CA000854261DA5D86B4209C8E4000013424B2E6
:103CB000844214DB00200024988611E0188E01381D
:103CC00002B200045DD4588E1A86013805B2000491
:103CD0004ED4988E5D86013804B200045AD49C8676
:103CE000442330488F88C35A520099462C23CE5C17
:103CF000FA212D4BC9009A46D05E6D0048447843A6
:103D0000FDF794FA0A217043FDF790FA274BFA2148
:103D1000984658635346E85EC90048447843FDF727
:103D200085FA0A217043FDF781FA434698635346AA
:103D3000FA216400E05EC90048447843FDF776FA52
:103D40000A217043FDF772FA4346D863E0BCBA46D5
:103D5000B146A846F0BD1886B4205D8E002201351C
:103D60002DB2400085429DDB0020002558869AE751
:103D70006825988EFF3501385D8604B20004AED503
:103D800008E06822588EFF3201381A8605B2000416
:103D90009FD5EDE76824FF34A1E7C046C0000020AE
:103DA0004006002040010020A0010020002C01401E
:103DB000F0B58025C6466422ED056B6A224E00B53B
:103DC000B35200226A62214A1B049046128F1B0CD8
:103DD00050008018C0184346801084B21C874623C8
:103DE0001B4AD15CFDF722FA1A4F80B263081B1AF6
:103DF0003A689BB2B880FB80092A23D96A6A9A4242
:103E0000FCD3FFF77FF900235622B3540132B35499
:103E10003B68B279717A01333B600A4304D11E2BAF
:103E20000AD880BCB846F0BD132BFAD94246FA2313
:103E3000128FDB009A42F4D874230022F25401F06E
:103E400041FFEEE76B6ADCE7C0050020C000002000
:103E50004001002040060020F0B5DE4657464E46A1
:103E60004546E0B5012485B002F02EF802F032FAA2
:103E70001021E14B1A6A22431A621A6A0A431A6233
:103E80008022196A52000A4304211A621A6A0A43FC
:103E90001A621A6A3C310A431A628022196AD200F5
:103EA0000A431A621A6822431A608022596C12026D
:103EB0000A435A645A6922435A61D04B1A6A224310
:103EC0001A621A6822431A60FEF7AAFCCC4B1A68E1
:103ED00022431A605A6922435A61DA682243DA603F
:103EE000DA68A243DA60C74B1A6822431A605A693B
:103EF00022435A618023DB051A6822431A605A69FB
:103F000022435A61C04B1A6822431A605A692243FD
:103F10005A61DA682243DA6001F06EFC01F012FCAB
:103F200001F040FC0023B94A03931368B8491C43CD
:103F3000B84B14601868FDF7EFF80301181A0A214E
:103F40008000FDF7E9F80390039B002B05D0039B4D
:103F5000013B0393039B002BF9D1FEF759FEAE49B9
:103F6000AE480B78C2789A4201D100F0A5FDC3702B
:103F70004B780C2203710231053002F0F5FDFFF79A
:103F800057F8A74DA74E2B79002B01D000F084FDE8
:103F9000A54B9846AB78FA21013B5A1E93413D222E
:103FA000B488F08CB354C90060437481FDF73EF9C6
:103FB0002323FA21F35CC9001B18B08CF3846043FF
:103FC000FDF734F93378B084F480002B00D12B71E5
:103FD0006B7A002B14D0FA239B00B38400230122B8
:103FE0002D212B7173703370B370F389EA70323303
:103FF000F381B38972543233B381338A32333382DB
:1040000001F014FA0023894CE38302F017F8884B7F
:10401000884A1A60FEF7C4FD01F0D8FC4023E35C37
:10402000002B02D076230122EA54834A80211368B0
:1040300049011B051B0D1360636400231268120CF9
:104040008A425B41A264E5225B429343E633993A9C
:10405000A354774B774A1A604D22A35C0133DBB23D
:10406000A3540A2B00D885E0634B0321D86B400092
:10407000FDF752F843464A22013080B298527389C4
:10408000984202D9414618008B525B4B4C2718646A
:104090004E23E25DE05A801A80B2E052674B1B88E3
:1040A0009A46674B190058439946FDF735F8534631
:1040B000C31A9800C018634B000119885346C91AE7
:1040C000FDF7B4F850231E3080B2E052237D5E49E4
:1040D000DA00D31A1B18DB1023755223E05A4B4623
:1040E0005843FDF7A3F84346DB5D64215843FDF7D1
:1040F0009DF8E38A5549DF00FF1A636DC7199801DF
:10410000C01A5823E35AFF10C0184B46801160654F
:10411000E7825843FDF78AF803B2020400D5002372
:104120004B4A4C49E38193680B4004210B43936055
:104130002B7A002B1BD0227EF38B3F0453433F0C82
:10414000BB4200DCB0E25A23E25A013292B2E252A0
:10415000373BE15C8B055B1ADB005B185B015B1A8C
:104160003D499B008C4663449A4200DD8BE34D231E
:104170000022E2540023A372EB782A7B012B00D1AA
:1041800082E1002A00D013E2E78D6783FA222368D8
:104190009200934200D96AE1002F00D1DAE1642B4A
:1041A00000D96AE12979002906D06B23F35C002B42
:1041B00002D09F2F00D846E15E23E35C9C46002B93
:1041C00000D148E1C8235B009F4200D2D1E14246C2
:1041D000433BFF3BD35C9A465C2362469946E05CD6
:1041E00008335343524601335A43904236DDB37885
:1041F000002B00D047E231E0002C0140004001409C
:104200000020004000480140001000401C00014018
:10421000400D030098040020C0100008B0060020E4
:10422000C0050020C0000020400100204006002002
:1042300000300040AAAA000000580140B8F7FF1F54
:10424000E40C0000C2F7FF1FFF0F0000B9020000DE
:1042500000240140E8FFFF7F204E0000002970D0BD
:10426000EB7B002B00D1F0E12B7B9A46002B54D046
:104270006022A15EFB17C80F8F4243416B21DBB266
:104280007354A7523800002B5BD01D2F00D90FE2CA
:104290000023A3842023F35C9900C918890081427C
:1042A00000DC11E22323E35C002B00D18CE0A38C23
:1042B000302B66D9AA7B002A63D0313B572B00D91B
:1042C000F3E266239946E35C002B00D044E3FFF75A
:1042D000CFFC337DD24819009946FCF7A7FFA38C89
:1042E00007004946CF489A46FCF7A0FF3B007822DA
:1042F000302100905046FEF74BFA5A274346D853D8
:104300000004000CFEF75CFA43469620D95B80005F
:10431000FCF78CFF6223E0529BE66B23F15C9B462B
:104320003800002900D176E26021625E94461022B6
:1043300052426244974200DB24E35B465246675296
:10434000F2547623EB5C002B00D1F1E04023E35CD8
:10435000002B00D0D3E1EF6FB349381CFDF778F89C
:10436000002800D19BE1B14BA384B149381CFDF773
:104370005BF8002896D03023A3842323E35C002B32
:1043800022D066230127E7546B79002B00D15FE12F
:104390002123B188F05C0B004000133BC0184B1C7C
:1043A0009946738980B220815843FCF73FFF4B4602
:1043B000181AE08600F08AFB9E4BE28E5A639A63DD
:1043C000DA636D23EF5444E6A96E9B48FCF72EFF99
:1043D0007723EB5C0A215843622380B2E052FCF75A
:1043E0009BFE642380B2E052373BF35C002B00D08D
:1043F00040E12823207DF15C884200D92FE1236829
:10440000632B00D9B9E0338F68220C210C20B15402
:10441000632B03D8682302220220F254FA23728A03
:104420005B009A4203D28D3B4000FF3BF054742363
:10443000EB5C002B5CD07723EB5C002B43D180231B
:10444000DB055B6A05E65C230022E2540233E35C91
:10445000002B00D08DE0952F00D9A0E04E236422E0
:104460004046C25416339A4600239C46B4E65C2369
:104470000022E254002F00D1C9E0C72F00D991E6F5
:104480005C230022E2548DE6002A00D093E0697A92
:10449000002900D153E1E18D377F8A46FA217F0060
:1044A000890079188A4500DC8AE1AF78B9463D2752
:1044B000F05D484500D19EE26D23EB5C002B00D1FE
:1044C00071E1678B62E601F0EFFBFEF7E5FD752316
:1044D000EB5C002B0CD13A33F35C002B00D154E1A0
:1044E00056234146EA5C0233CB5C9A4200D954E140
:1044F0008023DB055A6A514B9A4200D8A9E57723FD
:10450000EF5C9946012F00D0A3E55C22A35C013348
:10451000A35401F0C9FB7423EF54A38C2F2B02D8B2
:1045200000234A46AB5400232360FFF741FC90E58B
:10453000A784B7E6FA239B009C466744BA45C0DCD3
:1045400000230022FA2163836D33EA542368890033
:104550008B425AD85C220021A154AA7B002A6FD139
:10456000642B57D85E23E35C00272979002B00D108
:1045700074E75C230022E25470E6FA22338F520083
:10458000934200D940E70A2300936421073B286F38
:10459000FEF7FEF86823C0B2F054338F38E74E239D
:1045A0000A224046C254443B9A4600239C4613E6E6
:1045B000002B00D1E8E58323E28DDB009A4200D393
:1045C00089E01300303B9BB2FA2189008B420FD265
:1045D0003D21A878775C3C39091A8F4200D19DE1D2
:1045E0004D2140465B00415C9BB25B1A2F336383D5
:1045F0002F2A00D965E700230022FA2163835D3367
:10460000E254236889008B42A4D95C23E254AB7B3B
:10461000002B15D15C2300220027E254C2E5C046DE
:10462000581B00002A03000000E0FF44FF070000C1
:1046300000004042002C0140C0270900C8AF000024
:10464000FEF784FA2368678BA9E56B23F35C19E610
:10465000D64A53639363D36300F078FAF9E40A000F
:104660000127F3880A325B080A390097FEF790F8B1
:104670003081C4E6F788B38C328EF18D0097FEF757
:1046800087F83081B5E600F061FA01F00DFB0023F8
:104690004A46A3846633A354FEF73CFA02E6381C6C
:1046A000FCF7EAFEA08460E65A230022E2525EE5AF
:1046B0001E2F00D1EEE52023F35C9A00D218920061
:1046C0001100BA4200DD3DE1B94AA0230092FEF795
:1046D0005FF8A084E6E53D21AB78715C994200D19A
:1046E00026E14D204746B34B385CD11813004900F2
:1046F00089B2091A303B2F319BB2618364E7AC4A1F
:10470000434691464246526D1B6D2F210092380060
:104710004A46FEF73DF80100A748FCF787FD317DCA
:104720004908FCF783FD7823E852638B2E2B00D9D0
:104730007EE00023A38433640023EB671DE6FA23A5
:10474000327F9B005200E08DD11888427BDD3D22F4
:10475000AB78B25C9A4200D155E1FA22944BD20078
:1047600000932F23FEF714F8FA22337F6083E08D45
:104770005B009200D21A82426BDCFA2292009446CD
:104780006344834200DA9CE635E756234146EA5CFF
:104790000333CB5C9A4200D8AAE675230122EA547F
:1047A000FFF706FBA4E6FA22814B50460093D200A5
:1047B0002F23FDF7EDFFE38D377F9A4660837F005F
:1047C000FA229200D21B524500DCB3E63D23F05C96
:1047D00001278146A978781A814500D14AE1303312
:1047E000EB5C002B00D06CE62F2350460093002199
:1047F0006F4BFDF7CDFFE38DFA229A46337F87B2E8
:104800005B0092006783D21A924500DABEE4FA2276
:1048100092009F1892E66023E15E102294468C4439
:10482000674500DCA9E001215A46E752B1542CE566
:10483000EF6F6249381CFCF70BFE002800D12EE711
:104840004B46A38491E5FA239B009A1A904200DB21
:10485000D1E63D23A978F75C3C3B5B1A9F4200D12F
:10486000EEE02F2300210093514BFDF791FFFA2238
:10487000337F87B2E08D5B0092006783D21A90424B
:1048800000DA83E479E7002300279946A38400F047
:104890005DF901F009FA7723EF544B46AF73E383D8
:1048A000FEF700F9FEF784F861E466230122E25482
:1048B000FFF7DEF9A38CC82B00D994E05A234246B7
:1048C000D05AFDF77DFF3022A35E002B01D0FFF709
:1048D000C0FB23227721A354223A6A5403396A5435
:1048E0008021374AC90532872A67A2634A620A22B1
:1048F00022606332AB5442465C33D25C203BF254BC
:10490000AB79002B01D0B389F381FEF7FBFB0121CA
:10491000264A53690B435361FFF79BFB328F738E1B
:104920009A4251D82323E35C002B4DD1E38562E604
:10493000318F728E91422AD82322A25C002A26D17E
:10494000E28558E6A0231E2100933800713BFDF755
:104950001FFFA084608B9DE401210027194AD368C2
:104960008B43D36001F0A0F9104B5F639F63DF635B
:1049700000F0CAFA4B46E754A9E48F4200DBE0E4BA
:10498000E752DEE4674500DC7FE467527DE4012204
:10499000D31A3D220027B35474233C3AEA542760CB
:1049A00001F082F95D23E28DE7549AE6002C014084
:1049B000FF070000E8FBFFFF0087930300E0FF44D0
:1049C0002823000000200040012274230027EA541D
:1049D000373BF054276001F067F95D23E28DE7541F
:1049E0001300303BFCE500235022414623865A3316
:1049F0005020CA5265E762837732AA5C002A42D00F
:104A00006D22AB545DE5308F728E904203D8232225
:104A1000A25C002A4CD00122D31A3D220027B354B5
:104A200074233C3AEA54276001F03EF95D23E754D1
:104A3000FA239B009C46317FE08D490061448CE65F
:104A4000308F738E984203D82323E35C002B2BD046
:104A5000012274230027EA54373BF154276001F008
:104A600023F95D23E754FA23327F9B005200E08D47
:104A70009A1AF6E67720285C002808D06D23EF54B8
:104A8000002363831DE501231B1AF35514E5F1543C
:104A90006D236083EB5CA4E60B4B984648234246AB
:104AA000D35A3382FFF776FAFA208000E085D8E601
:104AB000FA208000E08550E64C780279944201D0DB
:104AC000FFF755FAFFF75DFA400100209023DB0560
:104AD0001A6819490C201140802252030A431A60B7
:104AE0008022D2009A621A68144911408022D202B0
:104AF0000A431A60802292009A621A681049114093
:104B0000802252020A431A6080220E4952009A62A1
:104B10000A688243043802430A600A6805388243FF
:104B2000013802430A601A680749114080221202C4
:104B30000A431A607047C046FFFFCFFFFFFFF3FF35
:104B4000FFFFFCFF00040048FF3FFFFF0C211C4A51
:104B50001C4813688B4308390B431360022393628C
:104B60009023DB051968084080214903014319603F
:104B700080210320C90099621168814302380143F2
:104B8000116090621A68104911408022D2020A43D3
:104B90001A60802292009A621A680C4911408022A1
:104BA000D2010A431A6080229A621A6808491140A9
:104BB000802252020A431A60802252009A62704791
:104BC00000040048FFFFCFFFFFFFF3FFFF3FFFFFA1
:104BD000FFFFFCFF10B506283FD8A24B80001B58F2
:104BE0009F46A14BA14A1B78002B00D02DE10C2140
:104BF00013688B4308390B4313600223936290239D
:104C0000DB051A689A4903201140802292030A4367
:104C100096491A600A688243023802430A60886231
:104C20001A68944911408022D2020A431A608022F5
:104C300092009A621A68904911408022D2010A4378
:104C40001A6080229A611A688C49114080225202AF
:104C50000A431A60802252009A6210BD824B834A36
:104C60001B78002B00D0E3E00C2113688B4308393C
:104C70000B431360022393629023DB051A687C497F
:104C800003201140802292030A4378491A600A687F
:104C90008243023802430A6088611A6875491140EC
:104CA0008022D2020A431A60802292009A621A6815
:104CB000714911408022D2010A431A6080229A620F
:104CC000C1E70C21694A6A4813688B4308390B43D2
:104CD0001360022393629023DB051968084080214A
:104CE00049030143196080210320C90099621168BA
:104CF000814302380143116090611A685D49114097
:104D00008022D2020A431A60802292009A62564A96
:104D10001278002A00D083E01A6857491140802297
:104D2000D2010A431A6080229A629021C9050B6859
:104D3000524A1A4080239B0213430B608DE70C21DB
:104D40004A4B02241A684A488A4308390A431A60BF
:104D500090229C61D20511680840802149030143DB
:104D600011608021C90091623F4A1278002A66D101
:104D700003211A688A4302390A431A609962902310
:104D8000DB051A683B491140802212030A431A606E
:104D90008DE70C21354A364813688B4308390B439D
:104DA0001360022393619023DB051968084080217A
:104DB00049030143196080210320C90099621168E9
:104DC0008143023801431160906296E70C21274B22
:104DD00002241A6826488A4308390A431A60902236
:104DE0009C62D2051168084080214903014311608B
:104DF0008021C90091621C4A1278002A2CD103211B
:104E00001A688A4302390A431A6099629023DB05C3
:104E10001A6818491140802212030A431A6009E7F0
:104E20001A6815491140802212020A431A607CE771
:104E30000C2113688B4304390B4313601CE70321D7
:104E40001A688A4322431A6099E70C2113688B433E
:104E500004390B431360D2E603211A688A432243C4
:104E60001A60D3E74C6C0008C00000200004004822
:104E7000FFFFCFFFFFFFF3FFFF3FFFFFFFFFFCFF41
:104E80000C211C4A1C4813688B4308390B431360E0
:104E9000022393619023DB051968084080214903B0
:104EA0000143196080210320C90099621168814380
:104EB00002380143116090611A6810491140802244
:104EC000D2020A431A60802292009A621A680C4940
:104ED00011408022D2010A431A6080229A611A6826
:104EE00008491140802252020A431A60802252006F
:104EF0009A62704700040048FFFFCFFFFFFFF3FFF7
:104F0000FF3FFFFFFFFFFCFF2A4A2B491378002BCE
:104F10003AD10C200B688343083803430B6002230B
:104F20008B629020C00503682449194080239B03AD
:104F30000B43036013782049002B34D103200B6806
:104F40008343023803430B6088629023DB051968B2
:104F50001B48084080210903014319601278002A88
:104F600019D11A68174911408022D2010A431A60E8
:104F700080229A629021C9050B68134A1A40802347
:104F80009B0213430B6070470C200B68834304386B
:104F900003430B60C5E71A680A49114080221202D8
:104FA0000A431A60E6E703200B6883430138034392
:104FB0000B60CAE7C000002000040048FFFFCFFFDD
:104FC000FFFFF3FFFF3FFFFFFFFFFCFF70B5654CE6
:104FD00082B063682268981A634B0100C218634B61
:104FE0009A4236D8624D2B78002B44D06B78002B38
:104FF00017D1AB78002B00D197E0A8885D4E013324
:105000003188AB70FDF7D6FB322800DC6DE0002361
:105010002B703388AB806B78002B09D061682368D4
:10502000C91A554B994254D9AB794B2B00D97FE023
:105030000022524B52491A80524AA8680B881268C3
:10504000C41A944211DC1C1AA24212DA9B1A0B8079
:105050000DE000224C4B1A80454B98684849494A5C
:105060000B881268C41A9442EDDD9B180B8002B0C5
:1050700070BD0880FBE7454B1C78002C10D0444BDA
:105080001A88904219D8434B1988FA239B00009341
:105090000023FDF77DFBA8600022384B1A80DDE776
:1050A000344B1A883B4B19883B4B00932F23FDF759
:1050B0006FFB2F2852D0A860EEE72E4B511C1C88A6
:1050C000FA23DB0000932200344BFDF761FBA8605C
:1050D000E2E73048AB7904880133E200121B511833
:1050E000DBB2C908AB7101809FE731882268636831
:1050F0009B1ACA00521A9B18DB08AA789BB233800D
:10510000322A00D886E7264A193B94469BB2338060
:105110006344DA0FD318212222495B108B540123F8
:105120006B7000F037FA338874E780B2A88065E7C7
:10513000184A002413881B4919339BB213801A4A5A
:105140002C7094466344DA0FD31820225B108B54E2
:10515000FDF76EFFAC7100F04FFA69E70020AC601C
:105160009AE7C04698070020DFFCFFFF76050000A5
:1051700074070020D8000020E10400007E06002013
:105180006E0600207C0400205E060020C30500207F
:10519000DA000020D6000020FF070000E90300002D
:1051A0002AF9FFFFB006002012FDFFFF70B5434C47
:1051B0002378002B03D0424B1B78002B06D1414BA8
:1051C0001B78002B46D0012B07D070BD3E4B1B78BF
:1051D000002B2DD000F0FAFBF7E7394B1B78002BA2
:1051E0002DD13A4B1B78012B59D0394B1B78012B11
:1051F00041D02378002BE8D1364C2088002831D0CC
:10520000354A00261380354B9842DED9344DA989A2
:10521000FDF7D0FA32284EDCAB7B0133DBB2AB7347
:10522000322B02D96B78002B41D02388AB81CCE79D
:1052300000F022FCFDF728FAFDF76AF8C5E7224BDB
:105240001B78002B0BD0FDF71FFAFDF761F800F07B
:10525000BDFBBAE700F056FC00F0B8FBB5E700F084
:105260000BFCB2E71E4B1B78002B1DD11A4A13888A
:1052700001331380A9E790220425D20513691D424A
:10528000FCD1FFF7A3FE0A21164A136A8B4313626F
:1052900000F09CFB144A13681D431560A9E7FDF755
:1052A00037F800F093FBA0E70B4B18808DE700F078
:1052B000D5F901232B70AE73B7E7C046CE050020A9
:1052C000AC060020590600208D070020CC050020E8
:1052D000CD0500205A0600205E060020DC050000F7
:1052E000740700200040014058000240031C0B28B6
:1052F00000D90B23014A5B0013707047830700201D
:10530000F8B5DE4657464E4645460320E0B5FFF762
:1053100061FC7C239B463A4B3A4C99463A4B00251C
:105320009A46A34411E0617800292FD1E801401B7F
:10533000364B40008019596380B29963D963FDF7F9
:1053400049FA002502345C450DD05346304A1A60B4
:1053500000234A4626781380FF2EE4D1013502341B
:10536000EDB25C45F1D1FFF7F1FB00232949274A53
:1053700009889362D1624A461380234B244A1A60FB
:10538000F0BCBB46B246A946A046F8BD4B015B1A2D
:10539000DB00591AFA231B019C461F486144FBF7A6
:1053A00045FF1A4B010098460A23424607009362C4
:1053B0001A48FBF73BFF4346D862194B19491B7843
:1053C0005843FBF733FF434658639863D863E801BB
:1053D000401B40008019FCF7C1FE051CB8B2FCF769
:1053E0000BFF011C1048FCF7FDF9011C281CFCF701
:1053F000C1FBFCF741F880B2FDF7ECF90025A1E70D
:105400007E060020E406002000300040002C014011
:10541000AAAA0000C400002080969800003E49001F
:1054200083070020CF07000000007A4410B572B651
:10543000194B1B78FF2B07D0FFF762FF174B1A8819
:10544000174BDA6262B610BD154C164B0320E362AF
:10545000154B1B786363A363E363FFF7BBFB372341
:10546000C820A362FDF7B6F90520FFF7B3FB282398
:10547000C820A362FDF7AEF90620FFF7ABFB1923A6
:10548000C820A362FDF7A6F9FFF760FB0023074AD7
:10549000A3621380D2E7C046307C0008C40000201D
:1054A000002C0140CF070000830700207E0600206B
:1054B00070B5154B154CE36272B63C23144D154E76
:1054C00001202E60A362144B1B786363A363E36324
:1054D000FFF780FB4B20FDF77DF950234B20A362A3
:1054E000FDF778F95A234B20A3622E60FDF772F97D
:1054F000FFF72CFB0023094AA3621380084B1B888B
:10550000E36262B670BDC046CF070000002C0140C8
:1055100000300040AAAA0000830700207E06002079
:10552000C400002010B572B6134C144B144AE36249
:10553000144B03201A605023A362134B1B78636340
:10554000A363E363FFF746FB6420FDF743F94623BB
:105550006420A362FDF73EF928236420A362FDF7CF
:1055600039F9FFF7F3FA0023084AA3621380084BC6
:105570001B88E36262B610BD002C0140CF0700001B
:10558000AAAA000000300040830700207E06002009
:10559000C400002010B5114B114C0220E3623223ED
:1055A000A362104B1B786363A363E363FFF712FBF3
:1055B0009620FDF70FF90C4A0C4B96201A601E231B
:1055C000A362FDF707F9FFF7C1FA0023084AA362B7
:1055D0001380084B1B88E36210BDC046CF07000054
:1055E000002C014083070020AAAA000000300040E0
:1055F0007E060020C400002010B5114B114C022083
:10560000E3622823A362104B1B786363A363E36305
:10561000FFF7E0FA9620FDF7DDF80C4A0C4B9620D8
:105620001A605023A362FDF7D5F8FFF78FFA002325
:10563000084AA3621380084B1B88E36210BDC04672
:10564000CF070000002C014083070020AAAA000019
:10565000003000407E060020C4000020F8B5134D45
:10566000134BEB6272B67724124B134F1B78134E19
:105670006B63AB63EB63142120003E60FBF7D6FD48
:10568000FFF7A8FA63100A330A20AB62023CFDF769
:10569000A1F8631CEFD1FFF759FA0023084AAB6267
:1056A0001380084B1B88EB6262B6F8BD002C0140EA
:1056B000CF0700008307002000300040AAAA0000A6
:1056C0007E060020C40000200D4885460D480E4986
:1056D0000E4A002302E0D458C4500433C4188C424C
:1056E000F9D30B4A0B4C002301E013600432A242B1
:1056F000FBD300F0F1FFFCF7DFFDFEF7ADFBFEE7AB
:1057000000200020C00000209C040020306D000814
:105710009C04002098080020FEE70000054B064A84
:10572000998811805988054A11801A88044B1A807B
:105730007047C046840700208E0600209206002095
:1057400098060020C220124B80001A5811491140BF
:10575000C02212020A431A508022032192001A60CA
:105760000D4B0E4A9A600E4ADA605A68120C120407
:105770000A435A601A6801390A431A601A680631E6
:105780000A431A601A6807390A431A607047C0460C
:1057900000E100E0FF00FFFF08000240402401405C
:1057A000840700200023124A82B0019393681149B4
:1057B000194080231B060B4393609368002BFCDB8E
:1057C00001230193019B002B05D0019B013B019319
:1057D000019B002BF9D1064A064993680B40012131
:1057E0000B43936013681942FCD002B07047C04667
:1057F00000240140E8FFFF7FF0B5C64600B592B037
:105800001022002102A8FCF77BFD1422002106A82B
:10581000FCF776FD102200210EA8FCF771FD802018
:10582000454B8000996990240143996180219A69D0
:10583000890202400192019A5A69E4050A435A61B9
:105840005B6908220B400093009B03230CA92000F6
:105850000C920D9300F074FF402203230C920D93E1
:1058600000230CA920009846109300F069FF334BE9
:1058700033491A6840200A401A601A6831490825DD
:105880000A4020211A601A682F4C0A431A601A68CD
:10589000603182431A601A6800260A431A601A6847
:1058A0002A4900271140802252000A431A601A68D0
:1058B000274911408022D2000A431A60A36A254971
:1058C0000343A362A36A20002B43A3628023A26A3E
:1058D0005B021343A3620B681F4A1A4080231B0418
:1058E000134380220B600023120602A90292039345
:1058F0000496059700F0F2FE002201230892099316
:10590000434606A920000A930696079700F000FF79
:1059100004220721E3689343E36063698B43013901
:105920000B4363616368934363606368AB43636085
:1059300012B080BCB846F0BD001002400800024022
:10594000EFBFFFFFFFCFFFFF00240140FFFCFFFF81
:10595000FFF3FFFF08270140FFFF3FFE8022124BAD
:105960005202D9680A43DA60DA6810490A40DA60FC
:105970000F4B1B78002B12D00E4B0F4A9A610A2254
:1059800001210C4B1A620D4A12789A620C4ADA62B3
:105990005A690A435A6100220A4B5A707047054BF4
:1059A000094A9A61EBE7C04600100240FFFFFEFF84
:1059B000CD0500200040014001800000800400204F
:1059C000FFFF00008C0700200160000080221D4BBB
:1059D0005202D96810B50A43DA60DA681A490A40F7
:1059E000DA601A4B1B78002B27D0194B194A9A61A1
:1059F0000A220121164B18481A620278174C9A6243
:105A0000174A4068DA625A690A435A610022627092
:105A10005A62144C144AD460144C94605060144878
:105A200010608022D86892000243DA601A6A0A4342
:105A30001A621A680A431A6010BD054B0D4A9A6132
:105A4000D6E7C04600100240FFFFFEFFCD05002054
:105A50000040014001800000800400208C070020ED
:105A6000FFFF00009807002058000240344001402A
:105A70008B0900000160000080221A4B5202D96895
:105A800010B50A43DA60DA68174918480A40DA6044
:105A90006022174B174C9A615D3A1A6202789A623B
:105AA0003D22DA623C3A4270596911435961124908
:105AB000CC60124C8C6080781730486010480860C9
:105AC0008021D86889000143D960196A114319629D
